:100000000C9458030C949F030C949F030C949F032F
:100010000C949F030C949F030C949F030C949F03D8
:100020000C949F030C949F030C94542D0C94272E36
:100030000C94D7260C949F030C949F030C949F035D
:100040000C949F030C949F030C949F030C949F03A8
:100050000C949F030C9442270C949F030C949F03D1
:100060000C949F030C949F030C949F030C949F0388
:100070000C949F030C949F030C949F030C949F0378
:100080000C949F030C949F030C949F030C949F0368
:100090000C949F030C949F030C949F030C949F0358
:1000A0000C949F030C949F030C949F0301535400E2
:1000B00055005600240025002600000021002200E3
:1000C000230057001E001F00200000000000270032
:1000D0003700280001000100010001004A00520021
:1000E0004B000000500001004F0001004D00510086
:1000F0004E000000000049004C000100000000001C
:10010000000000002A2B2800000000000000000072
:100110000000000000000029000000002C1E342018
:10012000212224342627252E362D3738271E1F203E
:100130002122232425263333362E37381F04050683
:100140000708090A0B0C0D0E0F10111213141516C7
:100150001718191A1B1C1D2F3130232D35040506C5
:100160000708090A0B0C0D0E0F10111213141516A7
:100170001718191A1B1C1D2F3130354C00000000B8
:10018000000000000000000000000000000000006F
:10019000000000000000000000000000000000005F
:1001A0007E0F00D4FFFFFFC7000000780A00253053
:1001B0003862003A200025303258000A722F63203E
:1001C00030313233343536370A001E0F0500047FD4
:1001D0003F1F643214643214783C1E1E140A052238
:1001E00023252628292A2C2D2F3032333536383A2C
:1001F0003B3D3E4042434547494A4C4E5051535582
:1002000057595A5C5E6062646668696B6D6F7173A2
:100210007577797B7D7F81838587898A8C8E9092A3
:100220009496989A9C9E9FA1A3A5A7A8AAACAEAFAE
:10023000B1B3B4B6B8B9BBBCBEBFC1C2C3C5C6C7F3
:10024000C9CACBCCCDCED0D1D2D2D3D4D5D6D7D7A4
:10025000D8D9D9DADADBDBDBDCDCDCDCDCDDDDDDEC
:10026000DDDCDCDCDCDCDBDBDBDADAD9D9D8D7D7E8
:10027000D6D5D4D3D2D2D1D0CECDCCCBCAC9C7C695
:10028000C5C3C2C1BFBEBCBBB9B8B6B4B3B1AFAED3
:10029000ACAAA8A7A5A3A19F9E9C9A989694929079
:1002A0008E8C8A89878583817F7D7B797775737151
:1002B0006F6D6B6968666462605E5C5A595755532E
:1002C00051504E4C4A4947454342403E3D3B3A38E7
:1002D00036353332302F2D2C2A292826252322FF8C
:1002E000AA7F554000010101010101010101020243
:1002F00002020202020202030303030303030304D4
:10030000040404040404050505050506060606069E
:10031000070707070708080808090909090A0A0A58
:100320000B0B0B0C0C0C0D0D0D0E0E0E0F0F0F10FA
:100330001011111112121313141415151616171784
:10034000181819191A1A1B1B1C1D1D1E1E1F2020F0
:10035000212222232424252626272829292A2B2C3A
:100360002D2D2E2F30313232333435363738393A5D
:100370003B3C3D3E3F404142434445464748494A55
:100380004C4D4E4F50515354555658595A5B5D5E23
:100390005F616264656668696B6C6D6F70727375BE
:1003A00077787A7B7D7E8082838587888A8C8E8F22
:1003B00091939596989A9C9EA0A2A3A5A7A9ABAD50
:1003C000AFB1B3B5B7BABCBEC0C2C4C6C9CBCDCF3E
:1003D000D1D4D6D8DBDDDFE2E4E7E9EBEEF0F3F5EC
:1003E000F8FAFDFFFD377A585A000004E6D6B44605
:1003F0000200210116000000742FE5A3E0010D00AA
:10040000AC5D003D8889C65436C31750C5CF4AEA53
:10041000057572DC410C776B06B1F1DAB70225493C
:1004200084FA98A3C74B54BA0BEBD34B36F9326A14
:100430004DAAE42AFB74562ADBE59AB1B3C4EDBF9A
:100440000F4566618A64754F70BF7DA7DDC2148E4B
:10045000E505A5CFE7C103B9DFF27B5BDFD0284913
:10046000B8E0A2E9610562CAD1E3F52216952D7CB8
:1004700030AA26923C600FB694DFF3C540A7D7BBE5
:100480007E6F7F84CC1B7199F61DD03337E8908E38
:100490001782B55EE46BD2A9149290D2C5A1CE06A4
:1004A000D30A7897B71C78BAA14ED0465B260000D5
:1004B0003222DD3BFFB266B10001C8018E020000AE
:1004C000D2748C0DB1C467FB020000000004595ABD
:1004D0005B735D004B6579626F6172642073746158
:1004E00072742E0A005B575D005B535D005B525DCA
:1004F000005B445D005B435D001C037600690061A6
:10050000006C003A0066003600340063003200627E
:100510000033006300000008036E0075006D0000EA
:10052000000A0332004C00310050000000040309AF
:100530000409027B00040100A0FA09040000010381
:10054000010100092111010001224000070581037A
:1005500008000A090401000203000000092111013A
:100560000001222200070582032000010705030382
:10057000200001090402000103000000092111010B
:100580000001226D000705840320000A090403000E
:1005900002030000000921110100012222000705C9
:1005A0008503200001070505032000011201100149
:1005B0000000000838132320010001020301063166
:1005C000FF0974A1010975150026FF009520750823
:1005D00081020976150026FF00952075089102C05A
:1005E0000660FF0961A1010962150026FF00952040
:1005F000750881020963150026FF00952075089192
:1006000002C005010980A101850319012AB700155F
:100610000126B700950175108100C0050C0901A1E4
:1006200001850419012AA002150126A00295017571
:10063000108100C005010906A1018505050719E023
:1006400029E71500250195087501810205071900A4
:1006500029EF1500250195F07501810205081901A2
:100660002905950575019102950175039101C00554
:10067000010906A101050719E029E71500250195E3
:100680000875018102950175088101050719002986
:10069000FF150026FF009506750881000508190161
:1006A0002905950575019102950175039101C00019
:1006B00011241FBECFEFDAE0DEBFCDBF04B603FECC
:1006C00027C08091E3029091E402A091E502B091ED
:1006D000E6028730904BA740B04BD1F41092E30272
:1006E0001092E4021092E5021092E60214BE84B762
:1006F000877F84BF0FB6F894A895809160008861C9
:1007000080936000109260000FBEE0E0F8E309956E
:1007100011E0A0E0B1E0EEE8F3E602C005900D9232
:10072000A83DB107D9F722E0A8EDB1E001C01D92C4
:10073000A33EB207E1F70E94092A0C9468310C9499
:100740000000FF93EF93E091D801F091D901309729
:1007500009F00995EF91FF910895FC018591803092
:1007600011F0EFDFFBCF0895FF27E0E230E247FF13
:100770000CC0419597FF09C0EDE26095709580959A
:100780009095611D711D811D911D27FF02C021954E
:1007900030E350E2AA27660F771F881F991FAA1F10
:1007A000A41710F0A41B63955A95A9F7AA3008F076
:1007B000A95FA05DAF93F395611571058105910562
:1007C00041F7ED3211F4EF93F395F21718F43F93DC
:1007D000F395FBCF8F91B5DFFA95E1F70895E99195
:1007E000F9918591803021F0853219F0AADFF9CF97
:1007F000089520E0E89455915532C1F3503311F437
:10080000689455915A3348F4505390F3220F022EB6
:10081000220F220F200D250FF4CF0EF42195899180
:100820009991533619F3533729F1533559F1BC01D6
:1008300088279927E8945C3621F4899199916894E6
:100840005591543639F446EF7EF077FF0DC08FEFA7
:100850009FEF0AC055374AE039F0583540E121F0A2
:10086000523642E009F00895FF93EF937DDFEF9158
:10087000FF91B7CFFF93EF93FC0181918030B9F3E3
:1008800060DFFBCFFF93EF9368DFF1CFDF93CF9370
:10089000CDB7DEB72596A3DFCF91DF91089581E034
:1008A000089581E008950C94510408950C94550422
:1008B0001F93CF93DF9300D000D00F92CDB7DEB758
:1008C00049835A836B833091190289819A8131114E
:1008D0001DC06623B9F02223A9F00E94C523182F5A
:1008E000682F89819A810E94702369817A81812F82
:1008F0000F900F900F900F900F90DF91CF911F915D
:100900000C9494160E949D23182FEFCF0E94C523AC
:1009100069817A81EDCFFC01262F4081518162816E
:10092000738184810C945804CF93DF93D82FC92FFF
:1009300060E00E948B046D2F7C2FDF91CF910C948F
:1009400056048F929F92AF92BF92CF92DF92EF9216
:10095000FF920F931F93CF93DF9300D000D0CDB7BA
:10096000DEB76B017C0181E090E0A0E0B0E04C01DB
:100970005D0104C0880C991CAA1CBB1C4A95D2F7C7
:10098000B501A4014C015D0104C0880C991CAA1C8E
:10099000BB1C2A95D2F7482959296A297B2904C00A
:1009A000880F991FAA1FBB1F0A95D2F78A019B01C6
:1009B0000C211D212E213F2104171507260737077B
:1009C000F9F49C01AD012C293D294E295F29298389
:1009D0003A834B835C8369817A818B819C810F9000
:1009E0000F900F900F90DF91CF911F910F91FF907B
:1009F000EF90DF90CF90BF90AF909F908F90089531
:100A000080959095A095B0954C015D018C209D201E
:100A1000AE20BF2089829A82AB82BC82DCCF0F934A
:100A2000CF93DF9300D000D0CDB7DEB7262F042FB1
:100A30004091610250916202609163027091640280
:100A400049835A836B837C83482F69817A818B81A8
:100A50009C810E94A1040F900F900F900F90DF9146
:100A6000CF910F910C942A220E947E270E941A2572
:100A7000811102C00E94BE250C9488080C948B083A
:100A800008950E941D1E0E9440052FEF84E39CE004
:100A9000215080409040E1F700C000000C94662790
:100AA0000F931F93CF93DF938C01EB010E94F912F8
:100AB000882389F1BE01C8010E945304882359F19B
:100AC000BE01C8010E941A18882329F1BE01C8017D
:100AD0000E946F188823F9F0BE01C8010E944219D4
:100AE0008823C9F0BE01C8010E94F611882399F03D
:100AF0008A81882339F001158CE5180751F00E3DE5
:100B00001C4579F0CE01DF91CF911F910F910C948C
:100B10004F040E94410580E0DF91CF911F910F911A
:100B200008950E94BE25F7CFCF93DF93D82FC92F0A
:100B300061E00E948B046D2F7C2FDF91CF910C948C
:100B40005005DF92EF92FF920F931F93CF93DF93A5
:100B5000E82FF0E0E450FF4FD490282F26952695FB
:100B6000269530E0F901E456FE4F0491877010E0BD
:100B7000082E02C0159507950A94E2F70170112717
:100B8000F901E457FE4FE490F12C082E02C0F594D1
:100B9000E7940A94E2F791E0E922FF24F901E4588E
:100BA000FE4FC491D0E002C0D595C7958A95E2F773
:100BB000C170DD270115110519F081EE0E94D21ACE
:100BC000E114F10419F086EE0E94D21A8D2D0E94D4
:100BD000551BEF2819F086EE0E94161B012B19F009
:100BE00081EE0E94161BCD2B51F08CE2DF91CF914C
:100BF0001F910F91FF90EF90DF900C94551BDF91A8
:100C0000CF911F910F91FF90EF90DF900895EF9299
:100C1000FF920F931F93CF93DF93EC01162F0AE0FF
:100C20008881882309F454C0813009F04EC089813D
:100C3000813099F47E0122E0E20EF11C8A810E944B
:100C4000551BE7012196812F815050F3EFE9FFE01A
:100C50003197F1F700C00000F7CF823041F47E01F8
:100C600082E0E80EF11C8A810E94D21AEACF83301A
:100C700041F47E01E2E0EE0EF11C8A810E94161B17
:100C8000E0CF843011F02196DDCF2A81229690E0CA
:100C900080E0AE014F5F5F4F2053330B2A303105A8
:100CA00048F0019778F2EFE9FFE03197F1F700C0E3
:100CB0000000F7CF089FB001099F700D1124C901F2
:100CC000860F971F2981EA01E4CF0E94A105BACFC0
:100CD000DF91CF911F910F91FF90EF90089560E009
:100CE0000C940706829594E0899F900111242C7C36
:100CF000869586958373282B30E0C901880F991F4C
:100D00008A7A359527952575822B089508950C9438
:100D1000860681E008950C948906CF93C82F0E941F
:100D200087068C2FCF910C948B0690E080E008957D
:100D30000895FC01EE0FFF1FE455FE4F859194913D
:100D40000895CF93DF930E9494160E94AC07EC01A4
:100D5000811521E5920708F048C0811530E5930719
:100D600008F0AFC0803E910518F5803C910508F071
:100D700096C0883A910570F4853A910508F08CC0C8
:100D80008130910531F10497813A910510F1D0E05D
:100D9000C0E01FC08F3B9105D1F3C85AD0E0CC0F03
:100DA000DD1FC65DDE4F0990D881C02DD46411C00F
:100DB000811540E3940788F4C11580E2D80708F054
:100DC00074C0C83ED10528F0CE019A9581159F4187
:100DD000F0F6CE01DF91CF910895811530E49307AD
:100DE00008F466C0DF70D06AF4CF8115964560F5CF
:100DF000C11585E5D80708F096C0C11594E5D90757
:100E0000F0F4C11523E5D20708F079C0C11532E529
:100E1000D30708F46FC0CE018370992721E030E03A
:100E200002C0220F331F8A95E2F7C695C69540E2AD
:100E3000C49FE0011124C22BD32BDC68CACFDC2F66
:100E4000CC27C46FD06AC5CFC1158AE5D80788F40E
:100E5000C11599E5D90708F071C0CE0198558F3FAB
:100E6000910511F008F093CFDC2FCC27C06FD06A2A
:100E7000B0CFCE0190568115904208F088CF8D2FCB
:100E80008F710E94440890E0982F882788279F71CF
:100E90009C012C2BE90150C0A497D0649ACF805CB0
:100EA00091090E949906EC0194CFCE019F70F9CF71
:100EB0009927D3FF03C0EC01D86C8BCFEC01D06C29
:100EC00088CF74E0969587957A95E1F783702C2FFB
:100ED00026952695237040E2249F90011124382BFB
:100EE0008C2F8370C1E0D0E002C0CC0FDD1F8A954B
:100EF000E2F7A1CFDC2FCC27C16FD06A6ACFCE0139
:100F00008370992721E030E002C0220F331F8A95B9
:100F1000E2F7C695C69580E2C89FE0011124C22B76
:100F2000D32BDA6856CF8C2F0E944408C82FD0E00C
:100F3000DC2FCC27CC27DF71D0624BCF8C2F8F706A
:100F40000E94440834E0D695C7953A95E1F7CF70F2
:100F5000DC2FC82FD0693DCF803E910599F1C8F4B0
:100F60008133910509F476C048F48932910509F47A
:100F70006AC08A32910509F474C0089589339105D5
:100F8000D1F082389105B9F08533910509F454C048
:100F90000895843E910599F138F4823E9105F9F067
:100FA000833E910509F10895863E910599F1873EAA
:100FB0009105B9F108952091D4022370A1F080EE3B
:100FC00090E008952091D40220FD52C03091D502C6
:100FD00030FF09C024FF4FC090E080E004C02091A2
:100FE000D40222FDF7CF08952091D40222FD46C0FD
:100FF0003091D50230FDE3CF24FFF5CFEDCF209126
:10100000D50221FFF0CF8091D40284FDE5CF87EE99
:1010100090E008952091D40223FFE5CF24FDDCCF9A
:10102000F6CF2091D40223FD2CC03091D50231FFA0
:10103000E3CF84EE90E008952091D40225FFD3CF32
:1010400089E290E008952091D40225FFCCCF85E37A
:1010500090E008952091D40226FFC5CF8AE290E067
:1010600008952091D40226FFBECF81E390E0089539
:1010700089E390E0089583EE90E0089582EE90E099
:10108000089586EE90E008959091D40292FF06C0F4
:10109000282F28712830F9F4877F846093FF06C0D9
:1010A000282F28712831F1F4877E84612091D502A0
:1010B00020FF06C0382F38713830D9F4877F81601F
:1010C00021FF06C0282F28712831D1F4877E816145
:1010D00094FD877E0895282F24712430F9F68B7FA4
:1010E0008860DCCF282F2471243101F78B7E886142
:1010F000DDCF382F3171313019F78E7F8860E0CF26
:10110000282F2171213121F78E7E8861E1CF08954A
:101110000C94870808950C948A08E82FF0E0E654B0
:10112000FD4F80810895CF92DF92EF92FF920F934F
:101130001F93CF93DF938BEB91E00E94AD038AEB7B
:10114000E82E82E0F82ED0E0C0E096EBC92E91E0C8
:10115000D92E0EEA11E0DF93CF93DF92CF920E9457
:10116000460483EB91E00E94AD03F70181917F017A
:101170000E9472061F928F931F930F930E94460442
:101180008CEA91E00E94AD0321968DB79EB7089638
:101190000FB6F8949EBF0FBE8DBFC530D105D9F6EE
:1011A000DF91CF911F910F91FF90EF90DF90CF9043
:1011B000089580EA8A95F1F7089500C008950C9487
:1011C000D908F894E82FE295EF70F0E041A18F7014
:1011D00021E030E0B90102C0660F771F8A95E2F77F
:1011E000CB01962F9095942391A392A1892B82A352
:1011F0007894089586EF0E94E10887EF0E94E10845
:1012000081E30E94E10883E30E94E10882E30E94F7
:10121000E10885E30E94E10884E30E94E10886EC8E
:101220000E94E10887E90E94E108A5EBB2E01C9268
:10123000EAEBF2E0108211961C921197118212963D
:101240001C921297128213961C9213971382149673
:101250001C92148285E00E94AA090C943405BF9266
:10126000CF92DF92EF92FF920F931F93CF93DF9372
:101270000CE511E0C5EBD2E0C12CD12CEE24E394B7
:10128000F12CF80181918F01F894E82FE295EF702D
:10129000F0E021A18F70A70102C0440F551F8A956D
:1012A000E2F7CA01922F982B91A392A180958923EE
:1012B00082A378940E94DD08E8E5F1E030E020E0C8
:1012C000B12C4191A42FA295AF70B0E090968C9173
:1012D00090E04F7002C0959587954A95E2F780FDA2
:1012E00035C08E2D022E01C0880F0A94EAF7B82A65
:1012F0002F5F3F4F2430310521F7F801319780816E
:101300000E94E10854E0C5120E94DF088881B816E7
:10131000F9F0B88281E0D82AC394219685E0C812FA
:10132000B0CF2D2D45E06AEB72E085EB92E00E9494
:10133000AB090E943E058D2DDF91CF911F910F913A
:10134000FF90EF90DF90CF90BF90089580E0CFCFD7
:1013500080E0E1CF0895FF920F931F93CF93DF9327
:10136000F82E092F162FD72FC42F222349F081E002
:101370008093DC010E9407279093DB018093DA01C0
:101380008091DC018823A1F08091DA019091DB014A
:101390000E943327069760F0EF2DF02FA12FBD2F6D
:1013A000CE0FDF2FD11DEC17FD0741F41092DC01A9
:1013B000DF91CF911F910F91FF90089581918D93AF
:1013C000F2CFCF92DF92EF92FF920F931F93CF93C2
:1013D000DF93D62FC72F982F711113C0442329F004
:1013E000E82FF0E0EC51FD4F9491692F792F892F70
:1013F000DF91CF911F910F91FF90EF90DF90CF90F1
:101400000895272F30E0E82FF0E0442321F0EC513D
:10141000FD4FE491F0E086E0D89F700111240FEFBA
:1014200010E0C701B8010E94E42F8D2F90E0880FD3
:10143000991FA5E5A69FA001A79F500D1124841B0D
:10144000950BD82EDD0CD80EC801821B930B8E9FF6
:10145000A0018F9F500D9E9F500D1124952FDC9E53
:10146000E0011124CD2FDD27D801AC1BBD0BED0110
:10147000CE9FD001CF9FB00DDE9FB00D11248B2FDA
:10148000E801CD19D1096E01C29EE001C39ED00DC5
:10149000D29ED00D1124CD2FDD270C1B1D0B0E9FCE
:1014A000E0010F9FD00D1E9FD00D11242E2F633011
:1014B0007105D9F03CEFE31633E0F30668F46130D0
:1014C0007105B9F062307105C1F0AFEFEA16F104B1
:1014D00048F4852F9D2F06C06430710589F0663071
:1014E0007105B9F3692F722F83CF9B2F8E2F252F74
:1014F000F9CF9E2F2B2F852FF5CF8D2F9E2FF7CF36
:101500008E2F2D2FEFCF41E00C94E10908950C941C
:10151000830ACF93DF93982F762F842FE901692FC9
:101520000E94870A798368838A83DF91CF91089527
:101530008091BF02982F9E7F29F4817082608093F2
:10154000BF0208958635E8F381708465F8CF88E09E
:1015500090E00C9409310F931F93CF93DF938B018D
:10156000D82FC92F0E94980AA8016D2F7C2F88E0E0
:1015700090E0DF91CF911F910F910C942731CF9381
:10158000DF9300D000D0CDB7DEB78091BF0290913D
:10159000C002A091C102B091C20289839A83AB8339
:1015A000BC83BC01CD010F900F900F900F90DF9185
:1015B000CF910C94AB0ACF93DF9300D000D0CDB77E
:1015C000DEB7EFEBF2E083E0808311828FEF82835E
:1015D0008383148280819181A281B38189839A83DC
:1015E000AB83BC83BC01CD010F900F900F900F9087
:1015F000DF91CF910C94AB0A8091BF0280FF02C0B3
:101600008695089580E00895CF93DF9300D000D0B1
:10161000CDB7DEB79091C302933018F49F5F9093DB
:10162000C3028823B1F08091BF029091C002A091C3
:10163000C102B091C20289839A83AB83BC83BC018F
:10164000CD010F900F900F900F90DF91CF910C94E0
:10165000AB0A0F900F900F900F90DF91CF910895EC
:1016600081E00C94040BCF93DF9300D000D0CDB772
:10167000DEB79091C302992319F091509093C30261
:101680008823B1F08091BF029091C002A091C10265
:10169000B091C20289839A83AB83BC83BC01CD0124
:1016A0000F900F900F900F90DF91CF910C94AB0A99
:1016B0000F900F900F900F90DF91CF91089581E0E0
:1016C0000C94330B8091C3020895CF93DF9300D025
:1016D00000D0CDB7DEB78093C3026623B1F080910E
:1016E000BF029091C002A091C102B091C202898351
:1016F0009A83AB83BC83BC01CD010F900F900F90F8
:101700000F90DF91CF910C94AB0A0F900F900F9038
:101710000F90DF91CF91089560E00C94650B80915C
:10172000C00208958091C10208958091C202089577
:1017300070E00C946612609108018091BF0280FFF6
:101740000AC08091070123E0829FC00111248C53BD
:101750009D4F0C94980B8091090190910A0123E010
:10176000829FF0011124EC53FD4F891750F711822D
:10177000108212828F5F3396F8CF9091BF0290FF54
:1017800014C09091090120910A0133E0939FF00168
:101790001124EC53FD4F921710F00C949B0B818396
:1017A000608342839F5F3396F6CF0895CF93DF9394
:1017B00000D00F92CDB7DEB79091BF0290FF0AC064
:1017C0009E012F5F3F4F0E94890A4B8169818A8168
:1017D0000E94BD0B0F900F900F90DF91CF91089555
:1017E000CF93DF93EC01EC81F0E0E152FE4F4491A6
:1017F000EFEBF2E0628181810E94D60B8C818F5FDA
:101800008C83DF91CF910895CF93DF93EC01EFEBC1
:10181000F2E0438162818C810E94D60B8C818F5FC4
:101820008C83DF91CF9108950F931F93CF93DF9314
:1018300000D00F92CDB7DEB78C018091DD01811110
:101840000AC09E012F5F3F4F4FEF6FEF0E94890A42
:101850008A818093DD01F8016481613049F0623052
:10186000F1F08091DD0140E0662331F040E019C0E5
:101870006091DD0140E080E00E94BD0BF8018481B1
:1018800090E0019663E070E00E94F82F84830F904F
:101890000F900F90DF91CF911F910F91089540917C
:1018A000DD0180E060E0E8CFAF92BF92CF92DF929F
:1018B000EF92FF920F931F93CF93DF9300D000D04E
:1018C00000D00F92CDB7DEB7182FF62E042FD22EF0
:1018D0009091BF0290FF2BC0E92FE695AE2FB0E0AC
:1018E000AF59BE4F8C918093FB019E7F923081F562
:1018F0009E012F5F3F4F812F0E94890A4B81698192
:101900008A810E94BD0B1093C002F092C102009325
:10191000C202DD2061F08091BF029091C002A091CF
:10192000C102B091C202BC01CD010E94AB0A279650
:101930000FB6F894DEBF0FBECDBFDF91CF911F91E0
:101940000F91FF90EF90DF90CF90BF90AF900895F0
:10195000823019F40091C202D6CF863019F410916A
:10196000C002D1CF8930D9F3893169F6E9518E2F80
:101970008170C82EE695F0E0E152FD4FA590B4903D
:10198000E12CBB2460910B01E61618F00E949B0B22
:10199000BACF2E2D30E0EA9CC001EB9C900D1124B3
:1019A00070E00E94E42F812FC11013C0860F409178
:1019B0000901420F532F511D9A01220F331F240F8B
:1019C000351F2C533D4F402F6F2D0E94890AE39401
:1019D000D9CF861BECCF282FEFEBF2E0818143813A
:1019E0006281885F0C94540C81E00C94EB0C282FDE
:1019F000EFEBF2E081814381628188500C94540CBA
:101A000081E00C94F70C282FEFEBF2E0628131E1DA
:101A1000630F08F46FEF438181810C94540C81E0D3
:101A20000C94030D282FEFEBF2E0628131E1631B90
:101A300008F460E0438181810C94540C81E00C94A3
:101A4000120D282FEFEBF2E0438131E1430F08F450
:101A50004FEF628181810C94540C81E00C94210D34
:101A6000282FEFEBF2E0438131E1431B08F440E023
:101A7000628181810C94540C81E00C94300D20E043
:101A80000C94540CEF92FF921F93CF93DF93EC01D1
:101A900010E0EE24EA94F12C60910B01161770F01F
:101AA0000E949B0B9A818C8190FF27C08F5F8C8353
:101AB000DF91CF911F91FF90EF9008952091090140
:101AC000422F410F5527551FCA019A01220F331F7C
:101AD000280F391F2C533D4F70E0C7010E94F82F8B
:101AE000962F8C814091C2026091C102199F800D96
:101AF00011240E94890A1F5FCFCF8150D8CFBF9297
:101B0000CF92DF92EF92FF920F931F93CF93DF93C9
:101B1000FC0182810FEF80FF01E010E080910B015A
:101B20001817C0F00E949B0B8091DF01013009F073
:101B300051C0811102C080910B0181508093DF015F
:101B4000DF91CF911F910F91FF90EF90DF90CF9099
:101B5000BF900895C0910901C12ED12CCC0DDD2D6F
:101B6000D11DCE01880F991FC80FD91FCC53DD4F4F
:101B7000198218821A8234E0E32EF12CB12C809164
:101B8000DF018B0D853004F18370082E000C990B5A
:101B9000C816D90691F48091C2028E9DA0018F9D36
:101BA000500D112455954795559547959E01609187
:101BB000C1028091C0020E94890AB00EF1E0EF1AC2
:101BC000F108E9F61F5FAACF87FFDFCF90910B01E5
:101BD000890FDBCF90E0019660910B0170E00E94CD
:101BE000F82FACCF0F931F93CF93DF938091090110
:101BF00090910A0123E0829FF0011124EC53FD4FE4
:101C0000891740F1C0E0D3E060910B01C61740F1A5
:101C10000E949B0B209105018091DE01820F809331
:101C2000DE0190910601920F90930601191654F46B
:101C3000082E000C990B40910B014150550B841755
:101C400095071CF0219520930501DF91CF911F91FD
:101C50000F9108951182108212828F5F3396D0CF38
:101C60000C2F10E070E0C8010E94F82F20910901AC
:101C7000820F482F50E02091DE01022E000C330B22
:101C800002171307BCF020910601022E000C330B43
:101C9000201731077CF08D9F900111242C533D4F6C
:101CA0004091C2026091C1028091C0020E94890AE3
:101CB000CF5FAACFFA01EE0FFF1FE40FF51FEC5321
:101CC000FD4F118210821282F3CFEF92FF920F9399
:101CD0001F93CF93DF93CDB7DEB72E970FB6F8944F
:101CE000DEBF0FBECDBF8D879E87AD85BE851496A6
:101CF0001C91212F30E0D9010E9443309B01AC019F
:101D00000E94593069837A838B839C83E0E2F0E000
:101D1000E11BF109A5E5B0E09B01AC010E9459303F
:101D200069877A878B879C879F01DF010E943B3000
:101D30006D837E838F8398879B01AC010E94643002
:101D40009B01AC0169817A818B819C81260F371FB1
:101D5000481F591F69857A858B859C850E940C30A8
:101D6000F22E822F90E079E2721788F183E0289FAB
:101D70009001112435952795122F109500E085E5E7
:101D8000E82EEF1880910B01081780F10E949B0B41
:101D9000AD85BE8514969C9181E0992319F090320F
:101DA00019F48FEF8093040180910401890FED8570
:101DB000FE8584832E960FB6F894DEBF0FBECDBF8E
:101DC000DF91CF911F910F91FF90EF90089525E53E
:101DD00030E0D901A81BB90B9D01220F331F2A0F38
:101DE0003B1F37FFC7CF2F5F3F4FC4CF8E2D01FD65
:101DF0008F2D20910901E22FE00FFF27FF1F9F0188
:101E0000220F331F2E0F3F1F2C533D4F412F609148
:101E1000C1020E94890A0F5FB5CF0F931F93CF9322
:101E2000DF93EC0110E000E090910B019017110698
:101E300009F06CF40E949B0B8C8190E001968170FC
:101E400099278C83DF91CF911F910F910895209155
:101E50000901A801420F511D9A01220F331F240FBF
:101E6000351F2C533D4F4C816091C1028091C002BF
:101E700096959017110651F04CF0442349F040918B
:101E8000C2020E94890A0F5F1F4FCECF4423B9F3CD
:101E900040E0F7CF4F925F926F927F928F929F9226
:101EA000AF92BF92CF92DF92EF92FF920F931F9368
:101EB000CF93DF93FC016280448081E08483EFED67
:101EC000F1E07490EEE5F2E0E491812C75E0972E5C
:101ED000F2E0CF2EDD24D394AA24AA94B12C552469
:101EE0005A94E7190E2F10E080910B01881690F09C
:101EF000DF91CF911F910F91FF90EF90DF90CF90E6
:101F0000BF90AF909F908F907F906F905F904F9019
:101F10000C949B0BE82CF12C82E0861568F09E9CBB
:101F2000F0019F9CF00D1124E052FE4F8091C00201
:101F300080838091C1028183411023C09E9CF00167
:101F40009F9CF00D1124E052FE4F138212822091CB
:101F50000901C701820F911D9C01220F331F280F19
:101F6000391F2C533D4F9E9CF0019F9CF00D112476
:101F7000E052FE4F4281618180810E94890A8394F0
:101F8000B3CF9E9CE0019F9CD00D1124C052DE4F28
:101F90008B818823E9F081508B83859DC0011124BA
:101FA0006C8170E00E94E42FFB01FF27E152FE4F9D
:101FB0008491E82FE719E59DC0011124B8010E9422
:101FC000E42F8091C202689FB00111247A83BFCFB1
:101FD0000E94D430AC019091C202969591589C9D7C
:101FE00090019D9D300D1124232F33274217530755
:101FF0000CF0ADCF82E0861588F40E94D430B50194
:102000000E94F82F88830E94D4302091C102269527
:10201000622F70E00E94F82F280F29839E9CF00108
:102020009F9CF00D1124E052FE4F12828091C2025B
:10203000893C58F088EC9E9CF0019F9CF00D112487
:10204000E052FE4F8483838382CF8431A0F784E102
:10205000F2CFCF93DF9300D000D0CDB7DEB7EFEB58
:10206000F2E080818E7F808380819181A281B38123
:1020700089839A83AB83BC83BC01CD010E94AB0AE8
:102080001092FC019FEFA0E7B2E09150A040B04059
:10209000E1F700C000000F900F900F900F90DF91BC
:1020A000CF910C949B0BEFEBF2E080818E7F8083CD
:1020B0001092FC012FEF80E792E021508040904089
:1020C000E1F700C000000C949B0B6091BF02669585
:1020D00070E04BE050E08CE091E00E94ED30892B05
:1020E00019F481E08093FC010E9407279093F50189
:1020F0008093F4010895CF93DF9300D000D0CDB743
:10210000DEB79091BF0290FF41C09170811134C041
:1021100092609093BF02662381F08091BF029091FC
:10212000C002A091C102B091C20289839A83AB839D
:10213000BC83BC01CD010E94AB0A6091BF026695D1
:1021400070E04BE050E08CE091E00E94ED30892B94
:10215000D1F01092FC0181E08093F7014091C2021E
:102160006091C1028091C0020F900F900F900F906C
:10217000DF91CF910C943F0D8B3210F09465C9CF55
:10218000880F982BC6CF0E946510E5CF0F900F9057
:102190000F900F90DF91CF910895682F8091BF022B
:1021A00086958F5F8B3208F081E00C947B1081E084
:1021B0000C94CD10682F9091BF0296958FEF890FE8
:1021C000913009F48AE20C947B1081E00C94DA10CF
:1021D00061E00C947B10EFEBF2E080818160808302
:1021E00086950C94E8108091BF0280FD0C94291014
:1021F0000C94EB1060E00C947B108091FA0181113B
:102200002EC00E941A25811104C00E94BE250E9482
:10221000DB0A0E94A70A6093BF027093C0028093FA
:10222000C1029093C2026E7F61F40E94DB0A0E9499
:10223000A70A6093BF027093C0028093C10290937B
:10224000C2020E94980A1092FC018091BF0280FF96
:1022500003C086950E94FA1081E08093FA010895E8
:10226000EFEBF2E080818160808386950C94FA1018
:102270000F931F93CF93DF938091FC01882309F480
:1022800096C08091FB01E091BF02E695E81BE093C8
:10229000F601823091F5F0E0E552FE4FE491CE2F49
:1022A000D0E000EF1BE08091F701882361F01092ED
:1022B000F7010E9407279093F5018093F401109293
:1022C000F9011092F8010E940727E091F401F091C2
:1022D000F5018E1B9F0B8F3F9F4708F068C0EC0FE6
:1022E000FD1FF093F501E093F40184EF91E0F80114
:1022F000DF91CF911F910F910994863049F4F0E05E
:10230000E852FE4FE491CE2FD0E004E01CE0CBCFAA
:10231000893051F4E695F0E0EB52FE4FE491CE2F78
:10232000D0E002E41DE0BFCF8F3051F4E695F0E03D
:10233000EE52FE4FE491CE2FD0E00FE71DE0B3CF79
:10234000853149F4F0E0E153FE4FE491CE2FD0E027
:1023500002EF1DE0A8CFC8E2D0E005E61EE088311C
:1023600009F4A1CF833239F4EDECF1E0C591D491B9
:1023700004E11CE098CFC4EFD1E00DE01FE084320F
:1023800009F491CFC0EDD7E006E81AE0853209F0F4
:102390008ACF8E2F63E00E94D82FE92FF0E0E6531A
:1023A000FE4FE491CE2FD0E00AE41FE07CCFDF9116
:1023B000CF911F910F910895FA0181110994FB01AA
:1023C000FDCFCF93DF93C82FD62F0E94FC0A8C1726
:1023D00040F00E94FC0A8D1720F4DF91CF910C94FD
:1023E000D7108C2FDF91CF910C94E8100F931F938F
:1023F000CF938C01FB01C281CC2309F465C00E94FC
:1024000062248272F801E25CFC45E431F10538F4A3
:10241000E659FE4C0C942E300E94F310C0E08C2F35
:10242000CF911F910F91089545EE50E167ED70E156
:102430000E94DC11F3CF47ED50E165EE70E1F8CF7B
:1024400040E05DE064EF7CE0F3CF44EF5CE060E00F
:102450007DE0EECF4EE15DE06FE07DE0E9CF4FE063
:102460005DE06EE17DE0E4CF4CE35DE06DE27DE0B8
:10247000DFCF4DE25DE06CE37DE0DACF4FE55BE07E
:1024800060E37BE0D5CF40E35BE06FE57BE0D0CF5E
:1024900081E00E94E810C2CF65E082E00E94E11175
:1024A000BDCF68E086E0FACF6EE089E0F7CF64E167
:1024B0008FE0F4CF67E185E1F1CF88E1EACF62E216
:1024C00089E1ECCF83E2E5CFC1E0A9CF9C01AB016C
:1024D000269A65B16F7B75B17064EFB7F894CA0145
:1024E000880F991F840F951F820F931F82179307E0
:1024F00041F4EFBF8FE594E00197F1F700C00000D1
:102500000895D9014D919D0158E075B9000000C0B2
:1025100047FF65B9440F000000C000C000C065B9A6
:1025200000C05A9591F7E2CF82E290E00E9401311B
:10253000823689F483E290E00E940131853E59F4AD
:1025400084E290E00E94013191E0803D09F090E04A
:10255000892F8170089580E0FCCFCF93C82F6FEF53
:10256000811162E682E290E00E9415316FEFC111A5
:1025700065EE83E290E00E9415316FEFC11160EDCE
:1025800084E290E0CF910C94153180E00E94AD126E
:102590000C9414250895CF93DF9300D000D0CDB7CD
:1025A000DEB785E290E00E940131282F30E050E054
:1025B00040E0CA01B9010F900F900F900F90DF918A
:1025C000CF91089585E290E00C9415310E94CA12D3
:1025D0000E94941281110CC060E070E0CB010E9457
:1025E000E2120E94F0150E94FE1681E00C94AD12DA
:1025F0000895CF939C01FB01C281CC2301F182514C
:102600009F45409720F58EEE820F0E940E17C0E086
:102610008C2FCF91089581E00E94602243E062E018
:1026200081E00E940F05F3CF81E00E94912243E0F8
:1026300062E081E00E940F05EBCF82E0F6CF8031AF
:102640009F4591F321313F45C1F3C1E0E1CF2031F6
:10265000EFE53E0701F382E021313F45E9F2D8CFB3
:102660002FEFFC0120830895CF93DF93EC01888145
:102670008238C1F038F4803871F0813881F0DF9110
:10268000CF9108958338D9F70E948F0B89830E94D8
:10269000920B8A83F4CF0E94950B8983F0CF0E941E
:1026A000FC0AFBCF0E94620BF8CFCF93DF93EC01C3
:1026B0008881823851F138F4803869F08138B9F076
:1026C000DF91CF9108958338D9F70E94950B482F59
:1026D0006A81898108C0D9810E94920BC82F0E940B
:1026E0008F0B4D2F6C2FDF91CF910C943F0D898173
:1026F0000E94FA108981811104C0DF91CF910C945E
:102700005310DF91CF910C9430118981DF91CF91DB
:102710000C948C0BEF92FF920F931F93CF93DF9348
:10272000CDB7DEB72E970FB6F894DEBF0FBECDBF84
:102730008D839E83162FAD81BE81EC918091FF0128
:1027400090910002892B79F0EE3F49F511968C911A
:10275000833018F08550833010F5612F8D819E8174
:102760000E94D6141CC08D819E810196E43150F4E4
:10277000EE2351F0E150E33138F4F0E0E258FE4C42
:102780000C942E30EE3F49F3612F8D819E810E9483
:10279000301305C0ED81FE81118289E08283612FB3
:1027A0008D819E812E960FB6F894DEBF0FBECDBFF1
:1027B000DF91CF911F910F91FF90EF900C944928DA
:1027C000AD81BE8111968C91823099F0833011F1E8
:1027D0008130D1F60E9413270E9434306F837887AE
:1027E00089879A87ED81FE816283738384839583D1
:1027F000D6CF0E94CB120E9434306B877C878D87A6
:102800009E87AD81BE8112966D937D938D939C932F
:102810001597C5CF8091170190911801892B09F464
:10282000BECFED80FE80B2E0EB0EF11C00E0802F09
:102830000E948D08F70181937F010F5F0530B9F782
:10284000AECFAD81BE8111968C911197823009F087
:102850009BCF12968D919D910D90BC91A02D898357
:102860009A83AB83BC83BC01CD010E9434300E94AB
:10287000E21295CFED81FE814381628181810E94C8
:10288000A615982789279827AD81BE8115969C9318
:102890008E93149784CFED81FE8124813581322778
:1028A000232732274381628181810E94C81577CF17
:1028B0000E94F01574CF0E94551371CF0E943413FB
:1028C0006ECF0E94BF0A6BCF0E94A716AD81BE815A
:1028D00011968C9364CF0E94A91698278927982770
:1028E000ED81FE81928381835ACFAD81BE811396A3
:1028F0008C911397682F70E08D3108F050CF1196AE
:102900008D919C911297AD014C5F5F4F982789275D
:1029100098270E94AC1643CF80911701909118011F
:10292000892B09F43CCFED81FE818381682F70E013
:102930008D3108F034CF81819281AF014C5F5F4FC0
:102940009827892798270E94D31629CF0E94FE1620
:1029500026CF0E949315BACFED81FE818381682F27
:1029600070E08D3108F01BCF81819281AF014C5F07
:102970005F4F9827892798270E943B1610CFAD817B
:10298000BE8113968C911397682F70E08D3108F0FB
:1029900006CF11968D919C911297AD014C5F5F4FC0
:1029A0009827892798270E946016F9CE0F931F93C6
:1029B000CF93DF93CDB7DEB728970FB6F894DEBF7D
:1029C0000FBECDBF8C01603261F4FC018181853086
:1029D00009F482C088F48130B9F18230D9F18823BA
:1029E000D1F028960FB6F894DEBF0FBECDBFDF91B1
:1029F000CF911F910F910895863009F47CC08730E4
:102A000081F78091170180838091FF0181838091FC
:102A1000FD018283E6CF88E0ECE8F1E0DE0111966B
:102A200001900D928A95E1F783E0F801808311828D
:102A30001282138288E0FE013196D801149601902B
:102A40000D928A95E1F7CDCF8CEE808311821282B0
:102A50001382C7CF8381682F70E0762F662782812B
:102A6000860F972F911D092E000CAA0BBB0B25E09A
:102A7000880F991FAA1FBB1F2A95D1F7AC01BD0172
:102A8000405E5F4F6F4F7F4F803EFFEF9F07AF0766
:102A9000BF0708F0A6CF8C3E9105A105B10508F04F
:102AA000A0CF4D3E51056105710520F04CEE50E080
:102AB00060E070E0481B590BBC016C517C4FC801B1
:102AC00028960FB6F894DEBF0FBECDBFDF91CF9131
:102AD0001F910F910C94E43040E250E06FEF70E0F2
:102AE000C8010E94FA3080911701F801808380911B
:102AF000FF01818376CF81E090E090930002809384
:102B0000FF0182E390E09093FE018093FD012896FF
:102B10000FB6F894DEBF0FBECDBFDF91CF911F91EE
:102B20000F910C94072784E0089598E0699FB00105
:102B3000112450E0440F551F640F751F98E2899FC0
:102B4000600D711D1124CB01869608950F931F937C
:102B5000CF93DF938430C8F46530B8F44430A8F4E0
:102B60000E9495158C010E940131C82FD0E0DC2F06
:102B7000CC27C80101960E9401319E01282BC90172
:102B8000DF91CF911F910F91089590E080E0F8CFF1
:102B90000F931F93CF93DF93E9018430E0F4653006
:102BA000D0F44430C0F421153C4531F42091170194
:102BB00030911801232B79F00E9495158C016D2F0F
:102BC0000E9415316C2FC8010196DF91CF911F91A2
:102BD0000F910C941531DF91CF911F910F910895B2
:102BE0008F929F92AF92BF92CF92DF92FF920F93FC
:102BF0001F93CF93DF93809017019090180181E08D
:102C000090E09093180180931701B12CA12C00E063
:102C1000650110E013C0FE01259134914F2D612F05
:102C2000802F0E94C8152296F39484E0F812F3CF07
:102C300084E0C80ED11C1F5F153039F0E601CC0FBF
:102C4000DD1FC455DF4FF12CE6CF0F5F84E1A80EE6
:102C5000B11C0430E9F69092180180921701DF91BF
:102C6000CF911F910F91FF90DF90CF90BF90AF90C9
:102C70009F908F900895EF92FF920F931F93CF93A1
:102C8000DF93EC018A017C01E60EF71ECE018696E9
:102C9000CE15DF0539F4DF91CF911F910F91FF9091
:102CA000EF900895C03AD10540F40E940131F80137
:102CB00080830F5F1F4F2196E9CFF8011082F9CF73
:102CC000CF92DF92EF92FF920F931F93CF93DF93F8
:102CD000EC017B016A01803A910578F420EA30E04A
:102CE000281B390B2617370740F0E80EF91E8C0118
:102CF000C80186960E151F0549F4DF91CF911F91EB
:102D00000F91FF90EF90DF90CF900895003A11055A
:102D100040F4F801EC1BFD0BEC0DFD1D60810E94E1
:102D200015310F5F1F4FE4CF462F672F2091FF0112
:102D300030910002232B41F4843030F4753020F4BC
:102D4000443010F40C94A61590E080E0089580E1E2
:102D500008958AE393E00895EF92FF920F931F93F3
:102D6000CF93DF93EC018A017C01E60EF71ECE01C2
:102D70008A539F4FCE15DF0539F4DF91CF911F9114
:102D80000F91FF90EF900895CA3323E0D20740F4EB
:102D90000E940131F80180830F5F1F4F2196E7CF1A
:102DA000F8011082F9CFCF92DF92EF92FF920F934A
:102DB0001F93CF93DF938C016A017C01E60EF71E0F
:102DC000EC01CE018A539F4FCE15DF0549F4DF9108
:102DD000CF911F910F91FF90EF90DF90CF900895CA
:102DE000CA3323E0D20740F4FE01E01BF10BEC0DE7
:102DF000FD1D60810E9415312196E3CFCF93DF93B3
:102E0000C6ECD0E060E0CE010E9415312196C115DC
:102E100084E0D807B9F7DF91CF910895BF92CF92A0
:102E2000DF92EF92FF920F931F93CF93DF9300D027
:102E300000D0CDB7DEB7F82E2FE0281740F08FEF87
:102E400093E00E94013106EC10E08823D1F00F904E
:102E50000F900F900F90DF91CF911F910F91FF90E6
:102E6000EF90DF90CF90BF900895011534E01307E5
:102E700071F3C8010E940131811101C0FA940F5F02
:102E80001F4FF110F2CF8091260190912701A09160
:102E90002801B091290189839A83AB83BC83BB2429
:102EA000BA9478018FEFE81AF80AC8010E9401313C
:102EB00089831A82882359F2813009F049C0680158
:102EC000E2E0CE0ED11CC7010E940131E82E8A83B8
:102ED000882309F4BCCFC6010E940131F82E8FEF80
:102EE0008E0D833068F46801F3E0CF0ED11CFB82B5
:102EF000FF2021F0CE0101960E946F068601D1CFFE
:102F000024E0E212FBCF680134E0C30ED11CC801FB
:102F100003960E940131282FFF2009F498CF8823BF
:102F200009F495CF2150330BB29EA001B39E500DF2
:102F30001124EF2DE150FF0BCF01840F951F019756
:102F4000E8F2EFE9FFE03197F1F700C00000F7CFBA
:102F5000CE0101960E946F066701D0CF0F931F9399
:102F6000CF93DF93C42FD22FFC0182818823C9F035
:102F7000409303020E94072790930202809301026C
:102F800080E28C0F883008F050C0C77081E001C02B
:102F9000880FCA95EAF7DF91CF911F910F910C949A
:102FA0005D1B10910302141335C0809101029091B2
:102FB00002020E943327883C910560F5C0E2CD0FE4
:102FC0001D17B9F080E2810F883040F4177081E05E
:102FD00001C0880F1A95EAF70E94641BC83048F4B4
:102FE00081E09D2F977001C0880F9A95EAF70E94A3
:102FF0005D1B802F0E94551BC830B8F4D77081E04C
:1030000001C0880FDA95EAF7DF91CF911F910F91F8
:103010000C94641B80E28C0F883038F4C77081E018
:1030200001C0880FCA95EAF7EFCFDF91CF911F91CA
:103030000F9108950F939C01CB01233F4CE534077A
:10304000A1F190F4283DFCE53F0749F1293D4CE50D
:103050003407E9F1273D3C45C1F0FC01828188231A
:10306000E1F11092030219C0253FFCE53F0719F179
:10307000263F4CE5340729F1243F3C4571F707E230
:1030800025EE44EE64EF7CE505C006E221EE41EE5C
:1030900067ED7CE50E94AE1780E00F91089507E28E
:1030A00025EE45EE68ED7CE5F5CF06E221EE40EE3B
:1030B00063EF7CE5EFCF06E221EE42EE65EF7CE5C3
:1030C000E9CF07E225EE46EE66EF7CE5E3CF08E2C6
:1030D00021E045EE69ED7CE5DDCF81E0DECFCF93E9
:1030E000DF93EC01FB018281882309F4C9C0C6315A
:1030F000FCE5DF07E0F4C2309CE5D907F0F00E9460
:103100002D259093D5028093D402C631ECE5DE07DD
:1031100020F5C230FCE5DF0798F48091D40290914D
:10312000D5020E943B250E941D1E80E006C09E0124
:103130002A5F3C452930310510F3DF91CF91089586
:10314000FE01E350FC458091D4028160E331F1053A
:1031500088F4EF56FE4C0C942E30CA5FDC45C93023
:10316000D105D8F6CC55DE4CFE010C942E30809162
:10317000D40282608093D402D0CF8091D402846044
:10318000F9CF8091D4028860F5CF8091D50281601B
:103190008093D502C2CF8091D5028260F9CF809111
:1031A000D4028061E7CF8091D4028062E3CF809126
:1031B000D4028064DFCF0E941D1E8091D4028068FB
:1031C000D9CF8091D4028C60D5CF8091D502836015
:1031D000DFCF8091D4028E7FCDCF8091D4028D7FBE
:1031E000C9CF8091D4028B7FC5CF8091D402877FD5
:1031F000C1CF8091D5028E7FCBCF8091D5028D7FBC
:10320000C7CF8091D4028F7EB5CF8091D4028F7DBD
:10321000B1CF8091D4028F7BADCF0E941D1E8091D3
:10322000D4028F77A7CF8091D402837FA3CF8091E0
:10323000D5028C7FADCF8091D40282FB992790F983
:1032400021E0922790FB82F990FB83F993CF809144
:10325000D502982F909591708E7F892B90FB81F9E4
:1032600097CF0E941D1E9091D402892F97FB87F95A
:10327000805880CF81E00E94C0254FCF80E0FBCFF7
:1032800081E05BCFCF93DF93EB0186319C4511F555
:103290000E9462249A81992399F08A7A91E009F434
:1032A00090E090930402811109C089E20E943D24BC
:1032B0000E94B12480E0DF91CF91089585E3F6CF9D
:1032C00080910402811104C089E20E944424F0CF5D
:1032D00085E3FBCF81E0EFCF90930A028093090250
:1032E0000895E0910902F0910A02309721F00190CF
:1032F000F081E02D099480E00895DC01E09109025D
:10330000F0910A02309799F080912501882351F0BD
:103310008091D40287FF06C08C9111968C931197EF
:1033200085E08C930280F381E02DCD01099408950E
:1033300020910702309108022817390771F0909305
:10334000080280930702E0910902F0910A02309787
:1033500021F00680F781E02D09940895209105025F
:10336000309106022817390771F090930602809376
:103370000502E0910902F0910A02309721F00084E1
:10338000F185E02D099408950E941327609315029A
:1033900070931602809317029093180260931102A3
:1033A000709312028093130290931402089585B7CC
:1033B000806885BF85B7806885BF089508950895A2
:1033C0000C94DE1908950C94E2190E94D71987EA2B
:1033D00099E20E9477270E94DF190C94E01981E09E
:1033E00008950C94EF19089508950E94FE260E94F6
:1033F000FA080E94E6120E9492270E94FD100C9487
:10340000E319AF92BF92CF92DF92EF92FF920F93A8
:103410001F93CF93DF9300D000D00F92CDB7DEB7CC
:103420000E94F3190E94F4190E942F0981110E9431
:10343000C4198CE0A82E82E0B82E10E000E0C02E67
:10344000802F0E948D08F82EF501E1905F01E816AB
:1034500009F44CC080918E0281FD0E9493088E2D4C
:103460008F25D12CEE24E394982F9E21D1F10E9438
:10347000F119882399F0D982CA82FE2081E009F4EB
:1034800080E08B830E9407278160782F9D838C8347
:1034900049815A816B818D810E949D1AF801E45FF8
:1034A000FD4F8081E826E0820E9438110E94711948
:1034B00090910B02891789F10E94711980930B0278
:1034C0000F900F900F900F900F90DF91CF911F9161
:1034D0000F91FF90EF90DF90CF90BF90AF900C9442
:1034E0008D06D394EE0CF4E0DF12BECF0F5F1F4FBA
:1034F0000530110509F0A3CF8FEF89838A831B82E2
:103500000E9407278160782F9D838C8349815A818F
:103510006B818D810E949D1AC7CF0F900F900F90E5
:103520000F900F90DF91CF911F910F91FF90EF902F
:10353000DF90CF90BF90AF900895DF92EF92FF920F
:103540000F931F93CF93DF93CDB7DEB72B970FB6B3
:10355000F894DEBF0FBECDBF7A878B87F42E052F80
:10356000162FE72ED82E61110E9484247E2DEC8226
:10357000DD824F2D502F612F8D2D90E02B960FB6B1
:10358000F894DEBF0FBECDBFDF91CF911F910F9199
:10359000FF90EF90DF900C948020FC01808191815E
:1035A0000C940724CF93C82F8823F1F18CEF8C0F54
:1035B000813AA0F46C2F8091190190911A010E9418
:1035C000D925882329F08C2F0E9444240E94B124FD
:1035D0008C2F0E943D24CF910C94B12480E28C0F5B
:1035E000883048F4C77081E001C0880FCA95EAF7B7
:1035F0000E946524F0CF8BE58C0F833038F42C2F9C
:103600002452330BC901CF910C949819C85AC73171
:1036100058F4EC2FF0E0EE0FFF1FEB56FE4F8081C9
:103620009181CF910C94AE19CF910895882329F1FF
:103630009CEF980F913A20F40E9444240C94B124FA
:1036400090E2980F983050F4877091E001C0990F84
:103650008A95EAF7892F0E946B24F0CF9BE5980F9B
:10366000933020F490E080E00C949819885A8731C8
:1036700020F490E080E00C94AE1908951F93CF934E
:10368000DF93182FEB010E94D21A209731F4812F7B
:10369000DF91CF911F910C94161B8FE99FE001974A
:1036A000F1F700C000002197F0CF64E170E08933AA
:1036B00011F460E570E00C943E1B882321F00E9419
:1036C00065240C94B1240895882321F00E946B2472
:1036D0000C94B1240895AF92BF92CF92DF92EF92F3
:1036E000FF920F931F93CF93DF9300D000D00F92E0
:1036F000CDB7DEB76C016D837983FC011281058142
:1037000002950F700E945B24E82E8823A1F0E12E21
:10371000112389F08981807F803429F08D81805E3A
:10372000E12C883040F082E00E94FC240E945B245F
:1037300091E0E82EE926A980A2949FE0A922B12C6D
:10374000F501E355FE4C0C942E3009810F70F98180
:10375000F07F11F00295007F1123B1F0002361F09A
:103760008D81805E883018F02D81211109C0802F55
:103770000E9465240E94B1248D810E94D21A15C036
:10378000802F0E947624F6CF8D810E94161B002385
:1037900061F08D81805E883018F04D81411133C019
:1037A000802F0E946B240E94B12488E0A81AB108DF
:1037B00094E0A916B10420F40E9471190E948D06AC
:1037C000EE2009F4D9C10E94572480FDD5C1F6012D
:1037D00012820E9451240E946022C6010E94E31DB1
:1037E0000E9451240F900F900F900F900F90DF9137
:1037F000CF911F910F91FF90EF90DF90CF90BF90EE
:10380000AF900C949122802F0E947C24CCCF5981C0
:103810005F70F52E6981607F603219F0F29480EF5D
:10382000F8227D81772369F0713049F1112391F1FC
:10383000002351F1F601858180FF9ECF8F70858333
:1038400023C0112381F0011106C00E9498248F2902
:103850000E945D1BAACF0130C1F70E9498248F29D6
:103860000E949E24A2CF011106C00E94A7248F2D82
:103870000E94641B9ACF013009F497CFF6CF112331
:1038800029F0063008F091CF8F2DE2CF053008F0F7
:103890008CCFEDCF002359F3FD81F93369F42FEF7D
:1038A00047EE53E0215040405040E1F700C0000097
:1038B0008D810E94161B79CF6FEF79EF80E0615008
:1038C00070408040E1F7F2CF8981869586958370BC
:1038D00069F0813009F069CF8D8199819370111160
:1038E00002C090E080E00E94AE195FCF8D81998187
:1038F0009370111102C090E080E00E94981955CF9A
:103900008981837009F059C011114FCF4D814295C3
:1039100046954770440F440F8D818F7090E0B0E062
:10392000A0E0042E04C0880F991FAA1FBB1F0A9491
:10393000D2F7ED8100E010E09801E4FF0FC00FE046
:1039400010E020E030E004C0000F111F221F331FE1
:103950004A95D2F70095109520953095F981F69506
:10396000F695F370FD83B901A801482B592B6A2BFA
:103970007B2B49835A836B837C83F23081F0F33055
:10398000A9F0F13029F0CB01BA010E94D6210DCF68
:1039900069817A818B819C810E94AE2106CF6981E9
:1039A0007A818B819C810E94FE21FFCE69817A8180
:1039B0008B819C810E94AC21F8CE8695112311F059
:1039C00089818170882309F4F0CE4D814295469516
:1039D0004770440F440F8D818F7090E0B0E0A0E0FD
:1039E000042E04C0880F991FAA1FBB1F0A94D2F788
:1039F0005D8100E010E0980154FF0FC00FE010E07F
:103A000020E030E004C0000F111F221F331F4A9531
:103A1000D2F7009510952095309569816695669549
:103A200063706D83B901A801482B592B6A2B7B2B3E
:103A300049835A836B837C835D8169817A818B8121
:103A40009C81523051F0533059F0513019F00E949E
:103A50001F23ABCE0E94F722A8CE0E944723A5CEFB
:103A60000E942A22A2CE69816F706983112329F0F6
:103A7000862F0E9460228D81EBCE8D810E94641B77
:103A800089810E94912291CE7D81723FA1F160F4E3
:103A9000703FE1F0713F41F1112309F445C001117C
:103AA0006BCE89818F7124C08D81833F49F1843F22
:103AB00099F7112379F199819F719983892F0E9438
:103AC000602263E089810E94E7246FCE112341F0D8
:103AD000053008F06ACE89818F710E94C62265CEBA
:103AE000063008F062CEF7CF89818F71112349F239
:103AF0000E9460225ACE89818F711123C9F3C1CFF0
:103B0000112329F089818F710E943B224ECE0E94A1
:103B100036224BCE81E00E94FC24023008F445CED0
:103B200082E00E94FC2441CE002399F0ED81E9332C
:103B300041F4FFEF27EE43E0F15020404040E1F731
:103B4000B5CE5FEF69EF70E0515060407040E1F733
:103B5000ADCE89818F7195CF49814F706D81C6013E
:103B60000E9495060E94202120CE49814F706D81D0
:103B7000C6010E94980619CE0F900F900F900F90DB
:103B80000F90DF91CF911F910F91FF90EF90DF90F9
:103B9000CF90BF90AF9008950F931F93CF93DF9373
:103BA000EC01688179818A810E9413248C010E9432
:103BB0006F230E94AB21B801CE01DF91CF911F91FD
:103BC0000F910C946B1BCF93DF93EC018B819C8145
:103BD000892B29F08881998189238F3F59F4DF91BE
:103BE000CF910895CE010E94CC1DCE01DF91CF91DF
:103BF0000C949404CE010E9494058111F3CF0E948D
:103C00005B24882361F38A81882349F382E0DF9172
:103C1000CF910C94FC2490E080E00E94981990E0F1
:103C200080E00E94AE190E9484240E9495240C9486
:103C3000B1240E944B240C940B1E0E9473240C94FC
:103C4000191E282F892F82958F70903C80F48A301E
:103C5000B0F4843020F4823090F480E0089586300F
:103C6000E1F781E0283E88F0213FB9F70EC08C30A3
:103C700011F08F3091F793FB882780F9089581E048
:103C8000203F39F018F4283E40F70895243F29F7E3
:103C9000FCCF08950E9407240C94211ECF93DF933C
:103CA00000D000D00F92CDB7DEB70F900F900F90DD
:103CB0000F900F90DF91CF910895CF93DF9300D0B5
:103CC00000D000D0CDB7DEB726960FB6F894DEBF91
:103CD0000FBECDBFDF91CF9108951F93CF93DF9398
:103CE000E0911A0216E080911B028E1304C0DF914E
:103CF000CF911F910895CE2FD0E01E9FF001112487
:103D0000E45EFD4F408151816281738184819581A0
:103D10000E945D1EFE013196E770E5CF40914C0296
:103D200050914D0260914E0270914F02809150026D
:103D3000909151020C945D1E1F93CF93DF9380915D
:103D40005102807FA9F480914E02882389F08091EE
:103D50001A02C0911B0260914C0270914D02A09119
:103D60004F02B0915002D62FD72316E0C81304C0DB
:103D7000DF91CF911F91089590E0109711F0DF3FF0
:103D800019F401968770F2CF189F9001199F300D9A
:103D90001124F901E45EFD4F41814713F2CF4081C8
:103DA0004613EFCF42814111ECCF438154814A1B2E
:103DB0005B0B483C510528F7809151028F70806160
:103DC00080935102F901EF5DFD4F80818F7080611A
:103DD00080838CE492E00E94E31DDF91CF911F91DC
:103DE0000C946D1EAF92BF92CF92DF92EF92FF9232
:103DF0000F931F93CF93DF93CDB7DEB72B970FB6FB
:103E0000F894DEBF0FBECDBF8C0185E0F801DE0166
:103E1000179601900D928A95E1F7F8014081518142
:103E2000E2808CE4C82E82E0D82E60914F0270911F
:103E300050026115710509F444C190914C02209122
:103E40004D02822F89238F3F09F43BC1A380B480A8
:103E5000F0904E02F501E61BF70BFF2009F4E0C0DD
:103E600080915102382F307FE83CF10508F0B2C054
:103E7000311179C0FE2C251323C0941321C0E11009
:103E80001FC08F708061809351020E948E1EC601F8
:103E90000E94E31D80915102F80185838F2D2B969E
:103EA0000FB6F894DEBF0FBECDBFDF91CF911F914B
:103EB0000F91FF90EF90DF90CF90BF90AF9008955B
:103EC000AB2829F0842F85238F3F09F016C180E0AD
:103ED000F82FF170DF2EE0911A0220911B0236E0DC
:103EE00080FD1CC0EE20D1F2809151028160809350
:103EF0005102F12CD3CF8E2F90E03E9FF001112480
:103F0000E45EFD4F6181651306C06081641303C0E8
:103F10006281E612E7CFFC013196E770E213EBCF46
:103F20004F8358878F8198850E940724292F2295D7
:103F30002F70903260F0225F2F70223078F49F70E3
:103F400051F0F8019581907F31F4D12C0AC09F7017
:103F500011F08823D1F3805E8830B8F3C8010E9445
:103F6000E31DFD2C9BCF251306C0941304C0F8015C
:103F7000EE2009F470C04F8358878F8198850E9486
:103F80004A1E882319F1EE2009F1809151028032F6
:103F900070F020914C0230914D023A8329831B82AC
:103FA000BD82AC828E83CE0101960E94E31D86E025
:103FB000F801ACE4B2E001900D928A95E1F70E941D
:103FC0009C1E0E948E1EFF24F39468CFC8010E949D
:103FD000E31DF9CF311113C07A2DBB86AA866E2D51
:103FE0008B850E944E1E8CE492E00E94E31D86E0C9
:103FF000F60111928A95E9F70E948E1E7ACF251359
:10400000BACF9413B8CFE110B6CFF8018583C801B9
:104010000E94E31D86E0F60111928A95E9F73ECFF2
:10402000E83CF10508F040C0FE2CEE2079F22513A3
:104030002AC0941328C08091510280FD1BC0982F84
:10404000907FC1F0F8018583903F31F0982F907FE9
:10405000905F8F70892B8583C8010E94E31D86E0E5
:10406000F801ACE4B2E001900D928A95E1F70E946C
:104070008E1E14CF86E0F801ACE4B2E001900D9200
:104080008A95E1F70BCF4F8358878F8198850E94DF
:104090004A1E81118CCF8091510281608093510220
:1040A000C8010E94E31DFACE7A2DBB86AA866E2D2A
:1040B0008B850E944E1E86E0F60111928A95E9F7E3
:1040C000D6CFEE2009F482CF4F8358878F81988511
:1040D0000E944A1EF82E882309F478CF86E0F80162
:1040E000ACE4B2E001900D928A95E1F78CE492E0A5
:1040F0000E94CD1A0E949C1EBACF81E08E25E8CE88
:104100001F93CF93DF93CDB7DEB72C970FB6F894FC
:10411000DEBF0FBECDBF4F83588769877A878B87F5
:104120009C87CE0107960E94F21E882369F08A853B
:104130009B85892B39F04F815885842F85238F3FAC
:1041400009F077C016E065C086E0FE013796DE0113
:10415000119601900D928A95E1F76A857B8561152C
:10416000710581F35F814885842F85238F3F51F34B
:1041700020911B0230E0C901019687709927E091D8
:104180001A02E817190671F40E941D1E10921B02F4
:1041900010921A0286E0ECE4F2E0DF011D928A95AB
:1041A000E9F7D0CF59834A837D836C8396E0929F51
:1041B000D001939FB00D1124A45EBD4FFE01319636
:1041C00001900D929A95E1F780931B020E946D1E5B
:1041D000B9CF819FC0011124845E9D4F0E94F21EC1
:1041E0008823E9F0E0911A021E9FF0011124E45E99
:1041F000FD4F4081518162817381848195810E944C
:104200005D1E80911A0290E0019687709927809335
:104210001A0280911A0290911B028913DACF2C9610
:104220000FB6F894DEBF0FBECDBFDF91CF911F91C7
:10423000089569857A858B859C850E945D1E82CF55
:10424000EF92FF920F931F93CF93DF938C01892BF3
:1042500089F0F12CEE24E394E8012196F801849191
:10426000843709F457C0A0F4823009F43EC048F402
:104270008130D1F0DF91CF911F910F91FF90EF909E
:1042800008959CEF980F9037A8F70E94D21A0AC0A1
:10429000853709F44CC09CE7980F903758F78F7713
:1042A0000E94161B8E0116C00E5F1F4FFE018491E7
:1042B00090E2980F983060F48770FE2D01C0FF0FD8
:1042C0008A95EAF78F2F0E9487240E94B12402C0AA
:1042D0000E94D21A8F2D815008F4BECFEFE9FFE083
:1042E0003197F1F700C00000F6CF0E5F1F4FFE01BF
:1042F000849190E2980F983050F48770FE2D01C0A1
:10430000FF0F8A95EAF78F2F0E948D24DECF0E943F
:10431000161BE0CF0E5F1F4FFE01C491C150D0F2BB
:104320008FE99FE00197F1F700C00000F7CF0E5F23
:104330001F4FFE01F490CECF08950C949C210E9453
:104340009D2160936502709366028093670290934B
:1043500068020C940B1E08950C949F21CF93DF9359
:1043600000D000D0CDB7DEB769837A838B839C837E
:104370008091650290916602A0916702B0916802F7
:1043800029813A814B815C81282B392B4A2B5B2B6D
:1043900029833A834B835C83CA01B9010F900F9044
:1043A0000F900F90DF91CF910C949F21CF93DF93CB
:1043B00000D000D0CDB7DEB769837A838B839C832E
:1043C0008091650290916602A0916702B0916802A7
:1043D00029813A814B815C81282339234A235B233D
:1043E00029833A834B835C83CA01B9010F900F90F4
:1043F0000F900F90DF91CF910C949F21CF93DF937B
:1044000000D000D0CDB7DEB769837A838B839C83DD
:104410008091650290916602A0916702B091680256
:1044200029813A814B815C81282739274A275B27DC
:1044300029833A834B835C83CA01B9010F900F90A3
:104440000F900F90DF91CF910C949F210C949C21A1
:104450000C9426220E9428226093610270936202CB
:1044600080936302909364020C940B1E60E070E0F2
:10447000CB010C942A220F931F93CF93DF9300D08C
:1044800000D0CDB7DEB741E050E060E070E08A01D7
:104490009B0104C0000F111F221F331F8A95D2F702
:1044A00009831A832B833C83C901B8010F900F90B5
:1044B0000F900F90DF91CF911F910F910C942A22B2
:1044C0000F931F93CF93DF9300D000D0CDB7DEB70B
:1044D00041E050E060E070E004C0440F551F661FEB
:1044E000771F8A95D2F78091610290916202A09124
:1044F0006302B09164028A019B01082B192B2A2BBD
:104500003B2B09831A832B833C83C901B8010F908D
:104510000F900F900F90DF91CF911F910F910C94FE
:104520002A220F931F93CF93DF9300D000D0CDB7F3
:10453000DEB741E050E060E070E004C0440F551F7A
:10454000661F771F8A95D2F74095509560957095B4
:104550008091610290916202A0916302B091640225
:104560008A019B01082319232A233B2309831A83E9
:104570002B833C83C901B8010F900F900F900F90CF
:10458000DF91CF911F910F910C942A220F931F93CB
:10459000CF93DF9300D000D0CDB7DEB741E050E03D
:1045A00060E070E004C0440F551F661F771F8A95B6
:1045B000D2F78091610290916202A0916302B09162
:1045C00064028A019B01082719272A273B270983B0
:1045D0001A832B833C83C901B8010F900F900F9071
:1045E0000F90DF91CF911F910F910C942A22CF93BE
:1045F000DF9300D000D0CDB7DEB769837A838B8399
:104600009C838091610290916202A0916302B091BB
:10461000640229813A814B815C81282B392B4A2BFA
:104620005B2B29833A834B835C83CA01B9010F90CA
:104630000F900F900F90DF91CF910C942A22CF937F
:10464000DF9300D000D0CDB7DEB769837A838B8348
:104650009C838091610290916202A0916302B0916B
:10466000640229813A814B815C81282339234A23C2
:104670005B2329833A834B835C83CA01B9010F9082
:104680000F900F900F90DF91CF910C942A22CF932F
:10469000DF9300D000D0CDB7DEB769837A838B83F8
:1046A0009C838091610290916202A0916302B0911B
:1046B000640229813A814B815C81282739274A2766
:1046C0005B2729833A834B835C83CA01B9010F902E
:1046D0000F900F900F90DF91CF910C942A220895A4
:1046E000E92FEE0FEE0FE80F8E2F877041E001C02B
:1046F000440F8A95EAF7E695E695E69585E0E89F0A
:10470000F0011124EE5AFD4F30E020E070E05191AD
:10471000DF011197CB01022E02C0969587950A946E
:10472000E2F7817081958527842385278C932F5FFD
:104730003F4F2530310559F70895E92FEE0FEE0F61
:10474000E80F9E2F9770E695E695E69585E0E89F41
:10475000F0011124EE5AFD4F50E040E080E021913D
:1047600030E0092E02C0369527950A94E2F72170B1
:104770003327042E01C0220F0A94EAF7822B4F5FE1
:104780005F4F4530510559F70895BF92CF92DF92A0
:10479000EF92FF920F931F93CF93DF938C01C09002
:1047A0006102D0906202E0906302F0906402809116
:1047B000650290916602A0916702B0916802C82AD2
:1047C000D92AEA2AFB2ACFE1D0E0BC2ED701C601C4
:1047D0000C2E04C0B695A795979587950A94D2F7A5
:1047E00080FD0EC0219788F7B12C8B2DDF91CF91E2
:1047F0001F910F91FF90EF90DF90CF90BF900895A1
:10480000B8018C2F0E94A106019761F3EECFCF93E0
:10481000DF93D82FC92F0E94C5236D2F7C2FDF91E6
:10482000CF910C94A1061F93CF93DF93162FD72F10
:1048300090911902992339F0862F972FDF91CF910C
:104840001F910C940724882391F0862F972F0E94A4
:10485000C523C82F682F812F9D2F0E947023612FA1
:104860007D2F8C2FDF91CF911F910C94A106862F65
:10487000972F0E949D23C82FF2CF682F8091190196
:1048800090911A010C945D26682F809119019091E6
:104890001A010C9468268091190190911A010C94C8
:1048A00073268091690285958595859508958091F7
:1048B00069028770089590916902977081E009F408
:1048C00080E0089580918D02089590918D02982B3B
:1048D00090938D020895982F909580918D02892351
:1048E00080938D02089510928D02089590918C020C
:1048F000982B90938C020895982F909580918C021C
:10490000892380938C02089510928C0208959091CF
:104910008B02982B90938B020895982F90958091FD
:104920008B02892380938B02089510928B02089545
:1049300080916A02089508950C949B2490916A02D4
:10494000981721F080936A020C949C24089580911A
:104950006A02882329F010926A0280E00C949C2459
:104960000895E0911901F0911A0180918D028083E0
:10497000E0911901F0911A01808190918C02892BAC
:104980008083E0911901F0911A01808190918B024E
:10499000892B808390916A02992381F0E09119011B
:1049A000F0911A018081892B808380911901909167
:1049B0001A010E94C52581110E94A7248091190126
:1049C00090911A010C947D1908950C94E42498E0B8
:1049D000899F90011124622B609369020E946022DA
:1049E000809169028595859585950C94E5241092B2
:1049F000690280E00C94E5249091690280958923F6
:104A000080936902282F277071F4282F082E000C3C
:104A1000330B9217130639F08595859585950E947D
:104A200091220C94F72408956FEF7FEF90E080E0DF
:104A30000C94333190E080E00E940F319C0181E0C2
:104A40002B3E3E4F09F080E0089582E090E00C9408
:104A5000013183E090E00C940131CF9384E090E049
:104A60000E940131C82F81E290E00E940131982F0D
:104A70008C2FCF910895CF93682FC92F84E090E0B9
:104A80000E9415316C2F81E290E0CF910C9415318A
:104A9000AB01BC018FE090E00C942731AB01BC016D
:104AA00083E190E00C94273160E070E0CB010C943E
:104AB0004E2560E070E0CB010E9448250C945425FF
:104AC0006BEE7EEF90E080E00E94333160E082E0A8
:104AD00090E00E94153160E083E090E00E94153183
:104AE000109265021092660210926702109268029C
:104AF00060E084E090E00E94153160E081E290E0A7
:104B00000E94153160E085E090E00E94153160E080
:104B100086E090E00E9415316FEF87E090E00E9400
:104B2000153140E050E0BA0188E090E00E94273162
:104B300060E08DE090E00E94153140E050E0BA0165
:104B400088E190E00E94273160E087E190E00E94D8
:104B5000153140E050E0BA018CE190E00E9427312D
:104B600060E080E290E00E94153140E050E0BA0140
:104B700088E190E00E9427310C9459250C9460251F
:104B8000682F8EE090E00C941531FC0132968091F4
:104B90002501882321F08091D4029EE187FF96E0D1
:104BA00080E0915008F4089521912223D1F38F5F82
:104BB000F8CF9C01662301F1809125018823F1F053
:104BC0008091D40287FF1AC0462F46954695469598
:104BD000603F90F4677081E090E002C0880F991FF9
:104BE0006A95E2F7240F311DF901228130E0282374
:104BF000392381E0232B71F480E00895F901329686
:104C0000285F3F4F8191861721F0E217F307D1F714
:104C1000F3CF81E008959C01FC0132968FEF90E084
:104C20004191461751F08F3F19F4411101C0892F6E
:104C30009F5F9630A9F78F3F09F40895280F311D23
:104C400087FD3A95F901628308959C01FC01329633
:104C5000285F3F4F8191861303C0DF0111971C929B
:104C6000E217F307B9F70895E62FE695E695E6957E
:104C7000603F68F4E80FF92FF11D677021E030E024
:104C800001C0220F6A95EAF78281822B8283089500
:104C9000E62FE695E695E695603F70F4E80FF92F6C
:104CA000F11D677081E090E001C0880F6A95EAF716
:104CB0008095928189238283089520912501222362
:104CC00029F02091D40227FD0C9434260C940B2655
:104CD00020912501222329F02091D40227FD0C9454
:104CE00048260C942526FC013296809125018823C4
:104CF00051F08091D40287FF06C08EE1DF011D9242
:104D00008A95E9F7089586E0F9CF089508950C94FF
:104D100086268091DA02843049F10E94872680E05D
:104D20000E948D0610928F0288E190E020E40FB679
:104D3000F894A895809360000FBE2093600083B71D
:104D4000817F846083BF83B7816083BF78948895B7
:104D500083B78E7F83BF0FB6F894A89580916000CB
:104D6000886180936000109260000FBE08950895DE
:104D7000CF930E9485260E942F090E94B726C0E08B
:104D80008C2F0E948D08811105C0CF5FC530C1F7FF
:104D9000CF91089581E0FCCF08950C94CC260E9419
:104DA0001D1E0E9471190E948D060C94CD261F9223
:104DB0001FB61F9211248F939F93AF93BF9380913F
:104DC0008F02811113C08091D0029091D102A091E5
:104DD000D202B091D3024196A11DB11D8093D002A1
:104DE0009093D102A093D202B093D302BF91AF911E
:104DF0009F918F911F901FBE1F90189582E084BDD8
:104E000093E095BD9AEF97BD80936E0008952FB7FC
:104E1000F8948091D0029091D102A091D202B091E9
:104E2000D3022FBF0895CF93DF9300D000D0CDB72A
:104E3000DEB78FB7F8942091D0023091D102409123
:104E4000D2025091D30229833A834B835C838FBF74
:104E500069817A818B819C810F900F900F900F90C8
:104E6000DF91CF9108959C014FB7F8948091D002C3
:104E70009091D102A091D202B091D3024FBF821B78
:104E8000930B089578941F921FB61F9211248F934D
:104E90009F93AF93BF938091D0029091D102A09144
:104EA000D202B091D3020196A11DB11D8093D00210
:104EB0009093D102A093D202B093D302BF91AF914D
:104EC0009F918F911F901FBE1F90189587E797E7BE
:104ED000909301088093000888E19AE00FB6F89457
:104EE000A895809360000FBE90936000FFCF9093D1
:104EF000D9018093D80108950C94C5120E942F09FE
:104F00008FE39CE90197F1F700C000000E942F0990
:104F100080E00E948D0880FF04C00E947C270C94D2
:104F200066270895CF93DF9300D000D0CDB7DEB7CA
:104F30000E941A25811102C00E94BE250E942525CB
:104F400080938E020E942D259093D5028093D402E7
:104F50000E942925282F30E050E040E0CA01B90125
:104F60000E94AC218091610290916202A091630243
:104F7000B091640289839A83AB83BC83BC01CD0169
:104F80000F900F900F900F90DF91CF910C942822EB
:104F90008091B30208950895CF93DF9300D00F92CC
:104FA000CDB7DEB79091DA02943011F589836A8328
:104FB0007B839093E9008FEF9091E800815095FDFD
:104FC00006C095ED9A95F1F700008111F5CF80911B
:104FD000E80085FF0DC050E040E063E070E0CE01E6
:104FE00001960E94022B8091E8008E778093E80062
:104FF0000F900F900F90DF91CF910895BC0184E046
:105000000C94CC27BC0183E00C94CC27CF93DF9386
:10501000D82FC92F809125018823C1F18091D40216
:1050200087FF34C060E284E08093E9008FEF9091C5
:10503000E800815095FD06C095ED9A95F1F70000C6
:105040008111F5CF8091E80085FF1DC08091250179
:1050500070E050E040E0811104C050E040E068E0C2
:1050600070E08D2F9C2F0E94022B8091E8008E779C
:105070008093E80080E2ED2FFC2FA3E9B2E00190DD
:105080000D928A95E1F7DF91CF91089568E081E074
:10509000CBCFCF93603219F52091DA022430F9F4A6
:1050A000C091E900CF703091EC00232F217030FDCA
:1050B00020E8C22B22E02093E9002091E80020FFA5
:1050C0000BC050E040E060E270E00E94022B809153
:1050D000E8008E778093E800CF70C093E900CF910D
:1050E000089585EF94E00E94AD038091D90281116B
:1050F00009C00E94D92C0E94362D8091E200846064
:105100008093E200089581EF94E00E94AD03109235
:10511000D90208958DEE94E00C94AD0389EE94E0ED
:105120000C94AD0385EE94E00C94AD0320919102B4
:105130002F5F822F62E30E94D82F992319F02093CA
:105140009102089510929102809192028823F1F0C9
:105150008091DA028430C1F49091E9009F7020912F
:10516000EC00822F817020FD80E8892B95E09093E0
:10517000E9009091EB0090FF04C09091EE0097FD44
:1051800008C08F708093E9001092920208951092E7
:10519000F1009091E80095FDFACF9091E80090FF22
:1051A000F0CF9091E8009E779093E800EACF42E03C
:1051B00061EC81E00E94552C42E261EC84E00E94A7
:1051C000552C42E261EC82E00E94552C42E260ECF8
:1051D00083E00E94552C42E261EC85E00C94552C52
:1051E0008091DC02893089F148F4823009F49EC054
:1051F000833009F459C0813041F008958A3009F4B0
:1052000085C08B3009F46BC008958091DB02813A30
:1052100009F049C08091E800877F8093E800809181
:10522000DF029091E002892B61F460E283E992E071
:1052300070E00E94A02B8091E8008B778093E800BB
:10524000089560E090E080E0F3CF8091DB0281324E
:1052500051F58091DF029091E0028D7F892B19F545
:105260008091E800877F8093E8008091E80082FFCA
:1052700016C09091F3008091F200029729F480917A
:10528000F1008B7F813021F48091F1008093B30293
:105290008091E8008B778093E8000C94892C8091B2
:1052A000DA028111E2CF08958091DB02813AD9F7C9
:1052B0008091DF029091E002892BA9F78091E800AC
:1052C000877F8093E8008091E80080FFFCCF809189
:1052D00025018093F1008091E8008E77DCCF8091EA
:1052E000DB02813201F78091DF029091E002892B8D
:1052F000D1F68091E800877F8093E8000E94892C96
:105300008091DD02809325010C941D1E8091DB02AB
:10531000813249F68091E800877F8093E8000E94FF
:10532000892C8091DE028093B40208958091DB0283
:10533000813A09F0B8CF8091E800877F8093E80038
:105340008091E80080FFFCCF8091B402C2CF9FB76C
:10535000F894109292029FBF9091DA02943009F073
:1053600048C02091E9002F703091EC00932F91708C
:1053700030FD90E8922B25E02093E9002091EB008E
:1053800020FF34C02091EE0027FF30C02091900212
:10539000222321F02091E80025FF28C010929002DE
:1053A00026E03091E80035FF14C08093F100809131
:1053B000E80085FD27C08091E80080FFFCCF809148
:1053C000E8008E778093E8009F709093E90080E07A
:1053D00008953091DA02343049F43091EB0035FD14
:1053E00005C0215041F481E0809390029F7090931A
:1053F000E9008FEF0895EFE9FFE03197F1F700C082
:105400000000CFCF8FB7F89421E0209392028FBF96
:10541000DBCFCDB7DEB7A0970FB6F894DEBF0FBED7
:10542000CDBF84B7877F84BF0FB6F894A8958091CD
:105430006000886180936000109260000FBE80E879
:1054400090E00FB6F89480936100909361000FBED6
:105450000E94E5190E94D92C0E94362D8091E2000D
:1054600084608093E20078940E94BD2F0E94F51919
:105470008BE191E00E946C1984ED94E00E94AD03F1
:1054800013E08091DA02853051F480ED94E00E94BF
:10549000AD038091DA02853069F00E94CF260E9428
:1054A000011A8091DA028430A1F00E94F3190E945F
:1054B000F419E7CF0E9489268091D802882349F306
:1054C0000E94B826882329F30E94EC2A0E941D1E00
:1054D000E0CF1093E9008091E80082FFE6CF809151
:1054E000E80090E085FF09C050E040E060E270E035
:1054F000CE0101960E94512B91E08091E8008B77BC
:105500008093E800992389F260E2CE0101960E941F
:105510008A13CBCF0C948C2AFC01CB01DA012F2FFC
:10552000332723303105D1F070F42130310509F4EF
:105530004EC02230310569F48BE790E021E335E07D
:105540002D933C9308952132310521F1223231050A
:1055500071F190E080E030E020E0F2CFCF019927B8
:10556000E230A9F08330910550F4009769F0E1E250
:10557000F5E0019771F7849190E09F01E1CFE9EFA9
:10558000F4E00397C1F3E5CFEDE2F5E0F4CFE7E116
:10559000F5E0F1CF64307105E0F6880F991FFC014A
:1055A000E153FE4F2081318189E090E0C9CF643022
:1055B000710578F6FB01EE0FFF1FE953FE4F2081C6
:1055C00031818D539E4FFC01808190E0B9CF82E103
:1055D00090E02CEA35E0B4CF80E189BD82E189BD5D
:1055E00009B400FEFDCF8091D8008F7D8093D80054
:1055F0008091E00082608093E0008091E00081FD76
:10560000FCCF0895AF92BF92CF92DF92FF920F939B
:105610001F93CF93DF936C01EB018A010E94A82CAA
:10562000F82E811123C00115110539F0F801808190
:105630009181C81BD90BC80ED91EB12CA12C209763
:10564000A9F08091E80085FD22C08091E8008E7766
:105650008093E80001151105A1F0F8018081918186
:10566000A80EB91EB182A08285E0F82E8F2DDF91A1
:10567000CF911F910F91FF90DF90CF90BF90AF908F
:1056800008950E94A82C8823D1F2F82EEFCFF601BE
:1056900081916F018093F1002197FFEFAF1ABF0A4C
:1056A000CECFAF92BF92CF92DF92FF920F931F9314
:1056B000CF93DF936C01EB018A010E94A82CF82E96
:1056C000811123C00115110539F0F8018081918104
:1056D000C81BD90BC80ED91EB12CA12C2097A9F03C
:1056E0008091E80085FD22C08091E8008B7780934F
:1056F000E80001151105A1F0F80180819181A80E43
:10570000B91EB182A08285E0F82E8F2DDF91CF9156
:105710001F910F91FF90DF90CF90BF90AF900895B1
:105720000E94A82C8823D1F2F82EEFCF8091F100AF
:10573000F60181936F012197FFEFAF1ABF0ACECF19
:10574000FC01CB012091E1023091E20226173707DC
:1057500090F0009729F42091E8002E772093E8003C
:1057600040E0009751F4411108C08091E80082FFA9
:1057700031C080E00895C901F3CF2091DA022223DD
:10578000A9F12530A9F12091E80023FD2DC0209139
:10579000E80022FDEACF2091E80020FFE2CF30911F
:1057A000F3002091F200009719F02830310558F0ED
:1057B00041E02830310509F040E02091E8002E77E3
:1057C0002093E800CECF41914093F10001972F5FE5
:1057D0003F4FE9CF8091DA02882341F0853041F0D4
:1057E0008091E80083FFC1CF81E0089582E00895B1
:1057F00083E00895FC01CB012091E1023091E202A7
:105800002617370790F0009729F42091E8002E77AB
:105810002093E80040E0009751F4411108C08091C6
:10582000E80082FF32C080E00895C901F3CF2091E3
:10583000DA022223B1F12530B1F12091E80023FDF5
:105840002EC02091E80022FDEACF2091E80020FF41
:10585000E2CF3091F3002091F200009719F0283048
:10586000310558F041E02830310509F040E0209141
:10587000E8002E772093E800CECF44914093F100CA
:10588000319601972F5F3F4FE8CF8091DA0288234E
:1058900041F0853041F08091E80083FFC0CF81E086
:1058A000089582E0089583E00895982F973028F0B6
:1058B0008F708093E90081E008959093E900242F90
:1058C000762F50E0981731F07091EC002091ED00A8
:1058D0005091F00021FD02C09F5FE8CF3091EB00B6
:1058E0003E7F3093EB003091ED003D7F3093ED0033
:1058F0003091EB0031603093EB007093EC0020931B
:10590000ED005093F0002091EE0027FDE5CF80E000
:1059100008958091DB0287FF13C08091E80082FF29
:1059200006C08091E8008B778093E80004C08091E6
:10593000DA028111F2CF08958091DA028823D9F337
:105940008091E80080FFF8CF8091E8008E77ECCF5F
:105950002091E4003091E50095E6A9012091EC004A
:10596000822F817020FF06C08091E80080FF06C072
:1059700080E008952091E80022FD1AC08091DA02AB
:10598000882389F0853089F08091EB0085FD0FC078
:105990002091E4003091E50042175307F9F291504D
:1059A000E1F684E0089582E0089583E0089581E0BF
:1059B00008950E94472D0E944F2DE0EEF0E0808177
:1059C00081608083E8EDF0E080818F77808319BC6F
:1059D000A7EDB0E08C918E7F8C9380818F7E808349
:1059E0001092D90208950F931F93CF93DF930E94D3
:1059F000472D0E944F2DC8EDD0E088818F77888396
:105A000088818068888388818F7D888319BC109203
:105A1000DA021092D6021092D8021092D70200EE4B
:105A200010E0F80180818B7F80838881816088838A
:105A300042E060E080E00E94552CE1EEF0E08081E1
:105A40008E7F8083E2EEF0E08081816080838081C0
:105A500088608083F80180818E7F80838881806167
:105A60008883DF91CF911F910F910895E8EDF0E0C9
:105A700080818F7E8083E7EDF0E08081816080838C
:105A800084E082BF81E08093D9020C94F32CE8ED8E
:105A9000F0E080818E7F80831092E2000895109262
:105AA000DA001092E10008951F920F920FB60F9244
:105AB00011242F933F934F935F936F937F938F9313
:105AC0009F93AF93BF93EF93FF938091E10082FF89
:105AD0000BC08091E20082FF07C08091E1008B7FC4
