:100000000C94A2030C94E9030C94E9030C94E90307
:100010000C94E9030C94E9030C94E9030C94E903B0
:100020000C94E9030C94E9030C9452260C942527B4
:100030000C9483200C94E9030C94E9030C94E903D9
:100040000C94E9030C94E9030C94E9030C94E90380
:100050000C94E9030C94EE200C94E9030C94E9034E
:100060000C94E9030C94E9030C94E9030C94E90360
:100070000C94E9030C94E9030C94E9030C94E90350
:100080000C94E9030C94E9030C94E9030C94E90340
:100090000C94E9030C94E9030C94E9030C94E90330
:1000A0000C94E9030C94E9030C94E9030153540004
:1000B00055005600240025002600000021002200E3
:1000C000230057001E001F00200000000000270032
:1000D0003700280001000100010001004A00520021
:1000E0004B000000500001004F0001004D00510086
:1000F0004E000000000049004C00010044454255FC
:10010000473A2064697361626C65642E0A00444555
:100110004255473A20656E61626C65642E0A000A9A
:100120000025303862003A200025303258000A722B
:100130002F632030313233343536370A00290A0034
:100140002575002F002575005D280025640020001E
:10015000256400200025640020002564007C002523
:10016000303258006D6F7573656B6579205B627412
:100170006E7C782079207620685D287265702F610A
:10018000636C293A205B007267626C69676874204F
:1001900073657420687376205B4E4F454550524F0F
:1001A0004D5D3A2025752C25752C25750A00726742
:1001B000626C696768742073657420687376205B6D
:1001C000454550524F4D5D3A2025752C25752C25FF
:1001D000750A007267626C6967687420646973618C
:1001E000626C65205B454550524F4D5D3A20726709
:1001F000626C696768745F636F6E6669672E656EAF
:1002000061626C65203D2025750A007267626C6929
:1002100067687420656E61626C65205B454550526D
:100220004F4D5D3A207267626C696768745F636FF7
:100230006E6669672E656E61626C65203D2025756E
:100240000A007267626C6967687420746F67676C14
:1002500065205B454550524F4D5D3A207267626C98
:10026000696768745F636F6E6669672E656E616249
:100270006C65203D2025750A007267626C696768AD
:1002800074206D6F6465205B4E4F454550524F4D55
:100290005D3A2025750A007267626C696768742090
:1002A0006D6F6465205B454550524F4D5D3A20258A
:1002B000750A007267626C696768745F696E697459
:1002C000207267626C696768745F636F6E666967E6
:1002D0002E6D6F6465203D20302E20577269746545
:1002E0002064656661756C742076616C7565732039
:1002F000746F20454550524F4D2E0A007267626C54
:10030000696768745F696E6974206565636F6E669E
:100310006967206973206E6F7420656E61626C6519
:10032000642E0A007267626C696768745F696E693F
:1003300074207374617274210A007267626C696759
:1003400068745F696E69742063616C6C65642E0A01
:10035000007267626C696768745F636F6E66696775
:100360002E7370656564203D2025640A0072676203
:100370006C696768745F636F6E6669672E76616C1F
:10038000203D2025640A007267626C696768745FAB
:10039000636F6E6669672E736174203D2025640A61
:1003A000007267626C696768745F636F6E66696725
:1003B0002E687565203D2025640A007267686C69A7
:1003C0006768745F636F6E6669672E6D6F64652022
:1003D0003D2025640A007267626C696768745F6318
:1003E0006F6E6669672E656E61626C65203D2025C3
:1003F000640A007267626C696768745F636F6E6637
:10040000696720454550524F4D3A0A0000010101ED
:1004100001010101010102020202020202020203C1
:100420000303030303030304040404040404050591
:100430000505050606060606070707070708080854
:1004400008090909090A0A0A0B0B0B0C0C0C0D0D03
:100450000D0E0E0E0F0F0F1010111111121213139B
:100460001414151516161717181819191A1A1B1B14
:100470001C1D1D1E1E1F2020212222232424252670
:1004800026272829292A2B2C2D2D2E2F30313232A8
:10049000333435363738393A3B3C3D3E3F404142B4
:1004A000434445464748494A4C4D4E4F505153549A
:1004B000555658595A5B5D5E5F616264656668694E
:1004C0006B6C6D6F7072737577787A7B7D7E8082CE
:1004D000838587888A8C8E8F91939596989A9C9E17
:1004E000A0A2A3A5A7A9ABADAFB1B3B5B7BABCBE27
:1004F000C0C2C4C6C9CBCDCFD1D4D6D8DBDDDFE2F4
:10050000E4E7E9EBEEF0F3F5F8FAFDFF0A00253039
:10051000325820006B6579626F6172645F7265703A
:100520006F72743A20000A0025303258006B6579EA
:10053000626F6172645F7365745F6C65643A20001A
:1005400064656C5F6B65795F6269743A2063616EA4
:1005500027742064656C3A20253032580A006164A3
:10056000645F6B65795F6269743A2063616E2774BA
:10057000206164643A20253032580A005B735D00C4
:100580004B6579626F6172642073746172742E0AB4
:10059000005B575D005B535D005B525D005B445D3B
:1005A000005B435D0008036E0075006D0000000AEB
:1005B0000332004C0031005000000004030904091C
:1005C000025B00030100A0FA09040000010301011D
:1005D00000092111010001224000070581030800E4
:1005E0000A090401000103000000092111010001B2
:1005F00022B6000705820320000A09040200020354
:1006000000000009211101000122220007058303D7
:100610002000010705030320000112011001000062
:100620000008381323200100010200010631FF09F0
:1006300074A1010975150026FF0095207508810237
:100640000976150026FF00952075089102C0050166
:100650000902A10185020901A10005091901290862
:100660001500250195087501810205010930093140
:100670001581257F95027508810609381581257F2A
:10068000950175088106050C0A38021581257F95AC
:100690000175088106C0C005010980A10185031903
:1006A000012AB700150126B700950175108100C019
:1006B000050C0901A101850419012AA002150126D2
:1006C000A002950175108100C005010906A10185F0
:1006D00005050719E029E715002501950875018131
:1006E000020507190029EF1500250195F075018114
:1006F00002050819012905950575019102950175F5
:10070000039101C005010906A101050719E029E7C8
:100710001500250195087501810295017508810173
:100720000507190029FF150026FF009506750881A9
:1007300000050819012905950575019102950175B6
:10074000039101C011241FBECFEFDAE0DEBFCDBFA1
:1007500004B603FE27C08091870290918802A09181
:100760008902B0918A028730904BA740B04BD1F4F8
:1007700010928702109288021092890210928A02C7
:1007800014BE84B7877F84BF0FB6F894A895809174
:100790006000886180936000109260000FBEE0E00E
:1007A000F8E3099511E0A0E0B1E0E8E4F3E502C068
:1007B00005900D92A039B107D9F722E0A0E9B1E088
:1007C00001C01D92A738B207E1F70E948B230C9459
:1007D00058290C940000FF93EF93E0919001F09161
:1007E0009101309709F00995EF91FF910895FC016F
:1007F0008591803011F0EFDFFBCF0895FF27E0E215
:1008000030E247FF0CC0419597FF09C0EDE26095CB
:10081000709580959095611D711D811D911D27FF1B
:1008200002C0219530E350E2AA27660F771F881F88
:10083000991FAA1FA41710F0A41B63955A95A9F736
:10084000AA3008F0A95FA05DAF93F395611571051B
:100850008105910541F7ED3211F4EF93F395F2170D
:1008600018F43F93F395FBCF8F91B5DFFA95E1F73D
:100870000895E991F9918591803021F0853219F040
:10088000AADFF9CF089520E0E89455915532C1F3DD
:10089000503311F4689455915A3348F4505390F3FF
:1008A000220F022E220F220F200D250FF4CF0EF45F
:1008B000219589919991533619F3533729F153357D
:1008C00059F1BC0188279927E8945C3621F4899175
:1008D000999168945591543639F446EF7EF077FF3C
:1008E0000DC08FEF9FEF0AC055374AE039F05835F9
:1008F00040E121F0523642E009F00895FF93EF9372
:100900007DDFEF91FF91B7CFFF93EF93FC018191D2
:100910008030B9F360DFFBCFFF93EF9368DFF1CF57
:10092000DF93CF93CDB7DEB72596A3DFCF91DF91CD
:10093000089581E0089581E008950C949B04089542
:100940000C949F041F93CF93DF9300D000D00F929D
:10095000CDB7DEB749835A836B833091BD0189815E
:100960009A8131111DC06623B9F02223A9F00E949B
:10097000551D182F682F89819A810E94001D698159
:100980007A81812F0F900F900F900F900F90DF9131
:10099000CF911F910C9484050E942D1D182FEFCF2D
:1009A0000E94551D69817A81EDCFFC01262F40817F
:1009B00051816281738184810C94A204CF93DF936F
:1009C000D82FC92F60E00E94D5046D2F7C2FDF91B6
:1009D000CF910C94A0040E94A41E811102C00E9419
:1009E000481F0C948E070C94910708950E94AD1730
:1009F0000E94F5042FEF84E39CE02150804090405A
:100A0000E1F700C000000C9412210F931F93CF93C5
:100A1000DF93EC0161E00E94D5048C01BE010E94CD
:100A20009D04882341F1BE01C8010E94161188234C
:100A300011F1BE01C8010E946B118823E1F0BE01D3
:100A4000C8010E943E128823B1F0BE01C8010E9475
:100A50002410882381F08A81882341F101308CE5BC
:100A6000180779F00F3D8CE51807E9F001151C45D2
:100A7000E9F40E94F60480E0DF91CF911F910F917D
:100A8000089590913202892F8E7F90FF816080932C
:100A9000320280FF05C08EE091E00E94F703EBCFA9
:100AA0008CEF90E0FACF0E94481FE5CFCE01DF9196
:100AB000CF911F910F910C949904829594E0899F96
:100AC000900111242C7C869586958373282B30E029
:100AD000C901880F991F8A7A359527952575822B2C
:100AE000089508950C94710581E008950C9474059F
:100AF000CF93C82F0E9472058C2FCF910C9476054E
:100B000090E080E008950895E72FF0E095E0899F58
:100B1000E00DF11D1124EE0FFF1FEE0FFF1FE60F7A
:100B2000F11DEE0FFF1FE455FF4F8591949108953D
:100B3000FC01EE0FFF1FE15EFE4F85919491089539
:100B4000CF93DF930E9484050E94B206EC018115C9
:100B500020E5920708F04BC0811530E4930708F0B8
:100B6000B2C0803E910518F5803C910508F09FC009
:100B7000883A910570F4853A910508F095C0813066
:100B8000910529F10497813A910508F1D0E0C0E080
:100B90001EC08F3B9105D1F3C85AD0E0CC0FDD1FAA
:100BA000C65EDE4F0990D881C02DD46410C0811577
:100BB00040E2940780F48F3F910509F040F4883EAD
:100BC000910528F08D5E9109D0654397F8F6CE0126
:100BD000DF91CF910895C11580E3D80708F46DC067
:100BE000CE019927D3FD6CC0EC01D06CF0CFC115BC
:100BF00095E5D90760F5C11524E5D20708F094C042
:100C0000C11533E5D30778F4C11542E5D40708F0E0
:100C10007AC0C11581E5D80708F458C0DC2FCC276D
:100C2000C16FD06AD4CFCE018370992721E030E024
:100C300002C0220F331F8A95E2F7C695C69590E24F
:100C4000C99FE0011124C22BD32BDA68C0CFC11594
:100C50002AE5D207B0F4C11539E5D30708F074C00E
:100C6000C11546E5D40708F464C0CE0198558F3FFE
:100C7000910511F008F08ACFDC2FCC27C06FD06A25
:100C8000A6CFCE0190568115904208F07FCF8D2FD0
:100C90008F710E944A0790E0982F882788279F71BC
:100CA0009C012C2BE9014EC0A497D06490CF805CAE
:100CB00091090E949805EC018ACFCE019F70F9CF6F
:100CC000EC01D86C84CFDF70D06A81CFCE0174E0A4
:100CD000969587957A95E1F783702C2F2695269522
:100CE000237040E2249F90011124382B8C2F8370B5
:100CF000C1E0D0E002C0CC0FDD1F8A95E2F7C22B25
:100D0000D32BDC6864CFCE018370992721E030E0DB
:100D100002C0220F331F8A95E2F7C695C69580E27E
:100D2000C89FE0011124EBCFDC2FCC27C46FD06A21
:100D30004ECF8C2F0E944A07C82FD0E0DC2FCC2743
:100D4000CC27DF71D06243CF8C2F8F700E944A076F
:100D500034E0D695C7953A95E1F7CF70DC2FC82FD0
:100D6000D06935CF803E910599F1C8F48133910562
:100D700009F476C048F48932910509F46AC08A32D0
:100D8000910509F474C0089589339105D1F0823832
:100D90009105B9F08533910509F454C00895843E56
:100DA000910599F138F4823E9105F9F0833E910561
:100DB00009F10895863E910599F1873E9105B9F1B3
:100DC0000895209178022370A1F080EE90E00895BC
:100DD0002091780220FD52C03091790230FF09C085
:100DE00024FF4FC090E080E004C02091780222FDF3
:100DF000F7CF08952091780222FD46C03091790204
:100E000030FDE3CF24FFF5CFEDCF2091790221FF14
:100E1000F0CF8091780284FDE5CF87EE90E00895D1
:100E20002091780223FFE5CF24FDDCCFF6CF20917F
:100E3000780223FD2CC03091790231FFE3CF84EE9C
:100E400090E008952091780225FFD3CF89E290E0C9
:100E500008952091780225FFCCCF85E390E0089596
:100E60002091780226FFC5CF8AE290E00895209174
:100E7000780226FFBECF81E390E0089589E390E0F9
:100E8000089583EE90E0089582EE90E0089586EE56
:100E900090E008959091780292FF06C0282F287163
:100EA0002830F9F4877F846093FF06C0282F2871CB
:100EB0002831F1F4877E84612091790220FF06C0F9
:100EC000382F38713830D9F4877F816021FF06C010
:100ED000282F28712831D1F4877E816194FD877E87
:100EE0000895282F24712430F9F68B7F8860DCCF99
:100EF000282F2471243101F78B7E8861DDCF382FB4
:100F00003171313019F78E7F8860E0CF282F217141
:100F1000213121F78E7E8861E1CF08950C948D07F1
:100F200008950C949007E82FF0E0E25AFD4F80817D
:100F30000895CF92DF92EF92FF920F931F93CF937A
:100F4000DF938EE291E00E94F7038EE5E82E82E0C7
:100F5000F82ED0E0C0E099E2C92E91E0D92E01E24E
:100F600011E0DF93CF93DF92CF920E94900486E24C
:100F700091E00E94F703F70181917F010E945D05D6
:100F80001F928F931F930F930E9490048FE191E023
:100F90000E94F70321968DB79EB708960FB6F89476
:100FA0009EBF0FBE8DBFC530D105D9F6DF91CF9161
:100FB0001F910F91FF90EF90DF90CF90089580EAFE
:100FC0008A95F1F7089500C008950C94DF07F8940E
:100FD000E82FE295EF70F0E041A18F7021E030E062
:100FE000B90102C0660F771F8A95E2F7CB01962FF1
:100FF0009095942391A392A1892B82A3789408952C
:1010000086EF0E94E70787EF0E94E70781E30E94CF
:10101000E70783E30E94E70782E30E94E70785E38F
:101020000E94E70784E30E94E70786EC0E94E70737
:1010300087E90E94E707A9E5B2E01C92EEE5F2E03D
:10104000108211961C921197118212961C9212977F
:10105000128213961C921397138214961C92148278
:1010600085E00E94B0080C94EB04BF92CF92DF920F
:10107000EF92FF920F931F93CF93DF930CE411E055
:10108000C9E5D2E0C12CD12CEE24E394F12CF80177
:1010900081918F01F894E82FE295EF70F0E021A1A3
:1010A0008F70A70102C0440F551F8A95E2F7CA014D
:1010B000922F982B91A392A18095892382A3789453
:1010C0000E94E307E8E4F1E030E020E0B12C419138
:1010D000A42FA295AF70B0E090968C9190E04F70E5
:1010E00002C0959587954A95E2F780FD35C08E2D13
:1010F000022E01C0880F0A94EAF7B82A2F5F3F4FEB
:101100002430310521F7F801319780810E94E707EB
:1011100054E0C5120E94E5078881B816F9F0B8823C
:1011200081E0D82AC394219685E0C812B0CF2D2D36
:1011300045E06EE572E089E592E00E94B1080E9408
:10114000F3048D2DDF91CF911F910F91FF90EF90C0
:10115000DF90CF90BF90089580E0CFCF80E0E1CFC7
:101160000895FF920F931F93CF93DF93F82E092FCB
:10117000162FD72FC42F222349F081E080939401AA
:101180000E94B320909393018093920180919401E7
:101190008823A1F080919201909193010E94DF2019
:1011A000069760F0EF2DF02FA12FBD2FCE0FDF2F70
:1011B000D11DEC17FD0741F410929401DF91CF91FE
:1011C0001F910F91FF90089581918D93F2CF80919F
:1011D0009B0180FF12C06091050185E0689FB0010E
:1011E0001124759567957595679560387105A8F513
:1011F00061157105A1F1862F089581FF09C06091E5
:10120000050185E0689FB001112475956795EDCFC4
:101210006091050182FD0AC080919A018823D1F076
:101220009091040160910501891728F085E0689F7D
:10123000B0011124DACF869FB001112485E0869F8A
:101240009001879F300D1124692F70E0C9010E9421
:10125000F628CBCF65E070E0CECF8FE7089581E030
:10126000089580919B0180FF0CC06091010170E0A6
:1012700075956795759567956115710549F1862F87
:10128000089581FF06C06091010170E07595679532
:10129000F3CF6091010182FD0BC0909199019923D8
:1012A000A1F06091000180910101961738F0682F3C
:1012B00070E06038710500F38FE70895899FC001E1
:1012C000112470E00E94F628F4CF61E070E0D7CFDF
:1012D00081E008958D3E31F40E94E7088195809366
:1012E0009F0108958E3E19F40E94E708F8CF8F3EC3
:1012F00031F40E94E708819580939E010895803F14
:1013000019F40E94E708F8CF893F29F40E943109B7
:101310008093A00108958A3F21F40E9431098195AC
:10132000F7CF8B3F31F40E94310981958093A10161
:1013300008958C3F19F40E943109F8CF9FE0980F6F
:10134000983070F4815F990B21E030E001C0220FEA
:101350008A95EAF780919D01822B80939D010895E3
:101360008D3F31F480919B01816080939B010895B2
:101370008E3F21F480919B018260F7CF8F3FB9F7B8
:1013800080919B018460F1CF40919E018D3E59F484
:1013900080919F0187FF0DC010929F0141110BC0EA
:1013A00010929A0108C08E3E81F480919F01181618
:1013B0009CF3442381F08091A0019091A101892B9D
:1013C00009F05AC01092990108958F3E49F447FFE1
:1013D000F0CF10929E0180919F018111ECCFE0CF60
:1013E000803F19F41416ACF3E4CF9091A001893F2B
:1013F00029F41916F4F61092A001DBCF8A3F19F4F4
:1014000097FFD7CFF8CF9091A1018B3F29F497FF99
:10141000D0CF1092A101CDCF8C3F19F41916CCF387
:10142000C8CF9FE0980F983090F4815F990B21E02E
:1014300030E0B90102C0660F771F8A95E2F7CB0151
:10144000809590919D01892380939D01B2CF8D3F1E
:1014500031F480919B018E7F80939B01AACF8E3FB8
:1014600021F480919B018D7FF7CF8F3F09F0A1CFB1
:1014700080919B018B7FF0CF08958091320283FF92
:101480007EC084E691E00E94F70380919D011F9247
:101490008F938FE591E09F938F930E9490048DE549
:1014A00091E00E94F70380919E01282F082E000CE6
:1014B000330B3F938F938AE591E09F938F930E9424
:1014C000900488E591E00E94F70380919F01282F06
:1014D000082E000C330B3F938F9385E591E09F938B
:1014E0008F930E94900483E591E00E94F70380911E
:1014F000A001282F082E000C330B3F938F9380E51B
:1015000091E09F938F930E9490048EE491E00E945B
:10151000F7038091A101282F082E000C330B3F9375
:101520008F938BE491E09F938F930E94900488E4C3
:1015300091E00E94F70380919A011F928F9385E4B6
:1015400091E09F938F930E94900483E491E00E9426
:10155000F70380919B011F928F9380E491E09F930A
:101560008F930E9490048DE391E00E94F7038DB762
:101570009EB74C960FB6F8949EBF0FBE8DBF0E94CB
:10158000B32020919E0130919F01232B21F0809365
:101590009701909398012091A0013091A101232BF4
:1015A00021F080939501909396018CE991E00C9441
:1015B000D412EF92FF920F931F93CF93DF9300D03B
:1015C00000D000D0CDB7DEB786E0ECE9F1E0DE0177
:1015D000119601900D928A95E1F7E0909E01F090AE
:1015E0009F010091A0011091A10110929E01109203
:1015F0009F011092A0011092A1018F2D8E2991F0D0
:1016000080919701909198010E94DF209C01809128
:101610009A01882309F443C090910601921713069A
:1016200008F44BC0802F812B91F08091950190910F
:1016300096010E94DF209C0180919901882309F482
:101640007BC0909102019217130608F483C0809129
:101650009E0190919F01892B9091A001892B9091DF
:10166000A101892B11F00E943D0AEB82FC820D83BF
:101670001E8386E0FE013196ACE9B1E001900D9247
:101680008A95E1F726960FB6F894DEBF0FBECDBF60
:10169000DF91CF911F910F91FF90EF9008954091AE
:1016A00007019AE0499FA00111244217530708F04F
:1016B000B9CF8F5F80939A0102C08F3FD1F7EE20A0
:1016C00059F00E94E7089FEF1E140CF491E0899FE7
:1016D000802D112480939E01FF2059F00E94E7087D
:1016E0009FEF1F140CF491E0899F802D11248093AB
:1016F0009F0130919E01332309F494CF20919F01E3
:10170000222309F48FCF45EB3403C0011124992320
:1017100059F090939E0145EB24039001112433234B
:1017200039F030939F017ECF81E080939E01F3CF0B
:1017300081E080939F0176CF409103019AE0499F19
:10174000A00111244217530708F081CF8F5F8093C7
:10175000990102C08F3FD1F7002359F00E9431094F
:101760009FEF10160CF491E0899F802D1124809337
:10177000A001112359F00E9431099FEF11160CF4BA
:1017800091E0899F802D11248093A1013091A001C7
:10179000332309F45CCF2091A101222309F457CF10
:1017A00045EB3403C0011124992359F09093A00113
:1017B00045EB240390011124332339F03093A10128
:1017C00046CF81E08093A001F3CF81E08093A10117
:1017D0003ECF86E0ECE9F1E0DF011D928A95E9F762
:1017E00010929A011092990110929B010895CF9244
:1017F000DF92EF92FF920F931F93CF93DF93D62F39
:10180000C72F982F711113C0442329F0E82FF0E05F
:10181000E45FFB4F9491692F792F892FDF91CF914E
:101820001F910F91FF90EF90DF90CF900895272F99
:1018300030E0E82FF0E0442321F0E45FFB4FE49137
:10184000F0E086E0D89F700111240FEF10E0C7018F
:10185000B8010E94E2288D2F90E0880F991FA5E51E
:10186000A69FA001A79F500D1124841B950BD82E75
:10187000DD0CD80EC801821B930B8E9FA0018F9F99
:10188000500D9E9F500D1124952FDC9EE0011124D8
:10189000CD2FDD27D801AC1BBD0BED01CE9FD001B4
:1018A000CF9FB00DDE9FB00D11248B2FE801CD1915
:1018B000D1096E01C29EE001C39ED00DD29ED00D13
:1018C0001124CD2FDD270C1B1D0B0E9FE0010F9F58
:1018D000D00D1E9FD00D11242E2F63307105D9F02D
:1018E0003CEFE31633E0F30668F461307105B9F0BC
:1018F00062307105C1F0AFEFEA16F10448F4852FAC
:101900009D2F06C06430710589F066307105B9F30A
:10191000692F722F83CF9B2F8E2F252FF9CF9E2FCC
:101920002B2F852FF5CF8D2F9E2FF7CF8E2F2D2F7D
:10193000EFCF41E00C94F70B0C94990CCF93DF930D
:10194000982F762F842FE901692F0E949C0C7983B0
:1019500068838A83DF91CF91089580916302982FE5
:101960009E7F39F48091630281708260809363026C
:1019700008958430B8F7089588E090E00C94182911
:101980000F931F93CF93DF938B01D82FC92F0E9402
:10199000AD0CA8016D2F7C2F88E090E0DF91CF91F6
:1019A0001F910F910C943629CF93DF9300D000D074
:1019B000CDB7DEB7E3E6F2E083E0808311828FEFFC
:1019C00082838383148280819181A281B381898300
:1019D0009A83AB83BC83BC01CD010F900F900F9015
:1019E0000F90DF91CF910C94C00C8091320280FF58
:1019F00076C083EF93E09F938F930E949004809131
:101A000032020F900F9080FF6AC080916302817054
:101A10001F928F9386ED93E09F938F930E94900483
:101A2000809132020F900F900F900F9080FF57C05F
:101A30008091630286951F928F938BEB93E09F9327
:101A40008F930E949004809132020F900F900F901C
:101A50000F9080FF44C0809164021F928F9381EAAF
:101A600093E09F938F930E949004809132020F9095
:101A70000F900F900F9080FF32C0809165021F92EF
:101A80008F9387E893E09F938F930E9490048091B7
:101A900032020F900F900F900F9080FF20C0809126
:101AA00066021F928F938DE693E09F938F930E941F
:101AB0009004809132020F900F900F900F9080FF52
:101AC0000EC0809167021F928F9381E593E09F93F0
:101AD0008F930E9490040F900F900F900F90089595
:101AE000CF93DF9300D000D0CDB7DEB790916702DF
:101AF000933018F49F5F909367028823B1F0809130
:101B0000630290916402A0916502B091660289839C
:101B10009A83AB83BC83BC01CD010F900F900F90D3
:101B20000F90DF91CF910C94C00C0F900F900F90FD
:101B30000F90DF91CF91089581E00C94700DCF93B9
:101B4000DF9300D000D0CDB7DEB790916702992324
:101B500019F09150909367028823B1F0809163024D
:101B600090916402A0916502B091660289839A8384
:101B7000AB83BC83BC01CD010F900F900F900F90F1
:101B8000DF91CF910C94C00C0F900F900F900F909D
:101B9000DF91CF91089581E00C949F0D70E00C943B
:101BA0007C10609109018091630280FF0AC08091DE
:101BB000080123E0829FC001112488599D4F0C9495
:101BC000CE0D80910A0190910B0123E0829FF001DC
:101BD0001124E859FD4F891750F7118210821282A3
:101BE0008F5F3396F8CFCF93DF9300D000D0CDB77F
:101BF000DEB7809163028E7F8093630280916302DF
:101C000090916402A0916502B091660289839A83E3
:101C1000AB83BC83BC01CD010E94C00C8091320219
:101C200080FF0FC08091630281701F928F9383EDBC
:101C300091E09F938F930E9490040F900F900F90CC
:101C40000F909FEFA0E7B2E09150A040B040E1F7C5
:101C500000C000000F900F900F900F90DF91CF9178
:101C60000C94D10D9091630290FF14C090910A01E1
:101C700020910B0133E0939FF0011124E859FD4FAF
:101C8000921710F00C94D10D8183608342839F5F83
:101C90003396F6CF0895EF92FF920F931F93CF9351
:101CA000DF9300D000D000D00F92CDB7DEB7182F51
:101CB000062FF42EE22E8091630280FF49C0E82FA8
:101CC000E695F0E0EF5AFE4F90819093A3018E7F4E
:101CD000823059F49E012F5F3F4F812F0E949E0C4E
:101CE0004B8169818A810E94320E109364020093B5
:101CF0006502F0926602EE20C1F18091630290913C
:101D00006402A0916502B09166028C839D83AE83CC
:101D1000BF83BC01CD010E94C00C8091320280FFC4
:101D200017C0809166021F928F93809165021F9267
:101D30008F93809164021F928F938EEA91E09F931C
:101D40008F930E9490040FB6F894DEBF0FBECDBFF4
:101D500027960FB6F894DEBF0FBECDBFDF91CF91AF
:101D60001F910F91FF90EF9008958091320280FFB4
:101D7000EFCF1F92FF921F920F931F921F9387E83E
:101D800091E0DDCF282FE3E6F2E08181438162819B
:101D9000885F0C944B0E81E00C94C20E282FE3E672
:101DA000F2E081814381628188500C944B0E81E086
:101DB0000C94CE0E282FE3E6F2E0628131E1630F4E
:101DC00008F46FEF438181810C944B0E81E00C94F9
:101DD000DA0E282FE3E6F2E0628131E1631B08F4BA
:101DE00060E0438181810C944B0E81E00C94E90EFC
:101DF000282FE3E6F2E0438131E1430F08F44FEF8F
:101E0000628181810C944B0E81E00C94F80E282F96
:101E1000E3E6F2E0438131E1431B08F440E06281F4
:101E200081810C944B0E81E00C94070F20E00C9400
:101E30004B0ECF93DF9300D000D0CDB7DEB78091AB
:101E4000630280FF41C081708260809363026623D9
:101E500089F18091630290916402A0916502B09132
:101E6000660289839A83AB83BC83BC01CD010E9447
:101E7000C00C8091320280FF0FC080916302869572
:101E80001F928F9387E992E09F938F930E94900413
:101E90000F900F900F900F90409166026091650235
:101EA000809164020F900F900F900F90DF91CF916F
:101EB0000C94160F8091320280FFEECF1F9281E0CA
:101EC0008F9389E792E0E0CF0F900F900F900F90E3
:101ED000DF91CF910895682F81E00C94190F81E074
:101EE0000C946B0F682F9091630296958FEF890F7A
:101EF000913009F481E00C94190F81E00C94720F79
:101F000061E00C94190F80916302816080936302F9
:101F10008091320280FF0DC01F9281E08F938BE091
:101F200092E09F938F930E9490040F900F900F90D8
:101F30000F908091630286950C94800F80913202FD
:101F400080FF10C080916302809581701F928F93F3
:101F500082E492E09F938F930E9490040F900F90E1
:101F60000F900F908091630280FD0C94F30D0C9400
:101F7000830F60E00C94190F8091A20181115EC063
:101F80008091320280FF14C08AE393E09F938F9385
:101F90000E949004809132020F900F9080FF08C041
:101FA00084E293E09F938F930E9490040F900F9090
:101FB0000E94A41E811110C08091320280FF08C0CF
:101FC0008CEF92E09F938F930E9490040F900F905C
:101FD0000E94481F0E94D40C0E94BC0C60936302B4
:101FE0007093640280936502909366026E7FC1F4E1
:101FF0008091320280FF08C083EB92E09F938F9321
:102000000E9490040F900F900E94D40C0E94BC0C70
:1020100060936302709364028093650290936602FA
:102020000E94AD0C0E94F50C8091630280FF03C0FA
:1020300086950E94B90F81E08093A2010895FA016C
:1020400081110994FB01FDCF0F931F93CF938C0156
:10205000FB01C281CC2309F44DC00E94F21D8272A3
:10206000F801E35CFC45E431F10538F4E65AF64D3D
:102070000C940A290E949E0FC0E08C2FCF911F91D3
:102080000F9108954DE75FE06FE67FE00E941F101B
:10209000F3CF4FE65FE06DE77FE0F8CF47ED5EE01E
:1020A0006BEC7EE0F3CF4BEC5EE067ED7EE0EECFD5
:1020B00045EF5EE066EE7EE0E9CF46EE5EE065EF7E
:1020C0007EE0E4CF43E15FE064E07FE0DFCF44E027
:1020D0005FE063E17FE0DACF4BEC5DE06CE97DE04F
:1020E000D5CF4CE95DE06BEC7DE0D0CF81E00E9484
:1020F000800FC2CFC1E0C1CF9C01AB01269A65B170
:102100006F7B75B17064EFB7F894CA01880F991F9F
:10211000840F951F820F931F8217930741F4EFBF1F
:102120008FE594E00197F1F700C000000895D90110
:102130004D919D0158E075B9000000C047FF65B999
:10214000440F000000C000C000C065B900C05A952F
:1021500091F7E2CF0F931F93CF93DF93C42FD22F2A
:10216000FC0182818823C9F04093A7010E94B3201B
:102170009093A6018093A50180E28C0F883008F02F
:1021800050C0C77081E001C0880FCA95EAF7DF919F
:10219000CF911F910F910C94DE141091A70114138D
:1021A00035C08091A5019091A6010E94DF20883C56
:1021B000910560F5C0E2CD0F1D17B9F080E2810FE7
:1021C000883040F4177081E001C0880F1A95EAF753
:1021D0000E94E514C83048F481E09D2F977001C03B
:1021E000880F9A95EAF70E94DE14802F0E94D61479
:1021F000C830B8F4D77081E001C0880FDA95EAF7EB
:10220000DF91CF911F910F910C94E51480E28C0F18
:10221000883038F4C77081E001C0880FCA95EAF7AA
:10222000EFCFDF91CF911F910F9108950F939C01F4
:10223000CB01243F4CE53407A1F190F4293DFCE5A6
:102240003F0749F12A3D4CE53407E9F1283D3C457B
:10225000C1F0FC0182818823E1F11092A70119C02D
:10226000263FFCE53F0719F1273F4CE5340729F1EC
:10227000253F3C4571F707E225EE44EE65EF7CE52E
:1022800005C006E221EE41EE68ED7CE50E94AA1051
:1022900080E00F91089507E225EE45EE69ED7CE5BB
:1022A000F5CF06E221EE40EE64EF7CE5EFCF06E2EB
:1022B00021EE42EE66EF7CE5E9CF07E225EE46EE41
:1022C00067EF7CE5E3CF08E221E045EE6AED7CE5CF
:1022D000DDCF81E0DECFCF93DF93EC01FB01828184
:1022E000882309F4C9C0C631FCE5DF07E0F4C23039
:1022F0009CE5D907F0F00E94B71E90937902809375
:102300007802C631ECE5DE0720F5C230FCE5DF07D8
:1023100098F480917802909179020E94C51E0E94E3
:10232000AD1780E006C09E012B5F3C45293031058A
:1023300010F3DF91CF910895FE01E350FC458091A9
:1023400078028160E331F10588F4E259F64D0C948E
:102350000A29CB5FDC45C930D105D8F6CF57D64D19
:10236000FE010C940A2980917802826080937802A1
:10237000D0CF809178028460F9CF80917802886014
:10238000F5CF80917902816080937902C2CF8091EC
:1023900079028260F9CF809178028061E7CF8091E5
:1023A00078028062E3CF809178028064DFCF0E9460
:1023B000AD17809178028068D9CF809178028C60C7
:1023C000D5CF809179028360DFCF809178028E7FB4
:1023D000CDCF809178028D7FC9CF809178028B7F9D
:1023E000C5CF80917802877FC1CF809179028E7F9F
:1023F000CBCF809179028D7FC7CF809178028F7E7D
:10240000B5CF809178028F7DB1CF809178028F7B9C
:10241000ADCF0E94AD17809178028F77A7CF8091C2
:102420007802837FA3CF809179028C7FADCF80919A
:10243000780282FB992790F921E0922790FB82F99C
:1024400090FB83F993CF80917902982F90959170AA
:102450008E7F892B90FB81F997CF0E94AD179091C9
:102460007802892F97FB87F9805880CF81E00E94FE
:102470004A1F4FCF80E0FBCF81E05BCFCF93DF934C
:10248000EB0186319C4511F50E94F21D9A8199233A
:1024900099F08A7A91E009F490E09093A801811173
:1024A00009C089E20E94CD1D0E94411E80E0DF919B
:1024B000CF91089585E3F6CF8091A801811104C0E2
:1024C00089E20E94D41DF0CF85E3FBCF81E0EFCFFE
:1024D0009093AE018093AD010895E091AD01F0912C
:1024E000AE01309721F00190F081E02D099480E059
:1024F0000895EF92FF920F931F93CF93DF93EC0118
:10250000E091AD01F091AE01309709F446C08091A1
:102510001901882341F08091780287FF04C08881E7
:10252000898385E088830280F381E02DCE010995BF
:102530008091320282FF31C080FF04C084E195E0C7
:102540000E94F70310E000E08EE0E82E85E0F82E10
:102550008091320280FF0EC0FE01E00FF11F8081EA
:102560001F928F93FF92EF920E9490040F900F9012
:102570000F900F900F5F1F4F0830110549F78091A2
:10258000320280FF0AC08CE095E0DF91CF911F916D
:102590000F91FF90EF900C94F703DF91CF911F9173
:1025A0000F91FF90EF900895DC01E091AD01F09163
:1025B000AE01309739F082E08C930480F581E02DF4
:1025C000CD01099408952091AB013091AC012817F9
:1025D000390771F09093AC018093AB01E091AD01AC
:1025E000F091AE01309721F00680F781E02D09943B
:1025F00008952091A9013091AA012817390771F097
:102600009093AA018093A901E091AD01F091AE01F0
:10261000309721F00084F185E02D099408950E94FF
:10262000BF206093B9017093BA018093BB0190936E
:10263000BC016093B5017093B6018093B70190938C
:10264000B801089585B7806885BF85B7806885BF64
:102650000895089508950C94291308950C942D134A
:102660000E94221389E293E20E9423210E942A13EE
:102670000C942B1381E008950C943A130895089557
:102680000E94AA200E9400080E9428210E94BC0FDC
:102690000C942E13CF93C82F8091320282FF1EC05C
:1026A00080FF1CC08DE295E00E94F703809132020A
:1026B00080FF14C01F92CF9388E295E09F938F9381
:1026C0000E949004809132020F900F900F900F9013
:1026D00080FF04C086E295E00E94F7038C2FCF9123
:1026E0000C947805AF92BF92CF92DF92EF92FF9257
:1026F0000F931F93CF93DF9300D000D00F92CDB7ED
:10270000DEB70E943E130E943F130E9435088111DC
:102710000E940F1380EBA82E81E0B82E10E000E09D
:10272000C02E802F0E949307F82EF501E1905F01E3
:10273000E81609F44CC08091320281FD0E9499078D
:102740008E2D8F25D12CEE24E394982F9E21D1F14C
:102750000E943C13882399F0D982CA82FE2081E02E
:1027600009F480E08B830E94B3208160782F9D83E1
:102770008C8349815A816B818D810E940E14F801EE
:10278000E055FE4F8081E826E0820E94D90A0E942F
:102790006D129091AF01891789F10E946D1280939B
:1027A000AF010F900F900F900F900F90DF91CF918E
:1027B0001F910F91FF90EF90DF90CF90BF90AF905F
:1027C0000C944A13D394EE0CF4E0DF12BECF0F5FEB
:1027D0001F4F0530110509F0A3CF8FEF89838A833E
:1027E0001B820E94B3208160782F9D838C83498156
:1027F0005A816B818D810E940E14C7CF0F900F906C
:102800000F900F900F90DF91CF911F910F91FF903C
:10281000EF90DF90CF90BF90AF900895DF92EF924E
:10282000FF920F931F93CF93DF93CDB7DEB72B9714
:102830000FB6F894DEBF0FBECDBF7A878B87F42E1C
:10284000052F162FE72ED82E61110E94141E7E2D03
:10285000EC82DD824F2D502F612F8D2D90E02B9635
:102860000FB6F894DEBF0FBECDBFDF91CF911F91A1
:102870000F91FF90EF90DF900C94101AFC01808173
:1028800091810C94971DCF93C82F882309F446C0DB
:102890008CEF8C0F813AA0F46C2F80910D019091F8
:1028A0000E010E94631F882329F08C2F0E94D41DE3
:1028B0000E94411E8C2F0E94CD1DCF910C94411E71
:1028C00080E28C0F883048F4C77081E001C0880F27
:1028D000CA95EAF70E94F51DF0CF8BE58C0F833087
:1028E00038F42C2F2452330BC901CF910C94E312EE
:1028F000E8E5EC0FE73150F4F0E0EE0FFF1FED5A82
:10290000FE4F80819181CF910C94F912CD3E30F031
:102910008C2F0E946A09CF910C943D0ACF910895A3
:10292000882361F19CEF980F913A20F40E94D41D06
:102930000C94411E90E2980F983050F4877091E00B
:1029400001C0990F8A95EAF7892F0E94FB1DF0CFED
:102950009BE5980F933020F490E080E00C94E31214
:1029600098E5980F973120F490E080E00C94F912EC
:102970008D3E20F00E94C4090C943D0A08951F93D7
:10298000CF93DF93182FEB010E944314209731F46B
:10299000812FDF91CF911F910C9490148FE99FE0CC
:1029A0000197F1F700C000002197F0CF64E170E0DB
:1029B000893311F460E570E00C94BF14882321F092
:1029C0000E94F51D0C94411E0895882321F00E9459
:1029D000FB1D0C94411E0895AF92BF92CF92DF92DF
:1029E000EF92FF920F931F93CF93DF9300D000D00D
:1029F0000F92CDB7DEB76C016D837983FC01128134
:102A0000058102950F700E94EB1DE82E8823A1F02E
:102A1000E12E112389F08981807F803429F08D8116
:102A2000805EE12C883040F082E00E948C1E0E9483
:102A3000EB1D91E0E82EE926A980A2949FE0A9224F
:102A4000B12CF501E657F64D0C940A2909810F7057
:102A5000F981F07F11F00295007F1123B1F000237E
:102A600061F08D81805E883018F02D81211109C0C0
:102A7000802F0E94F51D0E94411E8D810E944314EB
:102A800015C0802F0E94061EF6CF8D810E949014E3
:102A9000002361F08D81805E883018F04D814111F6
:102AA00033C0802F0E94FB1D0E94411E88E0A81A9F
:102AB000B10894E0A916B10420F40E946D120E949E
:102AC0007805EE2009F4E4C10E94E71D80FDE0C115
:102AD000F60112820E94E11D0E94F01BC6010E94B5
:102AE0006F170E94E11D0F900F900F900F900F90A5
:102AF000DF91CF911F910F91FF90EF90DF90CF90DA
:102B0000BF90AF900C94211C802F0E940C1ECCCF44
:102B100059815F70F52E6981607F603219F0F294FF
:102B200080EFF8227D81772369F0713049F111231C
:102B300091F1002351F1F601858180FF9ECF8F70C6
:102B4000858323C0112381F0011106C00E94281E35
:102B50008F290E94DE14AACF0130C1F70E94281EDF
:102B60008F290E942E1EA2CF011106C00E94371E7F
:102B70008F2D0E94E5149ACF013009F497CFF6CF3C
:102B8000112329F0063008F091CF8F2DE2CF0530C8
:102B900008F08CCFEDCF002359F3FD81F93369F4B0
:102BA0002FEF47EE53E0215040405040E1F700C086
:102BB00000008D810E94901479CF6FEF79EF80E053
:102BC000615070408040E1F7F2CF8981869586950B
:102BD000837069F0813009F069CF8D81998193709C
:102BE000111102C090E080E00E94F9125FCF8D8148
:102BF00099819370111102C090E080E00E94E3126D
:102C000055CF8D81112329F00E946A090E943D0A47
:102C10004DCF0E94C409FACF8981837009F059C051
:102C2000111144CF4D81429546954770440F440F92
:102C30008D818F7090E0B0E0A0E0042E04C0880F7A
:102C4000991FAA1FBB1F0A94D2F7ED8100E010E084
:102C50009801E4FF0FC00FE010E020E030E004C076
:102C6000000F111F221F331F4A95D2F700951095B0
:102C700020953095F981F695F695F370FD83B901AD
:102C8000A801482B592B6A2B7B2B49835A836B83D2
:102C90007C83F23081F0F330A9F0F13029F0CB01E0
:102CA000BA010E94661B02CF69817A818B819C8167
:102CB0000E943E1BFBCE69817A818B819C810E94A0
:102CC0008E1BF4CE69817A818B819C810E943C1B92
:102CD000EDCE8695112311F089818170882309F446
:102CE000E5CE4D81429546954770440F440F8D8146
:102CF0008F7090E0B0E0A0E0042E04C0880F991F10
:102D0000AA1FBB1F0A94D2F75D8100E010E0980172
:102D100054FF0FC00FE010E020E030E004C0000FCF
:102D2000111F221F331F4A95D2F700951095209549
:102D3000309569816695669563706D83B901A801C8
:102D4000482B592B6A2B7B2B49835A836B837C83BB
:102D50005D8169817A818B819C81523051F0533041
:102D600059F0513019F00E94AF1CA0CE0E94871C70
:102D70009DCE0E94D71C9ACE0E94BA1B97CE698125
:102D80006F706983112329F0862F0E94F01B8D81BB
:102D9000E0CE8D810E94E51489810E94211C86CE9F
:102DA0007D81723FA1F160F4703FE1F0713F41F12C
:102DB000112309F445C0011160CE89818F7124C0AF
:102DC0008D81833F49F1843F99F7112379F19981EE
:102DD0009F719983892F0E94F01B63E089810E9473
:102DE000771E64CE112341F0053008F05FCE898153
:102DF0008F710E94561C5ACE063008F057CEF7CF7E
:102E000089818F71112349F20E94F01B4FCE898175
:102E10008F711123C9F3C1CF112329F089818F71DB
:102E20000E94CB1B43CE0E94C61B40CE81E00E9475
:102E30008C1E023008F43ACE82E00E948C1E36CE00
:102E4000002399F0ED81E93341F4FFEF27EE43E0F1
:102E5000F15020404040E1F7AACE5FEF69EF70E00B
:102E6000515060407040E1F7A2CE89818F7195CFBB
:102E700049814F706D81C6010E9480050E94B01A81
:102E800015CE49814F706D81C6010E9483050ECE1B
:102E90000F900F900F900F900F90DF91CF911F9197
:102EA0000F91FF90EF90DF90CF90BF90AF9008957B
:102EB0000F931F93CF93DF93EC01688179818A810F
:102EC0000E94A31D8C010E94FF1C0E943B1BB801A5
:102ED000CE01DF91CF911F910F910C94EC14CF9301
:102EE000DF93EC018B819C81892B29F0888199816A
:102EF00089238F3F59F4DF91CF910895CE010E942D
:102F00005817CE01DF91CF910C94DE04CE010E94C0
:102F100005058111F3CF0E94EB1D882361F38A819F
:102F2000882349F382E0DF91CF910C948C1E90E0CE
:102F300080E00E94E31290E080E00E94F9120E947B
:102F4000141E0E94251E0E94411E0E94E90B0C9433
:102F50003D0A0E94DB1D0C9497170E94031E0C94DF
:102F6000A917282F892F82958F70903C80F48A3082
:102F7000B0F4843020F4823090F480E008958630FC
:102F8000E1F781E0283E88F0213FB9F70EC08C3090
:102F900011F08F3091F793FB882780F9089581E035
:102FA000203F39F018F4283E40F70895243F29F7D0
:102FB000FCCF08950E94971D0C94B117CF93DF9317
:102FC00000D000D00F92CDB7DEB70F900F900F90CA
:102FD0000F900F90DF91CF910895CF93DF9300D0A2
:102FE00000D000D0CDB7DEB726960FB6F894DEBF7E
:102FF0000FBECDBFDF91CF9108951F93CF93DF9385
:10300000E091BE0116E08091BF018E1304C0DF91F4
:10301000CF911F910895CE2FD0E01E9FF001112473
:10302000E054FE4F4081518162817381848195819A
:103030000E94ED17FE013196E770E5CF4091F00157
:103040005091F1016091F2017091F3018091F401CE
:103050009091F5010C94ED171F93CF93DF9380911E
:10306000F501807FA9F48091F201882389F0809195
:10307000BE01C091BF016091F0017091F101A0917A
:10308000F301B091F401D62FD72316E0C81304C082
:10309000DF91CF911F91089590E0109711F0DF3FDD
:1030A00019F401968770F2CF189F9001199F300D87
:1030B0001124F901E054FE4F41814713F2CF4081C2
:1030C0004613EFCF42814111ECCF438154814A1B1B
:1030D0005B0B483C510528F78091F5018F708061AA
:1030E0008093F501F901EB53FE4F80818F70806171
:1030F000808380EF91E00E946F17DF91CF911F9145
:103100000C94FD17AF92BF92CF92DF92EF92FF9295
:103110000F931F93CF93DF93CDB7DEB72B970FB6E7
:10312000F894DEBF0FBECDBF8C0185E0F801DE0153
:10313000179601900D928A95E1F7F801408151812F
:10314000E28080EFC82E81E0D82E6091F30170916B
:10315000F4016115710509F444C19091F0012091C9
:10316000F101822F89238F3F09F43BC1A380B480F2
:10317000F090F201F501E61BF70BFF2009F4E0C027
:103180008091F501382F307FE83CF10508F0B2C09E
:10319000311179C0FE2C251323C0941321C0E110F6
:1031A0001FC08F7080618093F5010E941E18C601B8
:1031B0000E946F178091F501F80185838F2D2B9662
:1031C0000FB6F894DEBF0FBECDBFDF91CF911F9138
:1031D0000F91FF90EF90DF90CF90BF90AF90089548
:1031E000AB2829F0842F85238F3F09F016C180E09A
:1031F000F82FF170DF2EE091BE012091BF0136E083
:1032000080FD1CC0EE20D1F28091F5018160809399
:10321000F501F12CD3CF8E2F90E03E9FF0011124C9
:10322000E054FE4F6181651306C06081641303C0E2
:103230006281E612E7CFFC013196E770E213EBCF33
:103240004F8358878F8198850E94971D292F22953B
:103250002F70903260F0225F2F70223078F49F70D0
:1032600051F0F8019581907F31F4D12C0AC09F7004
:1032700011F08823D1F3805E8830B8F3C8010E9432
:103280006F17FD2C9BCF251306C0941304C0F801C3
:10329000EE2009F470C04F8358878F8198850E9473
:1032A000DA17882319F1EE2009F18091F5018032B7
:1032B00070F02091F0013091F1013A8329831B8253
:1032C000BD82AC828E83CE0101960E946F1786E08C
:1032D000F801A0EFB1E001900D928A95E1F70E940C
:1032E0002C180E941E18FF24F39468CFC8010E9476
:1032F0006F17F9CF311113C07A2DBB86AA866E2DB8
:103300008B850E94DE1780EF91E00E946F1786E0A8
:10331000F60111928A95E9F70E941E187ACF2513BB
:10332000BACF9413B8CFE110B6CFF8018583C801A6
:103330000E946F1786E0F60111928A95E9F73ECF59
:10334000E83CF10508F040C0FE2CEE2079F2251390
:103350002AC0941328C08091F50180FD1BC0982FCE
:10336000907FC1F0F8018583903F31F0982F907FD6
:10337000905F8F70892B8583C8010E946F1786E04C
:10338000F801A0EFB1E001900D928A95E1F70E945B
:103390001E1814CF86E0F801A0EFB1E001900D9265
:1033A0008A95E1F70BCF4F8358878F8198850E94CC
:1033B000DA1781118CCF8091F50181608093F5013E
:1033C000C8010E946F17FACE7A2DBB86AA866E2D91
:1033D0008B850E94DE1786E0F60111928A95E9F747
:1033E000D6CFEE2009F482CF4F8358878F819885FE
:1033F0000E94DA17F82E882309F478CF86E0F801C6
:10340000A0EFB1E001900D928A95E1F780EF91E095
:103410000E943E140E942C18BACF81E08E25E8CE7F
:103420001F93CF93DF93CDB7DEB72C970FB6F894E9
:10343000DEBF0FBECDBF4F83588769877A878B87E2
:103440009C87CE0107960E948218882369F08A859E
:103450009B85892B39F04F815885842F85238F3F99
:1034600009F077C016E065C086E0FE013796DE0100
:10347000119601900D928A95E1F76A857B85611519
:10348000710581F35F814885842F85238F3F51F338
:103490002091BF0130E0C901019687709927E09122
:1034A000BE01E817190671F40E94AD171092BF0112
:1034B0001092BE0186E0E0EFF1E0DF011D928A95F7
:1034C000E9F7D0CF59834A837D836C8396E0929F3E
:1034D000D001939FB00D1124A054BE4FFE01319630
:1034E00001900D929A95E1F78093BF010E94FD171C
:1034F000B9CF819FC001112480549E4F0E94821831
:103500008823E9F0E091BE011E9FF0011124E054F0
:10351000FE4F4081518162817381848195810E9437
:10352000ED178091BE0190E00196877099278093F6
:10353000BE018091BE019091BF018913DACF2C9614
:103540000FB6F894DEBF0FBECDBFDF91CF911F91B4
:10355000089569857A858B859C850E94ED1782CFB9
:10356000EF92FF920F931F93CF93DF938C01892BE0
:1035700089F0F12CEE24E394E8012196F80184917E
:10358000843709F457C0A0F4823009F43EC048F4EF
:103590008130D1F0DF91CF911F910F91FF90EF908B
:1035A00008959CEF980F9037A8F70E9443140AC023
:1035B000853709F44CC09CE7980F903758F78F7700
:1035C0000E9490148E0116C00E5F1F4FFE01849161
:1035D00090E2980F983060F48770FE2D01C0FF0FC5
:1035E0008A95EAF78F2F0E94171E0E94411E02C083
:1035F0000E9443148F2D815008F4BECFEFE9FFE005
:103600003197F1F700C00000F6CF0E5F1F4FFE01AB
:10361000849190E2980F983050F48770FE2D01C08D
:10362000FF0F8A95EAF78F2F0E941D1EDECF0E94A2
:103630009014E0CF0E5F1F4FFE01C491C150D0F235
:103640008FE99FE00197F1F700C00000F7CF0E5F10
:103650001F4FFE01F490CECF08950C942C1B0E94B6
:103660002D1B6093090270930A0280930B029093C2
:103670000C020C94971708950C942F1BCF93DF9393
:1036800000D000D0CDB7DEB769837A838B839C836B
:103690008091090290910A02A0910B02B0910C0254
:1036A00029813A814B815C81282B392B4A2B5B2B5A
:1036B00029833A834B835C83CA01B9010F900F9031
:1036C0000F900F90DF91CF910C942F1BCF93DF932E
:1036D00000D000D0CDB7DEB769837A838B839C831B
:1036E0008091090290910A02A0910B02B0910C0204
:1036F00029813A814B815C81282339234A235B232A
:1037000029833A834B835C83CA01B9010F900F90E0
:103710000F900F90DF91CF910C942F1BCF93DF93DD
:1037200000D000D0CDB7DEB769837A838B839C83CA
:103730008091090290910A02A0910B02B0910C02B3
:1037400029813A814B815C81282739274A275B27C9
:1037500029833A834B835C83CA01B9010F900F9090
:103760000F900F90DF91CF910C942F1B0C942C1B7A
:103770000C94B61B0E94B81B60930502709306025E
:1037800080930702909308020C94971760E070E012
:10379000CB010C94BA1B0F931F93CF93DF9300D0F0
:1037A00000D0CDB7DEB741E050E060E070E08A01C4
:1037B0009B0104C0000F111F221F331F8A95D2F7EF
:1037C00009831A832B833C83C901B8010F900F90A2
:1037D0000F900F90DF91CF911F910F910C94BA1B16
:1037E0000F931F93CF93DF9300D000D0CDB7DEB7F8
:1037F00041E050E060E070E004C0440F551F661FD8
:10380000771F8A95D2F78091050290910602A091C8
:103810000702B09108028A019B01082B192B2A2B61
:103820003B2B09831A832B833C83C901B8010F907A
:103830000F900F900F90DF91CF911F910F910C94EB
:10384000BA1B0F931F93CF93DF9300D000D0CDB757
:10385000DEB741E050E060E070E004C0440F551F67
:10386000661F771F8A95D2F74095509560957095A1
:103870008091050290910602A0910702B091080282
:103880008A019B01082319232A233B2309831A83D6
:103890002B833C83C901B8010F900F900F900F90BC
:1038A000DF91CF911F910F910C94BA1B0F931F932F
:1038B000CF93DF9300D000D0CDB7DEB741E050E02A
:1038C00060E070E004C0440F551F661F771F8A95A3
:1038D000D2F78091050290910602A0910702B09163
:1038E00008028A019B01082719272A273B270983F9
:1038F0001A832B833C83C901B8010F900F900F905E
:103900000F90DF91CF911F910F910C94BA1BCF9321
:10391000DF9300D000D0CDB7DEB769837A838B8385
:103920009C838091050290910602A0910702B091BC
:10393000080229813A814B815C81282B392B4A2B43
:103940005B2B29833A834B835C83CA01B9010F90B7
:103950000F900F900F90DF91CF910C94BA1BCF93E3
:10396000DF9300D000D0CDB7DEB769837A838B8335
:103970009C838091050290910602A0910702B0916C
:10398000080229813A814B815C81282339234A230B
:103990005B2329833A834B835C83CA01B9010F906F
:1039A0000F900F900F90DF91CF910C94BA1BCF9393
:1039B000DF9300D000D0CDB7DEB769837A838B83E5
:1039C0009C838091050290910602A0910702B0911C
:1039D000080229813A814B815C81282739274A27AF
:1039E0005B2729833A834B835C83CA01B9010F901B
:1039F0000F900F900F90DF91CF910C94BA1B089508
:103A0000E92FEE0FEE0FE80F8E2F877041E001C017
:103A1000440F8A95EAF7E695E695E69585E0E89FF6
:103A2000F0011124EA50FE4F30E020E070E05191A7
:103A3000DF011197CB01022E02C0969587950A945B
:103A4000E2F7817081958527842385278C932F5FEA
:103A50003F4F2530310559F70895E92FEE0FEE0F4E
:103A6000E80F9E2F9770E695E695E69585E0E89F2E
:103A7000F0011124EA50FE4F50E040E080E0219137
:103A800030E0092E02C0369527950A94E2F721709E
:103A90003327042E01C0220F0A94EAF7822B4F5FCE
:103AA0005F4F4530510559F70895BF92CF92DF928D
:103AB000EF92FF920F931F93CF93DF938C01C090EF
:103AC0000502D0900602E0900702F0900802809173
:103AD000090290910A02A0910B02B0910C02C82A2F
:103AE000D92AEA2AFB2ACFE1D0E0BC2ED701C601B1
:103AF0000C2E04C0B695A795979587950A94D2F792
:103B000080FD0EC0219788F7B12C8B2DDF91CF91CE
:103B10001F910F91FF90EF90DF90CF90BF9008958D
:103B2000B8018C2F0E94A005019761F3EECFCF93CF
:103B3000DF93D82FC92F0E94551D6D2F7C2FDF9149
:103B4000CF910C94A0051F93CF93DF93162FD72FFF
:103B50009091BD01992339F0862F972FDF91CF9156
:103B60001F910C94971D882391F0862F972F0E9408
:103B7000551DC82F682F812F9D2F0E94001D612F7A
:103B80007D2F8C2FDF91CF911F910C94A005862F54
:103B9000972F0E942D1DC82FF2CF682F80910D0105
:103BA00090910E010C940920682F80910D01909145
:103BB0000E010C94142080910D0190910E010C9433
:103BC0001F2080910D02859585958595089580919A
:103BD0000D028770089590910D02977081E009F4AD
:103BE00080E0089580913102089590913102982BE0
:103BF000909331020895982F9095809131028923F6
:103C0000809331020895109231020895909130020C
:103C1000982B909330020895982F909580913002C0
:103C20008923809330020895109230020895909174
:103C30002F02982B90932F020895982F90958091A2
:103C40002F02892380932F02089510922F02089546
:103C500080910E02089508950C942B1E90910E02EF
:103C6000981721F080930E020C942C1E08958091D9
:103C70000E02882329F010920E0280E00C942C1E74
:103C80000895E0910D01F0910E0180913102808341
:103C9000E0910D01F0910E01808190913002892B0D
:103CA0008083E0910D01F0910E01808190912F02AF
:103CB000892B808390910E02992381F0E0910D0170
:103CC000F0910E018081892B808380910D0190916C
:103CD0000E010E944F1F81110E94371E80910D011D
:103CE00090910E010C94791208950C94741E98E032
:103CF000899F90011124622B60930D020E94F01B9A
:103D000080910D028595859585950C94751E109270
:103D10000D0280E00C94751E90910D028095892310
:103D200080930D02282F277071F4282F082E000C85
:103D3000330B9217130639F08595859585950E946A
:103D4000211C0C94871E089590E080E00E941E299B
:103D50009C0181E02B3E3E4F09F080E0089582E017
:103D600090E00C94102983E090E00C941029CF93FC
:103D700084E090E00E941029C82F81E290E00E9428
:103D80001029982F8C2FCF910895CF93682FC92F8A
:103D900084E090E00E9424296C2F81E290E0CF9192
:103DA0000C942429AB01BC018FE090E00C943629DF
:103DB000AB01BC0183E190E00C94362960E070E037
:103DC000CB010C94D81E60E070E0CB010E94D21EA3
:103DD0000C94DE1E6BEE7EEF90E080E00E944229A4
:103DE00060E082E090E00E94242960E083E090E0BF
:103DF0000E9424291092090210920A0210920B02CA
:103E000010920C0260E084E090E00E94242960E0BF
:103E100081E290E00E94242960E085E090E00E9429
:103E2000242960E086E090E00E9424296FEF87E07B
:103E300090E00E94242940E050E0BA0188E090E040
:103E40000E94362960E08DE090E00E94242940E045
:103E500050E0BA0188E190E00E94362960E087E1F5
:103E600090E00E94242940E050E0BA018CE190E00B
:103E70000E94362960E080E290E00E94242940E020
:103E800050E0BA0188E190E00E9436290C94E31ECC
:103E90000C94EA1E682F8EE090E00C942429FC011B
:103EA000329680911901882321F0809178029EE159
:103EB00087FF96E080E0915008F408952191222335
:103EC000D1F38F5FF8CF9C01662301F18091190136
:103ED0008823F1F08091780287FF1AC0462F46951B
:103EE00046954695603F90F4677081E090E002C08F
:103EF000880F991F6A95E2F7240F311DF90122817D
:103F000030E02823392381E0232B71F480E00895E9
:103F1000F9013296285F3F4F8191861721F0E21711
:103F2000F307D1F7F3CF81E008959C01FC013296AD
:103F30008FEF90E04191461751F08F3F19F44111F6
:103F400001C0892F9F5F9630A9F78F3F09F408952C
:103F5000280F311D87FD3A95F901628308959C0170
:103F6000FC013296285F3F4F8191861303C0DF0129
:103F700011971C92E217F307B9F70895E62FE6951B
:103F8000E695E695603F70F4E80FF92FF11D677034
:103F900021E030E001C0220F6A95EAF78281822B8E
:103FA000828308958091320280FF0CC01F926F932C
:103FB0008EE595E09F938F930E9490040F900F9051
:103FC0000F900F900895E62FE695E695E695603FF1
:103FD00078F4E80FF92FF11D677081E090E001C0DF
:103FE000880F6A95EAF780959281892382830895E4
:103FF0008091320280FF0CC01F926F9380E495E0A5
:104000009F938F930E9490040F900F900F900F90AA
:10401000089520911901222329F02091780227FD8B
:104020000C94BE1F0C94951F20911901222329F096
:104030002091780227FD0C94E31F0C94AF1FFC0124
:10404000329680911901882351F08091780287FF80
:1040500006C08EE1DF011D928A95E9F7089586E09A
:10406000F9CF089508950C94322080917E02843017
:1040700049F10E94332080E00E94780510923302BB
:1040800088E190E020E40FB6F894A8958093600052
:104090000FBE2093600083B7817F846083BF83B7A6
:1040A000816083BF7894889583B78E7F83BF0FB676
:1040B000F894A895809160008861809360001092C8
:1040C00060000FBE08950895CF930E9431200E9492
:1040D00035080E946320C0E08C2F0E949307811155
:1040E00005C0CF5FC530C1F7CF91089581E0FCCF07
:1040F00008950C9478200E94AD170E946D120E94C2
:1041000078050C9479201F921FB61F9211248F936B
:104110009F93AF93BF9380913302811113C080911D
:10412000740290917502A0917602B0917702419647
:10413000A11DB11D8093740290937502A093760225
:10414000B0937702BF91AF919F918F911F901FBE47
:104150001F90189582E084BD93E095BD9AEF97BDBE
:1041600080936E0008952FB7F89480917402909117
:104170007502A0917602B09177022FBF0895CF9378
:10418000DF9300D000D0CDB7DEB78FB7F894209181
:104190007402309175024091760250917702298322
:1041A0003A834B835C838FBF69817A818B819C8149
:1041B0000F900F900F900F90DF91CF9108959C0179
:1041C0004FB7F8948091740290917502A091760295
:1041D000B09177024FBF821B930B089578941F9282
:1041E0001FB61F9211248F939F93AF93BF9380911B
:1041F000740290917502A0917602B09177020196B7
:10420000A11DB11D8093740290937502A093760254
:10421000B0937702BF91AF919F918F911F901FBE76
:104220001F90189587E797E79093010880930008FF
:1042300088E19AE00FB6F894A895809360000FBECD
:1042400090936000FFCF9093910180939001089527
:10425000CF93DF9300D000D0CDB7DEB70E94A41E6D
:10426000811102C00E94481F0E94AF1E809332023B
:104270000E94B71E90937902809378020E94B31E29
:10428000282F30E050E040E0CA01B9010E943C1BF9
:104290008091050290910602A0910702B091080258
:1042A00089839A83AB83BC83BC01CD010F900F90AF
:1042B0000F900F90DF91CF910C94B81B8091570213
:1042C0000895CF93DF9300D00F92CDB7DEB79091D2
:1042D0007E02943019F589836A837B8382E0809320
:1042E000E9008FEF9091E800815095FD06C095EDB3
:1042F0009A95F1F700008111F5CF8091E80085FFD4
:104300000DC050E040E063E070E0CE0101960E94F5
:104310004F248091E8008E778093E8000F900F90F3
:104320000F90DF91CF910895BC0184E00C9461213E
:10433000BC0183E00C94612122E02093E9002FEF7F
:104340003091E800215035FD06C035ED3A95F1F782
:1043500000002111F5CF2091E80025FF0BC050E0AF
:1043600040E066E070E00E944F248091E8008E7784
:104370008093E8000895CF93DF93D82FC92F8091C1
:1043800019018823C1F18091780287FF34C060E26F
:1043900082E08093E9008FEF9091E800815095FDD5
:1043A00006C095ED9A95F1F700008111F5CF809147
:1043B000E80085FF1DC08091190170E050E040E0E9
:1043C000811104C050E040E068E070E08D2F9C2F28
:1043D0000E944F248091E8008E778093E80080E26D
:1043E000ED2FFC2FA7E3B2E001900D928A95E1F743
:1043F000DF91CF91089568E081E0CBCF81EA95E02D
:104400000E94F70380917D02811109C00E94D72587
:104410000E9434268091E20084608093E200089537
:104420008DE995E00E94F70310927D02089589E9D5
:1044300095E00C94F70385E995E00C94F70381E986
:1044400095E00C94F703209135022F5F822F62E3F1
:104450000E94D628992319F02093350208951092CE
:104460003502809136028823F1F080917E028430FB
:10447000C1F49091E9009F702091EC00822F81702F
:1044800020FD80E8892B93E09093E9009091EB0068
:1044900090FF04C09091EE0097FD08C08F7080934C
:1044A000E9001092360208951092F1009091E80010
:1044B00095FDFACF9091E80090FFF0CF9091E80041
:1044C0009E779093E800EACF42E061EC81E00E94A1
:1044D000532542E261EC82E00E94532542E261EC06
:1044E00083E00C94532580918002893089F148F44F
:1044F000823009F49DC0833009F458C0813041F006
:1045000008958A3009F484C08B3009F46AC0089594
:1045100080917F02813A09F048C08091E800877F4E
:104520008093E8008091830290918402892B61F44A
:1045300060E287E392E070E00E949E248091E800B0
:104540008B778093E800089560E090E080E0F3CFFF
:1045500080917F02813249F580918302909184029B
:10456000029718F58091E800877F8093E80080919A
:10457000E80082FF16C09091F3008091F20002974C
:1045800029F48091F1008B7F813021F48091F1003A
:10459000809357028091E8008B778093E8000C9419
:1045A000872580917E028111E2CF089580917F025C
:1045B000813AD9F78091830290918402892BA9F7DF
:1045C0008091E800877F8093E8008091E80080FF79
:1045D000FCCF809119018093F1008091E8008E77E3
:1045E000DCCF80917F02813201F78091830290912C
:1045F0008402892BD1F68091E800877F8093E800C0
:104600000E94872580918102809319010C94AD1737
:1046100080917F02813249F68091E800877F809304
:10462000E8000E94872580918202809358020895B5
:1046300080917F02813A09F0B8CF8091E800877FAE
:104640008093E8008091E80080FFFCCF80915802C1
:10465000C2CF9FB7F894109236029FBF90917E020E
:10466000943009F048C02091E9002F703091EC009F
:10467000932F917030FD90E8922B23E02093E90076
:104680002091EB0020FF34C02091EE0027FF30C0C6
:1046900020913402222321F02091E80025FF28C038
:1046A0001092340226E03091E80035FF14C0809368
:1046B000F1008091E80085FD27C08091E80080FF2F
:1046C000FCCF8091E8008E778093E8009F709093F4
:1046D000E90080E0089530917E02343049F4309151
:1046E000EB0035FD05C0215041F481E08093340298
:1046F0009F709093E9008FEF0895EFE9FFE0319705
:10470000F1F700C00000CFCF8FB7F89421E02093DD
:1047100036028FBFDBCF84B7877F84BF0FB6F89494
:10472000A89580916000886180936000109260007D
:104730000FBE80E890E00FB6F894809361009093EC
:1047400061000FBE0E9430130E94D7250E943426BC
:104750008091E20084608093E20078940E94BB28FC
:104760000E9440138FE091E00E94681280E895E07B
:104770000E94F70380917E02853051F48CE795E02A
:104780000E94F70380917E02853049F00E947B20D1
:104790000E9472130E943E130E943F13EBCF0E94AF
:1047A000352080917C02882369F30E94642088234D
:1047B00049F30E9439240E94AD17E4CF0C94E02302
:1047C000FC01CB01DA012F2F332723303105D1F043
:1047D00070F42130310509F447C02230310569F405
:1047E0008BE590E02FEB35E02D933C93089521323B
:1047F0003105E9F02232310539F190E080E030E016
:1048000020E0F2CFCF019927E13059F082309105B5
:1048100059F0EBEBF5E0892B81F7849190E09F0153
:10482000E3CFEFEAF5E0F9CFE5EAF5E0F6CF633064
:10483000710518F7880F991FFC01E657FE4F20817C
:10484000318189E090E0D0CF63307105B0F6FB0193
:10485000EE0FFF1FEC57FE4F208131818F579E4F87
:10486000FC01808190E0C0CF82E190E02AE136E057
:10487000BBCF80E189BD82E189BD09B400FEFDCFD7
:104880008091D8008F7D8093D8008091E000826075
:104890008093E0008091E00081FDFCCF0895AF920D
:1048A000BF92CF92DF92FF920F931F93CF93DF932C
:1048B0006C01EB018A010E94A625F82E811123C00C
:1048C0000115110539F0F80180819181C81BD90BC0
:1048D000C80ED91EB12CA12C2097A9F08091E80018
:1048E00085FD22C08091E8008E778093E800011555
:1048F0001105A1F0F80180819181A80EB91EB18245
:10490000A08285E0F82E8F2DDF91CF911F910F911E
:10491000FF90DF90CF90BF90AF9008950E94A625A2
:104920008823D1F2F82EEFCFF60181916F018093A9
:10493000F1002197FFEFAF1ABF0ACECFFC01CB01E8
:1049400020918502309186022617370790F0009754
:1049500029F42091E8002E772093E80040E00097AA
:1049600051F4411108C08091E80082FF31C080E01D
:104970000895C901F3CF20917E022223A9F12530A9
:10498000A9F12091E80023FD2DC02091E80022FD2F
:10499000EACF2091E80020FFE2CF3091F300209190
:1049A000F200009719F02830310558F041E0283026
:1049B000310509F040E02091E8002E772093E800CF
:1049C000CECF41914093F10001972F5F3F4FE9CF48
:1049D00080917E02882341F0853041F08091E8008B
:1049E00083FFC1CF81E0089582E0089583E00895B8
:1049F000FC01CB01209185023091860226173707F2
:104A000090F0009729F42091E8002E772093E80099
:104A100040E0009751F4411108C08091E80082FF06
:104A200032C080E00895C901F3CF20917E02222395
:104A3000B1F12530B1F12091E80023FD2EC0209185
:104A4000E80022FDEACF2091E80020FFE2CF30917C
:104A5000F3002091F200009719F02830310558F04A
:104A600041E02830310509F040E02091E8002E7740
:104A70002093E800CECF44914093F1003196019706
:104A80002F5F3F4FE8CF80917E02882341F0853031
:104A900041F08091E80083FFC0CF81E0089582E07B
:104AA000089583E00895982F973028F08F708093B1
:104AB000E90081E008959093E900242F762F50E0DB
:104AC000981731F07091EC002091ED005091F000BA
:104AD00021FD02C09F5FE8CF3091EB003E7F309315
:104AE000EB003091ED003D7F3093ED003091EB0015
:104AF00031603093EB007093EC002093ED00509305
:104B0000F0002091EE0027FDE5CF80E00895809130
:104B10007F0287FF13C08091E80082FF06C080916A
:104B2000E8008B778093E80004C080917E028111B9
:104B3000F2CF089580917E028823D9F38091E80016
:104B400080FFF8CF8091E8008E77ECCF2091E400D1
:104B50003091E50095E6A9012091EC00822F81704B
:104B600020FF06C08091E80080FF06C080E0089525
:104B70002091E80022FD1AC080917E02882389F0EE
:104B8000853089F08091EB0085FD0FC02091E40015
:104B90003091E50042175307F9F29150E1F684E0B5
:104BA000089582E0089583E0089581E008950E94C9
:104BB00045260E944D26E0EEF0E0808181608083F2
:104BC000E8EDF0E080818F77808319BCA7EDB0E03D
:104BD0008C918E7F8C9380818F7E808310927D025A
:104BE00008950F931F93CF93DF930E9445260E9451
:104BF0004D26C8EDD0E088818F77888388818068D2
:104C0000888388818F7D888319BC10927E021092E0
:104C10007A0210927C0210927B0200EE10E0F80102
:104C200080818B7F808388818160888342E060E01F
:104C300080E00E945325E1EEF0E080818E7F80834A
:104C4000E2EEF0E0808181608083808188608083F3
:104C5000F80180818E7F8083888180618883DF91E5
:104C6000CF911F910F910895E8EDF0E080818F7E44
:104C70008083E7EDF0E080818160808384E082BF03
:104C800081E080937D020C94F125E8EDF0E08081D5
:104C90008E7F80831092E20008951092DA001092C5
:104CA000E10008951F920F920FB60F9211242F93D7
:104CB0003F934F935F936F937F938F939F93AF93A4
:104CC000BF93EF93FF938091E10082FF0BC080912F
:104CD000E20082FF07C08091E1008B7F8093E100BA
:104CE0000E9423228091DA0080FF19C08091D800B1
:104CF00080FF15C08091DA008E7F8093DA0080916A
:104D0000D90080FF94C080E189BD82E189BD09B4EA
:104D100000FEFDCF81E080937E020E94FE21809103
:104D2000E10080FF19C08091E20080FF15C08091F2
:104D3000E2008E7F8093E2008091E20080618093A8
:104D4000E2008091D80080628093D80019BC85E091
:104D500080937E020E941B228091E10084FF29C083
:104D60008091E20084FF25C080E189BD82E189BD98
:104D700009B400FEFDCF8091D8008F7D8093D800CC
:104D80008091E1008F7E8093E1008091E2008F7E30
:104D90008093E2008091E20081608093E200809144
:104DA0007A02882309F449C084E080937E020E943D
:104DB0001F228091E10083FF29C08091E20083FFE0
:104DC00025C08091E100877F8093E10082E080939D
:104DD0007E0210927A028091E1008E7F8093E10042
:104DE0008091E2008E7F8093E2008091E2008061FA
:104DF0008093E20042E060E080E00E9453258091D1
:104E0000F00088608093F0000E941722FF91EF91DC
:104E1000BF91AF919F918F917F916F915F914F91D2
:104E20003F912F910F900FBE0F901F90189519BCB6
:104E300010927E020E94102272CF8091E30087FDC3
:104E400002C081E0B2CF83E0B0CF1F920F920FB6C5
:104E50000F9211242F933F934F935F936F937F9300
:104E60008F939F93AF93BF93CF93DF93EF93FF9372
:104E7000D091E900DF708091EC00C82FC17080FDF7
:104E8000C0E81092E9008091F000877F8093F000E5
:104E900078940E9469271092E9008091F000886060
:104EA0008093F000CD2BCF70C093E900FF91EF917C
:104EB000DF91CF91BF91AF919F918F917F916F9132
:104EC0005F914F913F912F910F900FBE0F901F90C8
:104ED00018951F93CF93DF93CDB7DEB7AA970FB680
:104EE000F894DEBF0FBECDBF8FE792E0FC010196C4
:104EF0002091F100208322E087389207B9F70E94C1
:104F000073228091E80083FF1EC180917F029091FF
:104F100080029A3008F017C1E92FF0E0E656F64D0E
:104F20000C940A29803899F0823809F00CC18091DC
:104F300083028F70873008F006C18093E90080916A
:104F4000EB0085FB882780F91092E90006C080916C
:104F50007B0290917C02911182609091E800977F92
:104F60009093E8008093F1001092F1008091E800A6
:104F70008E77E5C0882309F4D3C0823009F0E3C0FE
:104F8000809181028111D6C0809183028F702FEFB2
:104F9000280F263008F0D7C08093E9002091EB005D
:104FA00020FFC8C0933031F48091EB008062809381
:104FB000EB00C0C09091EB0090619093EB0021E07A
:104FC00030E001C0220F8A95EAF72093EA001092A0
:104FD000EA008091EB008860EACF8111B4C01091A3
:104FE00081021F778091E3008078812B8093E3001A
:104FF0008091E800877F8093E8000E948725809158
:10500000E80080FFFCCF8091E30080688093E3009C
:1050100082E0111183E080937E0295C08058823037
:1050200008F091C080918102909182028C3D23E032
:105030009207A1F583E08A838AE289834FB7F894C7
:10504000DE01139620E03EE051E2E32FF0E05093C2
:105050005700E49120FF03C0E295EF703F5FEF70CF
:105060008E2F90E0EA30C0F0C7968D939D932F5F0E
:10507000243159F74FBF8091E800877F8093E80083
:105080006AE270E0CE0101960E949E248091E800C1
:105090008B778093E80057C0C096E7CF609183027A
:1050A00070918402AE014F5F5F4F0E94DE23BC010E
:1050B000892B09F448C08091E800877F8093E8003D
:1050C00089819A810E94F824E1CF8038E1F58091AE
:1050D000E800877F8093E80080917A028093F10056
:1050E00045CF811130C090918102923060F580915E
:1050F000E800877F8093E80090937A020E948725DA
:1051000080917A02882311F084E005C08091E30049
:1051100087FDFACF81E080937E020E94642213C053
:1051200080918102813079F481E0933009F080E050
:1051300080937C021092E9008091E800877F809341
:10514000E8000E9487258091E80083FF0AC08091D3
:10515000E800877F8093E8008091EB008062809375
:10516000EB00AA960FB6F894DEBF0FBECDBFDF915D
:10517000CF911F910895CF9380917E028823A1F053
:10518000C091E900CF709091EC00892F817090FD63
:1051900080E8C82B1092E9008091E80083FD0E940E
:1051A0006927CF70C093E900CF910895991B79E0EA
:1051B00004C0991F961708F0961B881F7A95C9F7A7
:1051C00080950895AA1BBB1B51E107C0AA1FBB1FF6
:1051D000A617B70710F0A61BB70B881F991F5A9583
:1051E000A9F780959095BC01CD01089597FB072EF6
:1051F00016F4009407D077FD09D00E94E22807FC3E
:1052000005D03EF4909581959F4F089570956195D6
:105210007F4F0895EE0FFF1F0590F491E02D099444
:10522000F999FECF92BD81BDF89A992780B508956E
:10523000A6E1B0E044E050E00C944A29A8E1B0E0D7
:1052400042E050E00C944A29262FF999FECF92BDF6
:1052500081BDF89A019700B4021639F01FBA20BD3B
:105260000FB6F894FA9AF99A0FBE08950396272F6D
:105270000E9425290E942429252F0E942529242FB8
:105280000C9425290196272F0E9425290C94242966
:10529000DC01CB01FC01F999FECF06C0F2BDE1BDF6
:1052A000F89A319600B40D9241505040B8F70895E5
:1052B000F894FFCF3A10421049104E105310581076
:1052C0005D10621067106C10711076103C103C106D
:1052D0003C103C103C103C103C103C10B311B91178
:1052E000BD11CB11CF11D311D711DD11E511E9118A
:1052F000ED11F111FD110112051209120F122D12FB
:105300001712C111C711F511F911E111131223126E
:1053100036123A122615261588158815E515011638
:10532000561556150C16BF16D016D016381756152A
:10533000561541179227BA27A328BA27A328ED2785
:085340000E28A328652871283E
:105348002808641E140A321E00040004040F025EBA
:1053580021BB219C219821942101E200E900EA0067
:10536800B500B600B700CD008301CC008A019201D8
:1053780094012102230224022502260227022A027E
:10538800B300B4006F0070003534C697F6F73133B8
:10539800320001E200E900EA00B500B600B700CD2E
:1053A800008301CC008A0192019401210223022486
:1053B800022502260227022A02B300B4006F0070F9
:1053C8000040B62204074E062C06D105EA0503065E
:00000001FF
