:100000000C9417030C945E030C945E030C945E0333
:100010000C945E030C945E030C945E030C945E03DC
:100020000C945E030C945E030C94CE2B0C94A12CC8
:100030000C9433250C945E030C945E030C945E03C5
:100040000C945E030C945E030C945E030C945E03AC
:100050000C945E030C949E250C945E030C945E033A
:100060000C945E030C945E030C945E030C945E038C
:100070000C945E030C945E030C945E030C945E037C
:100080000C945E030C945E030C945E030C945E036C
:100090000C945E030C945E030C945E030C945E035C
:1000A0000C945E030C945E030C945E0301535400A5
:1000B00055005600240025002600000021002200E3
:1000C000230057001E001F00200000000000270032
:1000D0003700280001000100010001004A00520021
:1000E0004B000000500001004F0001004D00510086
:1000F0004E000000000049004C000100000000001C
:10010000000000002A2B2800000000000000000072
:100110000000000000000029000000002C1E342018
:10012000212224342627252E362D3738271E1F203E
:100130002122232425263333362E37381F04050683
:100140000708090A0B0C0D0E0F10111213141516C7
:100150001718191A1B1C1D2F3130232D35040506C5
:100160000708090A0B0C0D0E0F10111213141516A7
:100170001718191A1B1C1D2F3130354C00000000B8
:10018000000000000000000000000000000000006F
:10019000000000000000000000000000000000005F
:1001A0007E0F00D4FFFFFFC7000000780A00253053
:1001B0003862003A200025303258000A722F63203E
:1001C00030313233343536370A00290A00257500BC
:1001D0002F002575005D280025640020002564009F
:1001E000200025640020002564007C002530325862
:1001F000006D6F7573656B6579205B62746E7C78DA
:100200002079207620685D287265702F61636C29E3
:100210003A205B000001010101010101010102021C
:1002200002020202020202030303030303030304A4
:10023000040404040404050505050506060606066F
:10024000070707070708080808090909090A0A0A29
:100250000B0B0B0C0C0C0D0D0D0E0E0E0F0F0F10CB
:100260001011111112121313141415151616171755
:10027000181819191A1A1B1B1C1D1D1E1E1F2020C1
:10028000212222232424252626272829292A2B2C0B
:100290002D2D2E2F30313232333435363738393A2E
:1002A0003B3C3D3E3F404142434445464748494A26
:1002B0004C4D4E4F50515354555658595A5B5D5EF4
:1002C0005F616264656668696B6C6D6F707273758F
:1002D00077787A7B7D7E8082838587888A8C8E8FF3
:1002E00091939596989A9C9EA0A2A3A5A7A9ABAD21
:1002F000AFB1B3B5B7BABCBEC0C2C4C6C9CBCDCF0F
:10030000D1D4D6D8DBDDDFE2E4E7E9EBEEF0F3F5BC
:10031000F8FAFDFFFD377A585A000004E6D6B446D5
:100320000200210116000000742FE5A3E0010D007A
:10033000AC5D003D8889C65436C31750C5CF4AEA24
:10034000057572DC410C776B06B1F1DAB70225490D
:1003500084FA98A3C74B54BA0BEBD34B36F9326AE5
:100360004DAAE42AFB74562ADBE59AB1B3C4EDBF6B
:100370000F4566618A64754F70BF7DA7DDC2148E1C
:10038000E505A5CFE7C103B9DFF27B5BDFD02849E4
:10039000B8E0A2E9610562CAD1E3F52216952D7C89
:1003A00030AA26923C600FB694DFF3C540A7D7BBB6
:1003B0007E6F7F84CC1B7199F61DD03337E8908E09
:1003C0001782B55EE46BD2A9149290D2C5A1CE0675
:1003D000D30A7897B71C78BAA14ED0465B260000A6
:1003E0003222DD3BFFB266B10001C8018E0200007F
:1003F000D2748C0DB1C467FB020000000004595A8E
:100400005B735D004B6579626F6172642073746128
:1004100072742E0A005B575D005B535D005B525D9A
:10042000005B445D005B435D001C03760069006176
:10043000006C003A0066003600340063003200624F
:100440000033006300000008036E0075006D0000BB
:10045000000A0332004C0031005000000004030980
:100460000409027B00040100A0FA09040000010352
:10047000010100092111010001224000070581034B
:1004800008000A090401000203000000092111010B
:100490000001222200070582032000010705030353
:1004A00020000109040200010300000009211101DC
:1004B000000122BC000705840320000A0904030090
:1004C000020300000009211101000122220007059A
:1004D000850320000107050503200001120110011A
:1004E0000000000838132320010001020301063137
:1004F000FF0974A1010975150026FF0095207508F4
:1005000081020976150026FF00952075089102C02A
:100510000660FF0961A1010962150026FF00952010
:10052000750881020963150026FF00952075089162
:1005300002C005010902A10185020901A100050906
:1005400019012905150025019505750181029501FF
:10055000750381010501093009311581257F950257
:100560007508810609381581257F95017508810672
:10057000050C0A38021581257F950175088106C092
:10058000C005010980A101850319012AB7001501E1
:1005900026B700950175108100C0050C0901A10165
:1005A000850419012AA002150126A00295017510E3
:1005B0008100C005010906A1018505050719E0298B
:1005C000E715002501950875018102050719002925
:1005D000EF1500250195F075018102050819012923
:1005E00005950575019102950175039101C00501FD
:1005F0000906A101050719E029E71500250195085D
:10060000750181029501750881010507190029FF0F
:10061000150026FF009506750881000508190129B7
:1006200005950575019102950175039101C011248D
:100630001FBECFEFDAE0DEBFCDBF04B603FE27C09A
:1006400080919F029091A002A091A102B091A2027C
:100650008730904BA740B04BD1F410929F0210927C
:10066000A0021092A1021092A20214BE84B7877F4A
:1006700084BF0FB6F894A89580916000886180933C
:100680006000109260000FBEE0E0F8E3099511E011
:10069000A0E0B1E0E4E9FEE502C005900D92A43AC5
:1006A000B107D9F722E0A4EAB1E001C01D92AF3949
:1006B000B207E1F70E9483280C94EB2E0C94000003
:1006C000FF93EF93E091A401F091A501309709F019
:1006D0000995EF91FF910895FC018591803011F00B
:1006E000EFDFFBCF0895FF27E0E230E247FF0CC0C9
:1006F000419597FF09C0EDE26095709580959095C2
:10070000611D711D811D911D27FF02C0219530E3E0
:1007100050E2AA27660F771F881F991FAA1FA417E8
:1007200010F0A41B63955A95A9F7AA3008F0A95FA9
:10073000A05DAF93F395611571058105910541F7B2
:10074000ED3211F4EF93F395F21718F43F93F3950C
:10075000FBCF8F91B5DFFA95E1F70895E991F99113
:100760008591803021F0853219F0AADFF9CF089504
:1007700020E0E89455915532C1F3503311F4689458
:1007800055915A3348F4505390F3220F022E220F02
:10079000220F200D250FF4CF0EF421958991999108
:1007A000533619F3533729F1533559F1BC018827D2
:1007B0009927E8945C3621F4899199916894559130
:1007C000543639F446EF7EF077FF0DC08FEF9FEF80
:1007D0000AC055374AE039F0583540E121F0523629
:1007E00042E009F00895FF93EF937DDFEF91FF91D1
:1007F000B7CFFF93EF93FC0181918030B9F360DFB5
:10080000FBCFFF93EF9368DFF1CFDF93CF93CDB7AB
:10081000DEB72596A3DFCF91DF91089581E008959B
:1008200081E008950C94100408950C9414041F930F
:10083000CF93DF9300D000D00F92CDB7DEB74983BE
:100840005A836B833091D50189819A8131111DC002
:100850006623B9F02223A9F00E942122182F682FC5
:1008600089819A810E94CC2169817A81812F0F90A0
:100870000F900F900F900F90DF91CF911F910C94DC
:10088000C0140E94F921182FEFCF0E942122698104
:100890007A81EDCFFC01262F4081518162817381E5
:1008A00084810C941704CF93DF93D82FC92F60E075
:1008B0000E944A046D2F7C2FDF91CF910C94150478
:1008C0008F929F92AF92BF92CF92DF92EF92FF9260
:1008D0000F931F93CF93DF9300D000D0CDB7DEB737
:1008E0006B017C0181E090E0A0E0B0E04C015D0193
:1008F00004C0880C991CAA1CBB1C4A95D2F7B501F0
:10090000A4014C015D0104C0880C991CAA1CBB1CED
:100910002A95D2F7482959296A297B2904C0880FCA
:10092000991FAA1FBB1F0A95D2F78A019B010C21B0
:100930001D212E213F210417150726073707F9F43B
:100940009C01AD012C293D294E295F2929833A8339
:100950004B835C8369817A818B819C810F900F909E
:100960000F900F90DF91CF911F910F91FF90EF901B
:10097000DF90CF90BF90AF909F908F90089580951B
:100980009095A095B0954C015D018C209D20AE20E6
:10099000BF2089829A82AB82BC82DCCF0F93CF9337
:1009A000DF9300D000D0CDB7DEB7262F042F4091C3
:1009B0001D0250911E0260911F0270912002498316
:1009C0005A836B837C83482F69817A818B819C81D8
:1009D0000E9460040F900F900F900F90DF91CF91C5
:1009E0000F910C9486200E94DA250E9476238111B3
:1009F00002C00E941A240C944E080C9451080895C9
:100A00000E94791C0E94FF042FEF84E39CE0215098
:100A100080409040E1F700C000000C94C2250F9385
:100A20001F93CF93DF938C01EB010E942511882344
:100A300089F1BE01C8010E941204882359F1BE0148
:100A4000C8010E944616882329F1BE01C8010E94F0
:100A50009B168823F9F0BE01C8010E946E178823F7
:100A6000C9F0BE01C8010E943A10882399F08A811A
:100A7000882339F001158CE5180751F00E3D1C450F
:100A800079F0CE01DF91CF911F910F910C940E045C
:100A90000E94000580E0DF91CF911F910F91089592
:100AA0000E941A24F7CFCF93DF93D82FC92F61E08C
:100AB0000E944A046D2F7C2FDF91CF910C940F057B
:100AC000DF92EF92FF920F931F93CF93DF93E82F64
:100AD000F0E0E450FF4FD490282F269526952695D8
:100AE00030E0F901E456FE4F0491877010E0082EC3
:100AF00002C0159507950A94E2F701701127F901D4
:100B0000E457FE4FE490F12C082E02C0F594E794D0
:100B10000A94E2F791E0E922FF24F901E458FE4F3C
:100B2000C491D0E002C0D595C7958A95E2F7C1700F
:100B3000DD270115110519F081EE0E940D19E11450
:100B4000F10419F086EE0E940D198D2D0E94A01956
:100B5000EF2819F086EE0E945A19012B19F081EE48
:100B60000E945A19CD2B51F08CE2DF91CF911F9149
:100B70000F91FF90EF90DF900C94A019DF91CF912F
:100B80001F910F91FF90EF90DF900895EF92FF92E9
:100B90000F931F93CF93DF93EC01162F0AE0888108
:100BA000882309F454C0813009F04EC08981813016
:100BB00099F47E0122E0E20EF11C8A810E94A019C4
:100BC000E7012196812F815050F3EFE9FFE0319743
:100BD000F1F700C00000F7CF823041F47E0182E0DF
:100BE000E80EF11C8A810E940D19EACF833041F48E
:100BF0007E01E2E0EE0EF11C8A810E945A19E0CFDC
:100C0000843011F02196DDCF2A81229690E080E099
:100C1000AE014F5F5F4F2053330B2A30310548F050
:100C2000019778F2EFE9FFE03197F1F700C000009B
:100C3000F7CF089FB001099F700D1124C901860FDD
:100C4000971F2981EA01E4CF0E946005BACFDF91A6
:100C5000CF911F910F91FF90EF90089560E00C9459
:100C6000C605829594E0899F900111242C7C86957D
:100C700086958373282B30E0C901880F991F8A7AE3
:100C8000359527952575822B089508950C94450672
:100C900081E008950C944806CF93C82F0E94460621
:100CA0008C2FCF910C944A0690E080E0089508952F
:100CB000FC01EE0FFF1FE455FE4F859194910895BE
:100CC000CF93DF930E94C0140E947207EC0181153C
:100CD00020E5920708F04BC0811530E4930708F037
:100CE000B2C0803E910518F5803C910508F09FC088
:100CF000883A910570F4853A910508F095C08130E5
:100D0000910529F10497813A910508F1D0E0C0E0FE
:100D10001EC08F3B9105D1F3C85AD0E0CC0FDD1F28
:100D2000C05EDE4F0990D881C02DD46410C08115FB
:100D300040E2940780F48F3F910509F040F4883E2B
:100D4000910528F0805F9109D0654097F8F6CE01B3
:100D5000DF91CF910895C11580E3D80708F46DC0E5
:100D6000CE019927D3FD6CC0EC01D06CF0CFC1153A
:100D700095E5D90760F5C11524E5D20708F094C0C0
:100D8000C11533E5D30778F4C11542E5D40708F05F
:100D90007AC0C11581E5D80708F458C0DC2FCC27EC
:100DA000C16FD06AD4CFCE018370992721E030E0A3
:100DB00002C0220F331F8A95E2F7C695C69590E2CE
:100DC000C99FE0011124C22BD32BDA68C0CFC11513
:100DD0002AE5D207B0F4C11539E5D30708F074C08D
:100DE000C11546E5D40708F464C0CE0198558F3F7D
:100DF000910511F008F08ACFDC2FCC27C06FD06AA4
:100E0000A6CFCE0190568115904208F07FCF8D2F4E
:100E10008F710E940A0890E0982F882788279F7179
:100E20009C012C2BE9014EC0A497D06490CF805C2C
:100E300091090E945806EC018ACFCE019F70F9CF2C
:100E4000EC01D86C84CFDF70D06A81CFCE0174E022
:100E5000969587957A95E1F783702C2F26952695A0
:100E6000237040E2249F90011124382B8C2F837033
:100E7000C1E0D0E002C0CC0FDD1F8A95E2F7C22BA3
:100E8000D32BDC6864CFCE018370992721E030E05A
:100E900002C0220F331F8A95E2F7C695C69580E2FD
:100EA000C89FE0011124EBCFDC2FCC27C46FD06AA0
:100EB0004ECF8C2F0E940A08C82FD0E0DC2FCC2701
:100EC000CC27DF71D06243CF8C2F8F700E940A082D
:100ED00034E0D695C7953A95E1F7CF70DC2FC82F4F
:100EE000D06935CF803E910599F1C8F481339105E1
:100EF00009F476C048F48932910509F46AC08A324F
:100F0000910509F474C0089589339105D1F08238B0
:100F10009105B9F08533910509F454C00895843ED4
:100F2000910599F138F4823E9105F9F0833E9105DF
:100F300009F10895863E910599F1873E9105B9F131
:100F40000895209190022370A1F080EE90E0089522
:100F50002091900220FD52C03091910230FF09C0D3
:100F600024FF4FC090E080E004C02091900222FD59
:100F7000F7CF08952091900222FD46C03091910252
:100F800030FDE3CF24FFF5CFEDCF2091910221FF7B
:100F9000F0CF8091900284FDE5CF87EE90E0089538
:100FA0002091900223FFE5CF24FDDCCFF6CF2091E6
:100FB000900223FD2CC03091910231FFE3CF84EEEB
:100FC00090E008952091900225FFD3CF89E290E030
:100FD00008952091900225FFCCCF85E390E00895FD
:100FE0002091900226FFC5CF8AE290E008952091DB
:100FF000900226FFBECF81E390E0089589E390E060
:10100000089583EE90E0089582EE90E0089586EED4
:1010100090E008959091900292FF06C0282F2871C9
:101020002830F9F4877F846093FF06C0282F287149
:101030002831F1F4877E84612091910220FF06C05F
:10104000382F38713830D9F4877F816021FF06C08E
:10105000282F28712831D1F4877E816194FD877E05
:101060000895282F24712430F9F68B7F8860DCCF17
:10107000282F2471243101F78B7E8861DDCF382F32
:101080003171313019F78E7F8860E0CF282F2171C0
:10109000213121F78E7E8861E1CF08950C944D08AF
:1010A00008950C945008E82FF0E0EA58FD4F808135
:1010B0000895CF92DF92EF92FF920F931F93CF93F9
:1010C000DF938BEB91E00E946C0386E7E82E82E0D1
:1010D000F82ED0E0C0E096EBC92E91E0D92E0EEAB2
:1010E00011E0DF93CF93DF92CF920E94050483EB50
:1010F00091E00E946C03F70181917F010E9431060B
:101100001F928F931F930F930E9405048CEA91E026
:101110000E946C0321968DB79EB708960FB6F8947F
:101120009EBF0FBE8DBFC530D105D9F6DF91CF91DF
:101130001F910F91FF90EF90DF90CF90089580EA7C
:101140008A95F1F7089500C008950C949F08F894CB
:10115000E82FE295EF70F0E041A18F7021E030E0E0
:10116000B90102C0660F771F8A95E2F7CB01962F6F
:101170009095942391A392A1892B82A378940895AA
:1011800086EF0E94A70887EF0E94A70881E30E94CC
:10119000A70883E30E94A70882E30E94A70885E3CB
:1011A0000E94A70884E30E94A70886EC0E94A70873
:1011B00087E90E94A708A1E7B2E01C92E6E7F2E007
:1011C000108211961C921197118212961C921297FE
:1011D000128213961C921397138214961C921482F7
:1011E00085E00E9470090C94F304BF92CF92DF92C5
:1011F000EF92FF920F931F93CF93DF9302E511E0DD
:10120000C1E7D2E0C12CD12CEE24E394F12CF801FB
:1012100081918F01F894E82FE295EF70F0E021A121
:101220008F70A70102C0440F551F8A95E2F7CA01CB
:10123000922F982B91A392A18095892382A37894D1
:101240000E94A308EEE4F1E030E020E0B12C4191EF
:10125000A42FA295AF70B0E090968C9190E04F7063
:1012600002C0959587954A95E2F780FD35C08E2D91
:10127000022E01C0880F0A94EAF7B82A2F5F3F4F69
:101280002430310521F7F801319780810E94A708A9
:1012900054E0C5120E94A5088881B816F9F0B882FA
:1012A00081E0D82AC394219685E0C812B0CF2D2DB5
:1012B00045E066E772E081E792E00E9471090E94D2
:1012C000FD048D2DDF91CF911F910F91FF90EF9035
:1012D000DF90CF90BF90089580E0CFCF80E0E1CF46
:1012E0000895FF920F931F93CF93DF93F82E092F4A
:1012F000162FD72FC42F222349F081E08093A80115
:101300000E9463259093A7018093A6018091A80174
:101310008823A1F08091A6019091A7010E948F25BA
:10132000069760F0EF2DF02FA12FBD2FCE0FDF2FEE
:10133000D11DEC17FD0741F41092A801DF91CF9168
:101340001F910F91FF90089581918D93F2CF80911D
:10135000AF0180FF12C06091050185E0689FB00178
:101360001124759567957595679560387105A8F591
:1013700061157105A1F1862F089581FF09C0609163
:10138000050185E0689FB001112475956795EDCF43
:101390006091050182FD0AC08091AE018823D1F0E1
:1013A0009091040160910501891728F085E0689FFC
:1013B000B0011124DACF869FB001112485E0869F09
:1013C0009001879F300D1124692F70E0C9010E94A0
:1013D000722ECBCF65E070E0CECF8FE7089581E02D
:1013E00008958091AF0180FF0CC06091010170E011
:1013F00075956795759567956115710549F1862F06
:10140000089581FF06C06091010170E075956795B0
:10141000F3CF6091010182FD0BC09091AD01992342
:10142000A1F06091000180910101961738F0682FBA
:1014300070E06038710500F38FE70895899FC0015F
:10144000112470E00E94722EF4CF61E070E0D7CFDB
:1014500081E00895803F31F40E94A709819580932F
:10146000B3010895813F19F40E94A709F8CF823F84
:1014700031F40E94A70981958093B2010895833FBA
:1014800019F40E94A709F8CF893F29F40E94F109B5
:101490008093B40108958A3F21F40E94F109819557
:1014A000F7CF8B3F31F40E94F10981958093B5010C
:1014B00008958C3F19F40E94F109F8CF843F31F46C
:1014C0008091B10181608093B1010895853F21F43D
:1014D0008091B1018260F7CF863F21F48091B10104
:1014E0008460F1CF873F21F48091B1018860EBCF18
:1014F000883F21F48091B1018061E5CF8D3F31F4C7
:101500008091AF0181608093AF0108958E3F21F4F7
:101510008091AF018260F7CF8F3FB9F78091AF0123
:101520008460F1CF9091B201803F59F48091B30172
:1015300087FF0DC01092B30191110BC01092AE0144
:1015400008C0813F81F48091B30118169CF3992360
:1015500081F08091B4019091B501892B09F064C0AC
:101560001092AD010895823F49F497FFF0CF109299
:10157000B2018091B3018111ECCFE0CF833F19F428
:101580001916ACF3E4CF2091B401893F29F4121667
:10159000F4F61092B401DBCF8A3F19F427FFD7CFBE
:1015A000F8CF2091B5018B3F29F427FFD0CF1092BF
:1015B000B501CDCF8C3F19F41216CCF3C8CF843FC0
:1015C00031F48091B1018E7F8093B101C0CF853F0E
:1015D00021F48091B1018D7FF7CF863F21F4809176
:1015E000B1018B7FF1CF873F21F48091B101877FDB
:1015F000EBCF883F21F48091B1018F7EE5CF8D3F05
:1016000031F48091AF018E7F8093AF01A0CF8E3FE8
:1016100021F48091AF018D7FF7CF8F3F09F097CFF5
:101620008091AF018B7FF0CF089580914A0283FFB4
:101630007EC081EF91E00E946C038091B1011F9206
:101640008F938CEE91E09F938F930E9405048AEE16
:1016500091E00E946C038091B201282F082E000CAB
:10166000330B3F938F9387EE91E09F938F930E946C
:10167000050485EE91E00E946C038091B301282F50
:10168000082E000C330B3F938F9382EE91E09F93D3
:101690008F930E94050480EE91E00E946C0380917C
:1016A000B401282F082E000C330B3F938F938DED40
:1016B00091E09F938F930E9405048BED91E00E942F
:1016C0006C038091B501282F082E000C330B3F933B
:1016D0008F9388ED91E09F938F930E94050485ED91
:1016E00091E00E946C038091AE011F928F9382ED76
:1016F00091E09F938F930E94050480ED91E00E94FA
:101700006C038091AF011F928F938DEC91E09F93BA
:101710008F930E9405048AEC91E00E946C038DB7C0
:101720009EB74C960FB6F8949EBF0FBE8DBF0E9419
:1017300063252091B2013091B301232B21F08093D6
:10174000AB019093AC012091B4013091B501232BF2
:1017500021F08093A9019093AA0180EB91E00C9471
:10176000C417EF92FF920F931F93CF93DF9300D094
:1017700000D000D0CDB7DEB786E0E0EBF1E0DE01CF
:10178000119601900D928A95E1F7E090B201F090E8
:10179000B3010091B4011091B5011092B201109201
:1017A000B3011092B4011092B5018F2D8E2991F0E2
:1017B0008091AB019091AC010E948F259C0180919A
:1017C000AE01882309F443C09091060192171306D5
:1017D00008F44BC0802F812B91F08091A90190914A
:1017E000AA010E948F259C018091AD01882309F4F4
:1017F0007BC0909102019217130608F483C0809178
:10180000B2019091B301892B9091B401892B9091F1
:10181000B501892B11F00E94150BEB82FC820D8320
:101820001E8386E0FE013196A0EBB1E001900D929F
:101830008A95E1F726960FB6F894DEBF0FBECDBFAE
:10184000DF91CF911F910F91FF90EF9008954091FC
:1018500007019AE0499FA00111244217530708F09D
:10186000B9CF8F5F8093AE0102C08F3FD1F7EE20DA
:1018700059F00E94A7099FEF1E140CF491E0899F74
:10188000802D11248093B201FF2059F00E94A709F6
:101890009FEF1F140CF491E0899F802D11248093F9
:1018A000B3013091B201332309F494CF2091B301F5
:1018B000222309F48FCF45EB3403C001112499236F
:1018C00059F09093B20145EB240390011124332386
:1018D00039F03093B3017ECF81E08093B201F3CF32
:1018E00081E08093B30176CF409103019AE0499F54
:1018F000A00111244217530708F081CF8F5F809316
:10190000AD0102C08F3FD1F7002359F00E94F109C9
:101910009FEF10160CF491E0899F802D1124809385
:10192000B401112359F00E94F1099FEF11160CF434
:1019300091E0899F802D11248093B5013091B401ED
:10194000332309F45CCF2091B501222309F457CF4A
:1019500045EB3403C0011124992359F09093B4014D
:1019600045EB240390011124332339F03093B50162
:1019700046CF81E08093B401F3CF81E08093B5013D
:101980003ECF86E0E0EBF1E0DF011D928A95E9F7BA
:101990001092AE011092AD011092AF010895CF9256
:1019A000DF92EF92FF920F931F93CF93DF93D62F87
:1019B000C72F982F711113C0442329F0E82FF0E0AE
:1019C000EC5EFD4F9491692F792F892FDF91CF9194
:1019D0001F910F91FF90EF90DF90CF900895272FE8
:1019E00030E0E82FF0E0442321F0EC5EFD4FE4917D
:1019F000F0E086E0D89F700111240FEF10E0C701DE
:101A0000B8010E945E2E8D2F90E0880F991FA5E5EA
:101A1000A69FA001A79F500D1124841B950BD82EC3
:101A2000DD0CD80EC801821B930B8E9FA0018F9FE7
:101A3000500D9E9F500D1124952FDC9EE001112426
:101A4000CD2FDD27D801AC1BBD0BED01CE9FD00102
:101A5000CF9FB00DDE9FB00D11248B2FE801CD1963
:101A6000D1096E01C29EE001C39ED00DD29ED00D61
:101A70001124CD2FDD270C1B1D0B0E9FE0010F9FA6
:101A8000D00D1E9FD00D11242E2F63307105D9F07B
:101A90003CEFE31633E0F30668F461307105B9F00A
:101AA00062307105C1F0AFEFEA16F10448F4852FFA
:101AB0009D2F06C06430710589F066307105B9F359
:101AC000692F722F83CF9B2F8E2F252FF9CF9E2F1B
:101AD0002B2F852FF5CF8D2F9E2FF7CF8E2F2D2FCC
:101AE000EFCF41E00C94CF0C0C94710DCF93DF93AA
:101AF000982F762F842FE901692F0E94740D798326
:101B000068838A83DF91CF91089580917B02982F1B
:101B10009E7F39F480917B028170826080937B028A
:101B200008958430B8F7089588E090E00C94AB2EC7
:101B30000F931F93CF93DF938B01D82FC92F0E9450
:101B4000850DA8016D2F7C2F88E090E0DF91CF916B
:101B50001F910F910C94C92ECF93DF9300D000D02A
:101B6000CDB7DEB780917B0290917C02A0917D027F
:101B7000B0917E0289839A83AB83BC83BC01CD0183
:101B80000F900F900F900F90DF91CF910C94980DC4
:101B9000CF93DF9300D000D0CDB7DEB7EBE7F2E014
:101BA00083E0808311828FEF82838383148280811C
:101BB0009181A281B38189839A83AB83BC83BC0169
:101BC000CD010F900F900F900F90DF91CF910C945B
:101BD000980D80917B0280FF02C08695089580E079
:101BE0000895CF93DF9300D000D0CDB7DEB79091AA
:101BF0007F02933018F49F5F90937F028823B1F0A7
:101C000080917B0290917C02A0917D02B0917E0236
:101C100089839A83AB83BC83BC01CD010F900F9065
:101C20000F900F90DF91CF910C94980D0F900F9023
:101C30000F900F90DF91CF91089581E00C94F10DFA
:101C4000CF93DF9300D000D0CDB7DEB790917F0265
:101C5000992319F0915090937F028823B1F08091DD
:101C60007B0290917C02A0917D02B0917E028983DB
:101C70009A83AB83BC83BC01CD010F900F900F9072
:101C80000F90DF91CF910C94980D0F900F900F90C3
:101C90000F90DF91CF91089581E00C94200E8091F8
:101CA0007F020895CF93DF9300D000D0CDB7DEB789
:101CB00080937F026623B1F080917B0290917C0239
:101CC000A0917D02B0917E0289839A83AB83BC830D
:101CD000BC01CD010F900F900F900F90DF91CF912D
:101CE0000C94980D0F900F900F900F90DF91CF9163
:101CF000089560E00C94520E80917C0208958091CA
:101D00007D02089580917E02089570E00C949210F7
:101D10006091090180917B0280FF0AC080910801D7
:101D200023E0829FC001112480589D4F0C94850EA2
:101D300080910A0190910B0123E0829FF001112410
:101D4000E058FD4F891750F71182108212828F5F81
:101D50003396F8CFCF93DF9300D000D0CDB7DEB766
:101D6000EBE7F2E080818E7F808380819181A28188
:101D7000B38189839A83AB83BC83BC01CD010E946C
:101D8000980D9FEFA0E7B2E09150A040B040E1F77E
:101D900000C000000F900F900F900F90DF91CF9137
:101DA0000C94880EEBE7F2E080818E7F80832FEF2A
:101DB00080E792E0215080409040E1F700C00000B1
:101DC0000C94880E90917B0290FF14C090910A01B0
:101DD00020910B0133E0939FF0011124E058FD4F57
:101DE000921710F00C94880E8183608342839F5F6A
:101DF0003396F6CF0895EF92FF920F931F93CF93F0
:101E0000DF9300D000D000D00F92CDB7DEB7F82E10
:101E1000062F142FE22E90917B0290FF2AC0E92F0B
:101E2000E695F0E0E95AFE4F80818093B7019E7FEE
:101E3000923059F49E012F5F3F4F8F2D0E94760DF7
:101E40004B8169818A810E94E20EF0927C020093AC
:101E50007D0210937E02EE2061F080917B029091D2
:101E60007C02A0917D02B0917E02BC01CD010E9456
:101E7000980D27960FB6F894DEBF0FBECDBFDF9149
:101E8000CF911F910F91FF90EF900895282FEBE7CE
:101E9000F2E0818143816281885F0C94FB0E81E0D6
:101EA0000C94460F282FEBE7F2E081814381628199
:101EB00088500C94FB0E81E00C94520F282FEBE716
:101EC000F2E0628131E1630F08F46FEF43818181B9
:101ED0000C94FB0E81E00C945E0F282FEBE7F2E0F0
:101EE000628131E1631B08F460E0438181810C94DD
:101EF000FB0E81E00C946D0F282FEBE7F2E043819D
:101F000031E1430F08F44FEF628181810C94FB0EA5
:101F100081E00C947C0F282FEBE7F2E0438131E164
:101F2000431B08F440E0628181810C94FB0E81E048
:101F30000C948B0F20E00C94FB0ECF93DF9300D01A
:101F400000D0CDB7DEB780917B0280FF24C08170C6
:101F5000826080937B02662381F080917B02909166
:101F60007C02A0917D02B0917E0289839A83AB832B
:101F7000BC83BC01CD010E94980D40917E0260910E
:101F80007D0280917C020F900F900F900F90DF9157
:101F9000CF910C949A0F0F900F900F900F90DF91AC
:101FA000CF910895682F81E00C949D0F81E00C94EF
:101FB000D20F682F90917B0296958FEF890F913009
:101FC00009F481E00C949D0F81E00C94D90F61E03D
:101FD0000C949D0FEBE7F2E0808181608083869511
:101FE0000C94E70F80917B0280FD0C94AA0E0C9458
:101FF000EA0F60E00C949D0F8091B60181112CC016
:102000000E947623811104C00E941A240E94C80DE8
:102010000E94940D60937B0270937C0280937D02FA
:1020200090937E026E7F61F40E94C80D0E94940D11
:1020300060937B0270937C0280937D0290937E027A
:102040000E94850D80917B0280FF03C086950E94CF
:10205000F90F81E08093B6010895EBE7F2E080810B
:102060008160808386950C94F90FFA01811109949F
:10207000FB01FDCF0F931F93CF938C01FB01C28116
:10208000CC2309F44DC00E94BE228272F801E25CAA
:10209000FC45E431F10538F4E351F14D0C94862E02
:1020A0000E94F20FC0E08C2FCF911F910F910895E5
:1020B00044EE5FE066ED7FE00E943510F3CF46ED21
:1020C0005FE064EE7FE0F8CF4BE55FE06FE47FE038
:1020D000F3CF4FE45FE06BE57FE0EECF49E75FE0F1
:1020E0006AE67FE0E9CF4AE65FE069E77FE0E4CFB8
:1020F00047E95FE068E87FE0DFCF48E85FE067E955
:102100007FE0DACF4CE45EE06DE17EE0D5CF4DE1DB
:102110005EE06CE47EE0D0CF81E00E94E70FC2CFAA
:10212000C1E0C1CF9C01AB01269A65B16F7B75B14F
:102130007064EFB7F894CA01880F991F840F951F38
:10214000820F931F8217930741F4EFBF8FE594E04E
:102150000197F1F700C000000895D9014D919D014C
:1021600058E075B9000000C047FF65B9440F000092
:1021700000C000C000C065B900C05A9591F7E2CF19
:1021800082E290E00E94A32E863189F483E290E0FF
:102190000E94A32E8D3159F484E290E00E94A32E78
:1021A00091E0813309F090E0892F8170089580E0FB
:1021B000FCCFCF93C82F6FEF811166E182E290E0F0
:1021C0000E94B72E6FEFC1116DE183E290E00E9493
:1021D000B72E6FEFC11161E384E290E0CF910C94D0
:1021E000B72E80E00E94D9100C9470230895CF93ED
:1021F000DF9300D000D0CDB7DEB785E290E00E943B
:10220000A32E282F30E050E040E0CA01B9010F9022
:102210000F900F900F90DF91CF91089585E290E09D
:102220000C94B72E0E94F6100E94C01081110CC0B1
:1022300060E070E0CB010E940E110E941C140E940D
:102240002A1581E00C94D9100895CF939C01FB01CD
:10225000C281CC2301F182519F45409720F58EEE3B
:10226000820F0E943A15C0E08C2FCF91089581E033
:102270000E94BC2043E062E081E00E94CE04F3CFE4
:1022800081E00E94ED2043E062E081E00E94CE0404
:10229000EBCF82E0F6CF80319F4591F321313F456E
:1022A000C1F3C1E0E1CF2031EFE53E0701F382E069
:1022B00021313F45E9F2D8CF2FEFFC01208308956B
:1022C000CF93DF93EC0188818238C1F038F48038F5
:1022D00071F0813881F0DF91CF9108958338D9F77B
:1022E0000E947C0E89830E947F0E8A83F4CF0E9415
:1022F000820E8983F0CF0E94E90DFBCF0E944F0E22
:10230000F8CFCF93DF93EC018881823851F138F414
:10231000803869F08138B9F0DF91CF910895833822
:10232000D9F70E94820E482F6A81898108C0D9811D
:102330000E947F0EC82F0E947C0E4D2F6C2FDF91C4
:10234000CF910C949A0F89810E94F90F8981811194
:1023500004C0DF91CF910C94D20EDF91CF910C94F9
:102360002D108981DF91CF910C94790EEF92FF921D
:102370000F931F93CF93DF93CDB7DEB72E970FB692
:10238000F894DEBF0FBECDBF8D839E83162FAD8127
:10239000BE81EC918091BB019091BC01892B79F0B9
:1023A000EE3F49F511968C91833018F085508330BB
:1023B00010F5612F8D819E810E9402131CC08D81BA
:1023C0009E810196E43150F4EE2351F0E150E33167
:1023D00038F4F0E0EF5FF04D0C94862EEE3F49F3B9
:1023E000612F8D819E810E945C1105C0ED81FE816F
:1023F000118289E08283612F8D819E812E960FB696
:10240000F894DEBF0FBECDBFDF91CF911F910F912A
:10241000FF90EF900C94C326AD81BE8111968C91F4
:10242000823099F0833011F18130D1F60E946F250E
:102430000E948C2E6F83788789879A87ED81FE8131
:102440006283738384839583D6CF0E94F7100E94A2
:102450008C2E6B877C878D879E87AD81BE8112967F
:102460006D937D938D939C931597C5CF80910D01AE
:1024700090910E01892B09F4BECFED80FE80B2E071
:10248000EB0EF11C00E0802F0E945308F7018193AE
:102490007F010F5F0530B9F7AECFAD81BE811196D8
:1024A0008C911197823009F09BCF12968D919D915E
:1024B0000D90BC91A02D89839A83AB83BC83BC0112
:1024C000CD010E948C2E0E940E1195CFED81FE81D0
:1024D0004381628181810E94D2139827892798279E
:1024E000AD81BE8115969C938E93149784CFED8118
:1024F000FE8124813581322723273227438162815F
:1025000081810E94F41377CF0E941C1474CF0E9423
:10251000811171CF0E9460116ECF0E94AC0D6BCF04
:102520000E94D314AD81BE8111968C9364CF0E941A
:10253000D514982789279827ED81FE81928381837E
:102540005ACFAD81BE8113968C911397682F70E09E
:102550008D3108F050CF11968D919C911297AD015D
:102560004C5F5F4F9827892798270E94D81443CF44
:1025700080910D0190910E01892B09F43CCFED81E2
:10258000FE818381682F70E08D3108F034CF818126
:102590009281AF014C5F5F4F9827892798270E944F
:1025A000FF1429CF0E942A1526CF0E94BF13BACF4D
:1025B000ED81FE818381682F70E08D3108F01BCFA3
:1025C00081819281AF014C5F5F4F982789279827BF
:1025D0000E94671410CFAD81BE8113968C91139722
:1025E000682F70E08D3108F006CF11968D919C9187
:1025F0001297AD014C5F5F4F9827892798270E945B
:102600008C14F9CE0F931F93CF93DF93CDB7DEB722
:1026100028970FB6F894DEBF0FBECDBF8C01603295
:1026200061F4FC018181853009F482C088F4813035
:10263000B9F18230D9F18823D1F028960FB6F894F9
:10264000DEBF0FBECDBFDF91CF911F910F910895D7
:10265000863009F47CC0873081F780910D0180833A
:102660008091BB0181838091B9018283E6CF88E0AC
:10267000E9E5F1E0DE01119601900D928A95E1F70E
:1026800083E0F801808311821282138288E0FE01C8
:102690003196D801149601900D928A95E1F7CDCF2D
:1026A0008CEE8083118212821382C7CF8381682FC0
:1026B00070E0762F66278281860F972F911D092E55
:1026C000000CAA0BBB0B25E0880F991FAA1FBB1F8C
:1026D0002A95D1F7AC01BD01405E5F4F6F4F7F4F30
:1026E000803EFFEF9F07AF07BF0708F0A6CF8C3EE5
:1026F0009105A105B10508F0A0CF4D3E510561053A
:10270000710520F04CEE50E060E070E0481B590B82
:10271000BC016C5E7C4FC80128960FB6F894DEBFF2
:102720000FBECDBFDF91CF911F910F910C94932ECF
:1027300040E250E06FEF70E0C8010E949C2E809153
:102740000D01F80180838091BB01818376CF81E008
:1027500090E09093BC018093BB0182E390E0909362
:10276000BA018093B90128960FB6F894DEBF0FBE68
:10277000CDBFDF91CF911F910F910C94632584E021
:10278000089598E0699FB001112450E0440F551F4F
:10279000640F751F98E2899F600D711D1124CB0194
:1027A000869608950F931F93CF93DF938430C8F4D8
:1027B0006530B8F44430A8F40E94C1138C010E9423
:1027C000A32EC82FD0E0DC2FCC27C80101960E9491
:1027D000A32E9E01282BC901DF91CF911F910F914C
:1027E000089590E080E0F8CF0F931F93CF93DF938D
:1027F000E9018430E0F46530D0F44430C0F42115B0
:102800003C4531F420910D0130910E01232B79F0DC
:102810000E94C1138C016D2F0E94B72E6C2FC8012E
:102820000196DF91CF911F910F910C94B72EDF91FC
:10283000CF911F910F9108958F929F92AF92BF9267
:10284000CF92DF92FF920F931F93CF93DF938090ED
:102850000D0190900E0181E090E090930E01809325
:102860000D01B12CA12C00E0650110E013C0FE01A8
:10287000259134914F2D612F802F0E94F4132296C1
:10288000F39484E0F812F3CF84E0C80ED11C1F5FEC
:10289000153039F0E601CC0FDD1FC455DF4FF12CA8
:1028A000E6CF0F5F84E1A80EB11C0430E9F69092E8
:1028B0000E0180920D01DF91CF911F910F91FF903A
:1028C000DF90CF90BF90AF909F908F900895EF9240
:1028D000FF920F931F93CF93DF93EC018A017C014A
:1028E000E60EF71ECE018696CE15DF0539F4DF9190
:1028F000CF911F910F91FF90EF900895C03AD105AD
:1029000040F40E94A32EF80180830F5F1F4F219691
:10291000E9CFF8011082F9CFCF92DF92EF92FF92C8
:102920000F931F93CF93DF93EC017B016A01803AF1
:10293000910578F420EA30E0281B390B2617370779
:1029400040F0E80EF91E8C01C80186960E151F0591
:1029500049F4DF91CF911F910F91FF90EF90DF909D
:10296000CF900895003A110540F4F801EC1BFD0BDF
:10297000EC0DFD1D60810E94B72E0F5F1F4FE4CF4D
:10298000462F672F2091BB013091BC01232B41F4CE
:10299000843030F4753020F4443010F40C94D213A9
:1029A00090E080E0089580E108958AE393E008953F
:1029B000EF92FF920F931F93CF93DF93EC018A0165
:1029C0007C01E60EF71ECE018A539F4FCE15DF0520
:1029D00039F4DF91CF911F910F91FF90EF900895FF
:1029E000CA3323E0D20740F40E94A32EF80180836B
:1029F0000F5F1F4F2196E7CFF8011082F9CFCF92DA
:102A0000DF92EF92FF920F931F93CF93DF938C018E
:102A10006A017C01E60EF71EEC01CE018A539F4F3E
:102A2000CE15DF0549F4DF91CF911F910F91FF90F3
:102A3000EF90DF90CF900895CA3323E0D20740F49F
:102A4000FE01E01BF10BEC0DFD1D60810E94B72E15
:102A50002196E3CFCF93DF93C6ECD0E060E0CE01C8
:102A60000E94B72E2196C11584E0D807B9F7DF91EF
:102A7000CF910895BF92CF92DF92EF92FF920F9382
:102A80001F93CF93DF9300D000D0CDB7DEB7F82EE1
:102A90002FE0281740F08FEF93E00E94A32E06EC62
:102AA00010E08823D1F00F900F900F900F90DF91DE
:102AB000CF911F910F91FF90EF90DF90CF90BF903B
:102AC0000895011534E0130771F3C8010E94A32E85
:102AD000811101C0FA940F5F1F4FF110F2CF809166
:102AE0001C0190911D01A0911E01B0911F018983CD
:102AF0009A83AB83BC83BB24BA9478018FEFE81A26
:102B0000F80AC8010E94A32E89831A82882359F2E9
:102B1000813009F049C06801E2E0CE0ED11CC70146
:102B20000E94A32EE82E8A83882309F4BCCFC60115
:102B30000E94A32EF82E8FEF8E0D833068F468016B
:102B4000F3E0CF0ED11CFB82FF2021F0CE010196D5
:102B50000E942E068601D1CF24E0E212FBCF68014D
:102B600034E0C30ED11CC80103960E94A32E282F67
:102B7000FF2009F498CF882309F495CF2150330B17
:102B8000B29EA001B39E500D1124EF2DE150FF0B1A
:102B9000CF01840F951F0197E8F2EFE9FFE031972D
:102BA000F1F700C00000F7CFCE0101960E942E067B
:102BB0006701D0CF0F931F93CF93DF93C42FD22FF2
:102BC000FC0182818823C9F04093BF010E946325E4
:102BD0009093BE018093BD0180E28C0F883008F095
:102BE00050C0C77081E001C0880FCA95EAF7DF9135
:102BF000CF911F910F910C94A8191091BF0114133C
:102C000035C08091BD019091BE010E948F25883C06
:102C1000910560F5C0E2CD0F1D17B9F080E2810F7C
:102C2000883040F4177081E001C0880F1A95EAF7E8
:102C30000E94AF19C83048F481E09D2F977001C001
:102C4000880F9A95EAF70E94A819802F0E94A01970
:102C5000C830B8F4D77081E001C0880FDA95EAF780
:102C6000DF91CF911F910F910C94AF1980E28C0FDF
:102C7000883038F4C77081E001C0880FCA95EAF740
:102C8000EFCFDF91CF911F910F9108950F939C018A
:102C9000CB01233F4CE53407A1F190F4283DFCE53E
:102CA0003F0749F1293D4CE53407E9F1273D3C4513
:102CB000C1F0FC0182818823E1F11092BF0119C0AB
:102CC000253FFCE53F0719F1263F4CE5340729F184
:102CD000243F3C4571F707E225EE44EE64EF7CE5C6
:102CE00005C006E221EE41EE67ED7CE50E94DA15B3
:102CF00080E00F91089507E225EE45EE68ED7CE552
:102D0000F5CF06E221EE40EE63EF7CE5EFCF06E281
:102D100021EE42EE65EF7CE5E9CF07E225EE46EED7
:102D200066EF7CE5E3CF08E221E045EE69ED7CE566
:102D3000DDCF81E0DECFCF93DF93EC01FB01828119
:102D4000882309F4C9C0C631FCE5DF07E0F4C230CE
:102D50009CE5D907F0F00E9489239093910280931B
:102D60009002C631ECE5DE0720F5C230FCE5DF0756
:102D700098F480919002909191020E9497230E9472
:102D8000791C80E006C09E012A5F3C452930310550
:102D900010F3DF91CF910895FE01E350FC4580913F
:102DA00090028160E331F10588F4EC5EF04D0C9403
:102DB000862ECA5FDC45C930D105D8F6C95DD04D35
:102DC000FE010C94862E8091900282608093900286
:102DD000D0CF809190028460F9CF8091900288607A
:102DE000F5CF80919102816080939102C2CF809152
:102DF00091028260F9CF809190028061E7CF80914B
:102E000090028062E3CF809190028064DFCF0E94C5
:102E1000791C809190028068D9CF809190028C605B
:102E2000D5CF809191028360DFCF809190028E7F19
:102E3000CDCF809190028D7FC9CF809190028B7F02
:102E4000C5CF80919002877FC1CF809191028E7F04
:102E5000CBCF809191028D7FC7CF809190028F7EE2
:102E6000B5CF809190028F7DB1CF809190028F7B02
:102E7000ADCF0E94791C809190028F77A7CF80916F
:102E80009002837FA3CF809191028C7FADCF809100
:102E9000900282FB992790F921E0922790FB82F91A
:102EA00090FB83F993CF80919102982F9095917028
:102EB0008E7F892B90FB81F997CF0E94791C90918E
:102EC0009002892F97FB87F9805880CF81E00E947C
:102ED0001C244FCF80E0FBCF81E05BCFCF93DF930B
:102EE000EB0186319C4511F50E94BE229A819923FF
:102EF00099F08A7A91E009F490E09093C0018111F1
:102F000009C089E20E9499220E940D2380E0DF918E
:102F1000CF91089585E3F6CF8091C001811104C05F
:102F200089E20E94A022F0CF85E3FBCF81E0EFCFC2
:102F30009093C6018093C5010895E091C501F09179
:102F4000C601309721F00190F081E02D099480E0D6
:102F50000895DC01E091C501F091C601309799F028
:102F600080911B01882351F08091900287FF06C059
:102F70008C9111968C93119785E08C930280F3814C
:102F8000E02DCD0109940895DC01E091C501F09197
:102F9000C601309739F082E08C930480F581E02DF2
:102FA000CD01099408952091C3013091C4012817DF
:102FB000390771F09093C4018093C301E091C5017A
:102FC000F091C601309721F00680F781E02D099439
:102FD00008952091C1013091C2012817390771F07D
:102FE0009093C2018093C101E091C501F091C601A7
:102FF000309721F00084F185E02D099408950E9416
:103000006F256093D1017093D2018093D301909387
:10301000D4016093CD017093CE018093CF01909342
:10302000D001089585B7806885BF85B7806885BF62
:103030000895089508950C94191808950C941D1876
:103040000E94121881E298E20E94D3250E941A1869
:103050000C941B1881E008950C942A180895089583
:103060000E945A250E94C0080E9412110E94EE255B
:103070000E94FC0F0C941E18AF92BF92CF92DF9269
:10308000EF92FF920F931F93CF93DF9300D000D066
:103090000F92CDB7DEB70E942E180E942F180E9403
:1030A000F50881110E94FF1788ECA82E81E0B82E48
:1030B00010E000E0C02E802F0E945308F82EF5018A
:1030C000E1905F01E81609F44CC080914A0281FD4D
:1030D0000E9459088E2D8F25D12CEE24E394982F31
:1030E0009E21D1F10E942C18882399F0D982CA829E
:1030F000FE2081E009F480E08B830E9463258160DB
:10310000782F9D838C8349815A816B818D810E94A8
:10311000D818F801E853FE4F8081E826E0820E942B
:10312000B10B0E949D179091C701891789F10E94E8
:103130009D178093C7010F900F900F900F900F90E5
:10314000DF91CF911F910F91FF90EF90DF90CF9083
:10315000BF90AF900C944C06D394EE0CF4E0DF12C9
:10316000BECF0F5F1F4F0530110509F0A3CF8FEFC2
:1031700089838A831B820E9463258160782F9D83C7
:103180008C8349815A816B818D810E94D818C7CF69
:103190000F900F900F900F900F90DF91CF911F9194
:1031A0000F91FF90EF90DF90CF90BF90AF90089578
:1031B000DF92EF92FF920F931F93CF93DF93CDB7E0
:1031C000DEB72B970FB6F894DEBF0FBECDBF7A8760
:1031D0008B87F42E052F162FE72ED82E61110E9413
:1031E000E0227E2DEC82DD824F2D502F612F8D2D20
:1031F00090E02B960FB6F894DEBF0FBECDBFDF91E7
:10320000CF911F910F91FF90EF90DF900C94DC1EF7
:10321000FC01808191810C946322CF93C82F882375
:1032200009F446C08CEF8C0F813AA0F46C2F80918A
:103230000F01909110010E943524882329F08C2FD2
:103240000E94A0220E940D238C2F0E949922CF91D0
:103250000C940D2380E28C0F883048F4C77081E015
:1032600001C0880FCA95EAF70E94C122F0CF8BE512
:103270008C0F833038F42C2F2452330BC901CF919B
:103280000C94D317E8E5EC0FE73150F4F0E0EE0FC3
:10329000FF1FEE59FE4F80819181CF910C94E91769
:1032A000C03F30F08C2F0E942A0ACF910C94150B4E
:1032B000CF910895882361F19CEF980F913A20F403
:1032C0000E94A0220C940D2390E2980F983050F4A5
:1032D000877091E001C0990F8A95EAF7892F0E94C3
:1032E000C722F0CF9BE5980F933020F490E080E068
:1032F0000C94D31798E5980F973120F490E080E074
:103300000C94E917803F20F00E94920A0C94150B50
:1033100008951F93CF93DF93182FEB010E940D198F
:10332000209731F4812FDF91CF911F910C945A197E
:103330008FE99FE00197F1F700C000002197F0CFDF
:1033400064E170E0893311F460E570E00C94891950
:10335000882321F00E94C1220C940D230895882314
:1033600021F00E94C7220C940D230895AF92BF92C2
:10337000CF92DF92EF92FF920F931F93CF93DF9341
:1033800000D000D00F92CDB7DEB76C016D8379838A
:10339000FC011281058102950F700E94B722E82E70
:1033A0008823A1F0E12E112389F08981807F803468
:1033B00029F08D81805EE12C883040F082E00E940F
:1033C00058230E94B72291E0E82EE926A980A29412
:1033D0009FE0A922B12CF501E05DF04D0C94862E02
:1033E00009810F70F981F07F11F00295007F1123A0
:1033F000B1F0002361F08D81805E883018F02D815E
:10340000211109C0802F0E94C1220E940D238D81AD
:103410000E940D1915C0802F0E94D222F6CF8D81F7
:103420000E945A19002361F08D81805E883018F067
:103430004D81411133C0802F0E94C7220E940D236D
:1034400088E0A81AB10894E0A916B10420F40E94FB
:103450009D170E944C06EE2009F4E6C10E94B3229B
:1034600080FDE2C1F60112820E94AD220E94BC20C2
:10347000C6010E943B1C0E94AD220F900F900F903E
:103480000F900F90DF91CF911F910F91FF90EF90D0
:10349000DF90CF90BF90AF900C94ED20802F0E94D2
:1034A000D822CCCF59815F70F52E6981607F603260
:1034B00019F0F29480EFF8227D81772369F0713062
:1034C00049F1112391F1002351F1F601858180FF2B
:1034D0009ECF8F70858323C0112381F0011106C018
:1034E0000E94F4228F290E94A819AACF0130C1F7A7
:1034F0000E94F4228F290E94FA22A2CF011106C055
:103500000E9403238F2D0E94AF199ACF013009F436
:1035100097CFF6CF112329F0063008F091CF8F2DE9
:10352000E2CF053008F08CCFEDCF002359F3FD81B9
:10353000F93369F42FEF47EE53E0215040405040FB
:10354000E1F700C000008D810E945A1979CF6FEF1A
:1035500079EF80E0615070408040E1F7F2CF8981DF
:1035600086958695837069F0813009F069CF8D81E9
:1035700099819370111102C090E080E00E94E917D8
:103580005FCF8D8199819370111102C090E080E02E
:103590000E94D31755CF8D81112339F00E942A0A3A
:1035A0000E94150B0E94150B4BCF0E94920AFACF76
:1035B0008981837009F059C0111142CF4D81429524
:1035C00046954770440F440F8D818F7090E0B0E0B6
:1035D000A0E0042E04C0880F991FAA1FBB1F0A94E5
:1035E000D2F7ED8100E010E09801E4FF0FC00FE09A
:1035F00010E020E030E004C0000F111F221F331F35
:103600004A95D2F70095109520953095F981F69559
:10361000F695F370FD83B901A801482B592B6A2B4D
:103620007B2B49835A836B837C83F23081F0F330A8
:10363000A9F0F13029F0CB01BA010E94322000CF6D
:1036400069817A818B819C810E940A20F9CE6981EF
:103650007A818B819C810E945A20F2CE69817A8185
:103660008B819C810E940820EBCE8695112311F05E
:1036700089818170882309F4E3CE4D814295469576
:103680004770440F440F8D818F7090E0B0E0A0E050
:10369000042E04C0880F991FAA1FBB1F0A94D2F7DB
:1036A0005D8100E010E0980154FF0FC00FE010E0D2
:1036B00020E030E004C0000F111F221F331F4A9585
:1036C000D2F700951095209530956981669566959D
:1036D00063706D83B901A801482B592B6A2B7B2B92
:1036E00049835A836B837C835D8169817A818B8175
:1036F0009C81523051F0533059F0513019F00E94F2
:103700007B219ECE0E9453219BCE0E94A32198CE66
:103710000E94862095CE69816F706983112329F0FC
:10372000862F0E94BC208D81DECE8D810E94AF1934
:1037300089810E94ED2084CE7D81723FA1F160F4E9
:10374000703FE1F0713F41F1112309F445C00111CF
:103750005ECE89818F7124C08D81833F49F1843F82
:1037600099F7112379F199819F719983892F0E948B
:10377000BC2063E089810E94432362CE112341F083
:10378000053008F05DCE89818F710E94222158CECC
:10379000063008F055CEF7CF89818F71112349F299
:1037A0000E94BC204DCE89818F711123C9F3C1CFF6
:1037B000112329F089818F710E94972041CE0E94A8
:1037C00092203ECE81E00E945823023008F438CE89
:1037D00082E00E94582334CE002399F0ED81E93332
:1037E00041F4FFEF27EE43E0F15020404040E1F785
:1037F000A8CE5FEF69EF70E0515060407040E1F794
:10380000A0CE89818F7195CF49814F706D81C6019E
:103810000E9454060E947C1F13CE49814F706D8117
:10382000C6010E9457060CCE0F900F900F900F907C
:103830000F90DF91CF911F910F91FF90EF90DF904C
:10384000CF90BF90AF9008950F931F93CF93DF93C6
:10385000EC01688179818A810E946F228C010E942B
:10386000CB210E940720B801CE01DF91CF911F919B
:103870000F910C94B619CF93DF93EC018B819C814F
:10388000892B29F08881998189238F3F59F4DF9111
:10389000CF910895CE010E94241CCE01DF91CF91DB
:1038A0000C945304CE010E9453058111F3CF0E9462
:1038B000B722882361F38A81882349F382E0DF916C
:1038C000CF910C94582390E080E00E94D31790E0B1
:1038D00080E00E94E9170E94E0220E94F1220E94EB
:1038E0000D230E94C10C0C94150B0E94A7220C946E
:1038F000631C0E94CF220C94751C282F892F82955F
:103900008F70903C80F48A30B0F4843020F48230A0
:1039100090F480E008958630E1F781E0283E88F059
:10392000213FB9F70EC08C3011F08F3091F793FB27
:10393000882780F9089581E0203F39F018F4283E67
:1039400040F70895243F29F7FCCF08950E94632291
:103950000C947D1CCF93DF9300D000D00F92CDB795
:10396000DEB70F900F900F900F900F90DF91CF91D7
:103970000895CF93DF9300D000D000D0CDB7DEB74D
:1039800026960FB6F894DEBF0FBECDBFDF91CF9164
:1039900008951F93CF93DF93E091D60116E08091B5
:1039A000D7018E1304C0DF91CF911F910895CE2FC0
:1039B000D0E01E9FF0011124E852FE4F408151815A
:1039C00062817381848195810E94B91CFE013196C8
:1039D000E770E5CF409108025091090260910A0218
:1039E00070910B0280910C0290910D020C94B91C05
:1039F0001F93CF93DF9380910D02807FA9F4809174
:103A00000A02882389F08091D601C091D701609184
:103A1000080270910902A0910B02B0910C02D62FFE
:103A2000D72316E0C81304C0DF91CF911F910895EA
:103A300090E0109711F0DF3F19F401968770F2CFF4
:103A4000189F9001199F300D1124F901E852FE4F83
:103A500041814713F2CF40814613EFCF428141119C
:103A6000ECCF438154814A1B5B0B483C510528F73E
:103A700080910D028F70806180930D02F901E352F5
:103A8000FE4F80818F708061808388E092E00E9489
:103A90003B1CDF91CF911F910C94C91CAF92BF9238
:103AA000CF92DF92EF92FF920F931F93CF93DF930A
:103AB000CDB7DEB72B970FB6F894DEBF0FBECDBFE4
:103AC0008C0185E0F801DE01179601900D928A9530
:103AD000E1F7F80140815181E28088E0C82E82E060
:103AE000D82E60910B0270910C026115710509F4DA
:103AF00044C19091080220910902822F89238F3FAF
:103B000009F43BC1A380B480F0900A02F501E61BE2
:103B1000F70BFF2009F4E0C080910D02382F307FB1
:103B2000E83CF10508F0B2C0311179C0FE2C251334
:103B300023C0941321C0E1101FC08F708061809357
:103B40000D020E94EA1CC6010E943B1C80910D02DE
:103B5000F80185838F2D2B960FB6F894DEBF0FBE2C
:103B6000CDBFDF91CF911F910F91FF90EF90DF902C
:103B7000CF90BF90AF900895AB2829F0842F852374
:103B80008F3F09F016C180E0F82FF170DF2EE09131
:103B9000D6012091D70136E080FD1CC0EE20D1F285
:103BA00080910D02816080930D02F12CD3CF8E2F76
:103BB00090E03E9FF0011124E852FE4F61816513B1
:103BC00006C06081641303C06281E612E7CFFC0186
:103BD0003196E770E213EBCF4F8358878F8198853A
:103BE0000E946322292F22952F70903260F0225F6D
:103BF0002F70223078F49F7051F0F8019581907FFA
:103C000031F4D12C0AC09F7011F08823D1F3805E6B
:103C10008830B8F3C8010E943B1CFD2C9BCF2513B4
:103C200006C0941304C0F801EE2009F470C04F835D
:103C300058878F8198850E94A61C882319F1EE2051
:103C400009F180910D02803270F0209108023091CC
:103C500009023A8329831B82BD82AC828E83CE0106
:103C600001960E943B1C86E0F801A8E0B2E00190BA
:103C70000D928A95E1F70E94F81C0E94EA1CFF242D
:103C8000F39468CFC8010E943B1CF9CF311113C0D7
:103C90007A2DBB86AA866E2D8B850E94AA1C88E091
:103CA00092E00E943B1C86E0F60111928A95E9F7AA
:103CB0000E94EA1C7ACF2513BACF9413B8CFE11033
:103CC000B6CFF8018583C8010E943B1C86E0F6014F
:103CD00011928A95E9F73ECFE83CF10508F040C023
:103CE000FE2CEE2079F225132AC0941328C080916F
:103CF0000D0280FD1BC0982F907FC1F0F8018583D5
:103D0000903F31F0982F907F905F8F70892B858343
:103D1000C8010E943B1C86E0F801A8E0B2E00190D7
:103D20000D928A95E1F70E94EA1C14CF86E0F80113
:103D3000A8E0B2E001900D928A95E1F70BCF4F8396
:103D400058878F8198850E94A61C81118CCF809105
:103D50000D02816080930D02C8010E943B1CFACEC7
:103D60007A2DBB86AA866E2D8B850E94AA1C86E0C2
:103D7000F60111928A95E9F7D6CFEE2009F482CFA9
:103D80004F8358878F8198850E94A61CF82E882320
:103D900009F478CF86E0F801A8E0B2E001900D9236
:103DA0008A95E1F788E092E00E9408190E94F81CC9
:103DB000BACF81E08E25E8CE1F93CF93DF93CDB7A6
:103DC000DEB72C970FB6F894DEBF0FBECDBF4F8382
:103DD000588769877A878B879C87CE0107960E94D0
:103DE0004E1D882369F08A859B85892B39F04F8188
:103DF0005885842F85238F3F09F077C016E065C072
:103E000086E0FE013796DE01119601900D928A95AB
:103E1000E1F76A857B856115710581F35F814885CE
:103E2000842F85238F3F51F32091D70130E0C901C2
:103E3000019687709927E091D601E817190671F469
:103E40000E94791C1092D7011092D60186E0E8E01A
:103E5000F2E0DF011D928A95E9F7D0CF59834A83BA
:103E60007D836C8396E0929FD001939FB00D1124C7
:103E7000A852BE4FFE01319601900D929A95E1F73E
:103E80008093D7010E94C91CB9CF819FC001112422
:103E900088529E4F0E944E1D8823E9F0E091D60182
:103EA0001E9FF0011124E852FE4F40815181628132
:103EB0007381848195810E94B91C8091D60190E024
:103EC0000196877099278093D6018091D6019091B1
:103ED000D7018913DACF2C960FB6F894DEBF0FBE48
:103EE000CDBFDF91CF911F91089569857A858B852C
:103EF0009C850E94B91C82CFEF92FF920F931F9373
:103F0000CF93DF938C01892B89F0F12CEE24E3947D
:103F1000E8012196F8018491843709F457C0A0F490
:103F2000823009F43EC048F48130D1F0DF91CF9166
:103F30001F910F91FF90EF9008959CEF980F90378D
:103F4000A8F70E940D190AC0853709F44CC09CE7F8
:103F5000980F903758F78F770E945A198E0116C024
:103F60000E5F1F4FFE01849190E2980F983060F42D
:103F70008770FE2D01C0FF0F8A95EAF78F2F0E94F0
:103F8000E3220E940D2302C00E940D198F2D815043
:103F900008F4BECFEFE9FFE03197F1F700C0000071
:103FA000F6CF0E5F1F4FFE01849190E2980F98307C
:103FB00050F48770FE2D01C0FF0F8A95EAF78F2F0E
:103FC0000E94E922DECF0E945A19E0CF0E5F1F4FF8
:103FD000FE01C491C150D0F28FE99FE00197F1F743
:103FE00000C00000F7CF0E5F1F4FFE01F490CECF50
:103FF00008950C94F81F0E94F91F6093210270939A
:10400000220280932302909324020C94631C08954F
:104010000C94FB1FCF93DF9300D000D0CDB7DEB759
:1040200069837A838B839C83809121029091220201
:10403000A0912302B091240229813A814B815C81B5
:10404000282B392B4A2B5B2B29833A834B835C83A8
:10405000CA01B9010F900F900F900F90DF91CF918F
:104060000C94FB1FCF93DF9300D000D0CDB7DEB709
:1040700069837A838B839C838091210290912202B1
:10408000A0912302B091240229813A814B815C8165
:10409000282339234A235B2329833A834B835C8378
:1040A000CA01B9010F900F900F900F90DF91CF913F
:1040B0000C94FB1FCF93DF9300D000D0CDB7DEB7B9
:1040C00069837A838B839C83809121029091220261
:1040D000A0912302B091240229813A814B815C8115
:1040E000282739274A275B2729833A834B835C8318
:1040F000CA01B9010F900F900F900F90DF91CF91EF
:104100000C94FB1F0C94F81F0C9482200E948420B6
:1041100060931D0270931E0280931F0290932002F1
:104120000C94631C60E070E0CB010C9486200F932C
:104130001F93CF93DF9300D000D0CDB7DEB741E01F
:1041400050E060E070E08A019B0104C0000F111F85
:10415000221F331F8A95D2F709831A832B833C834E
:10416000C901B8010F900F900F900F90DF91CF9180
:104170001F910F910C9486200F931F93CF93DF9381
:1041800000D000D0CDB7DEB741E050E060E070E095
:1041900004C0440F551F661F771F8A95D2F7809180
:1041A0001D0290911E02A0911F02B09120028A016F
:1041B0009B01082B192B2A2B3B2B09831A832B835A
:1041C0003C83C901B8010F900F900F900F90DF91C1
:1041D000CF911F910F910C9486200F931F93CF9333
:1041E000DF9300D000D0CDB7DEB741E050E060E013
:1041F00070E004C0440F551F661F771F8A95D2F7E1
:10420000409550956095709580911D0290911E0289
:10421000A0911F02B09120028A019B01082319235B
:104220002A233B2309831A832B833C83C901B801CA
:104230000F900F900F900F90DF91CF911F910F91E2
:104240000C9486200F931F93CF93DF9300D000D060
:10425000CDB7DEB741E050E060E070E004C0440F4D
:10426000551F661F771F8A95D2F780911D02909186
:104270001E02A0911F02B09120028A019B01082713
:1042800019272A273B2709831A832B833C83C901DB
:10429000B8010F900F900F900F90DF91CF911F9169
:1042A0000F910C948620CF93DF9300D000D0CDB730
:1042B000DEB769837A838B839C8380911D02909102
:1042C0001E02A0911F02B091200229813A814B81E8
:1042D0005C81282B392B4A2B5B2B29833A834B8318
:1042E0005C83CA01B9010F900F900F900F90DF917E
:1042F000CF910C948620CF93DF9300D000D0CDB720
:10430000DEB769837A838B839C8380911D029091B1
:104310001E02A0911F02B091200229813A814B8197
:104320005C81282339234A235B2329833A834B83E7
:104330005C83CA01B9010F900F900F900F90DF912D
:10434000CF910C948620CF93DF9300D000D0CDB7CF
:10435000DEB769837A838B839C8380911D02909161
:104360001E02A0911F02B091200229813A814B8147
:104370005C81282739274A275B2729833A834B8387
:104380005C83CA01B9010F900F900F900F90DF91DD
:10439000CF910C9486200895E92FEE0FEE0FE80FD1
:1043A0008E2F877041E001C0440F8A95EAF7E695A9
:1043B000E695E69585E0E89FF0011124E25FFD4F68
:1043C00030E020E070E05191DF011197CB01022E27
:1043D00002C0969587950A94E2F7817081958527AA
:1043E000842385278C932F5F3F4F2530310559F764
:1043F0000895E92FEE0FEE0FE80F9E2F9770E695C8
:10440000E695E69585E0E89FF0011124E25FFD4F17
:1044100050E040E080E0219130E0092E02C0369566
:1044200027950A94E2F721703327042E01C0220F4A
:104430000A94EAF7822B4F5F5F4F4530510559F7D9
:104440000895BF92CF92DF92EF92FF920F931F9346
:10445000CF93DF938C01C0901D02D0901E02E0909C
:104460001F02F09020028091210290912202A091DF
:104470002302B0912402C82AD92AEA2AFB2ACFE1D2
:10448000D0E0BC2ED701C6010C2E04C0B695A7956E
:10449000979587950A94D2F780FD0EC0219788F7EB
:1044A000B12C8B2DDF91CF911F910F91FF90EF9049
:1044B000DF90CF90BF900895B8018C2F0E946006C6
:1044C000019761F3EECFCF93DF93D82FC92F0E94CE
:1044D00021226D2F7C2FDF91CF910C9460061F93CA
:1044E000CF93DF93162FD72F9091D501992339F0D1
:1044F000862F972FDF91CF911F910C9463228823F1
:1045000091F0862F972F0E942122C82F682F812F8C
:104510009D2F0E94CC21612F7D2F8C2FDF91CF9179
:104520001F910C946006862F972F0E94F921C82FA7
:10453000F2CF682F80910F01909110010C94B92453
:10454000682F80910F01909110010C94C4248091E8
:104550000F01909110010C94CF2480912502859534
:10456000859585950895809125028770089590918D
:104570002502977081E009F480E008958091490256
:10458000089590914902982B909349020895982F8D
:104590009095809149028923809349020895109251
:1045A0004902089590914802982B909348020895EB
:1045B000982F90958091480289238093480208950E
:1045C00010924802089590914702982B90934702C9
:1045D0000895982F909580914702892380934702F0
:1045E0000895109247020895809126020895089533
:1045F0000C94F72290912602981721F080932602BE
:104600000C94F822089580912602882329F01092B4
:10461000260280E00C94F8220895E0910F01F091B9
:104620001001809149028083E0910F01F091100107
:10463000808190914802892B8083E0910F01F09155
:104640001001808190914702892B808390912602EE
:10465000992381F0E0910F01F09110018081892B65
:10466000808380910F01909110010E94212481117B
:104670000E94032380910F01909110010C94A917BF
:1046800008950C94402398E0899F90011124622B97
:10469000609325020E94BC20809125028595859516
:1046A00085950C9441231092250280E00C944123BF
:1046B000909125028095892380932502282F2770C9
:1046C00071F4282F082E000C330B9217130639F0C3
:1046D0008595859585950E94ED200C94532308952A
:1046E0006FEF7FEF90E080E00C94D52E90E080E0BB
:1046F0000E94B12E9C0181E02B3E3E4F09F080E0EC
:10470000089582E090E00C94A32E83E090E00C9456
:10471000A32ECF9384E090E00E94A32EC82F81E2C5
:1047200090E00E94A32E982F8C2FCF910895CF93C5
:10473000682FC92F84E090E00E94B72E6C2F81E291
:1047400090E0CF910C94B72EAB01BC018FE090E0CC
:104750000C94C92EAB01BC0183E190E00C94C92EEE
:1047600060E070E0CB010C94AA2360E070E0CB0124
:104770000E94A4230C94B0236BEE7EEF90E080E0C7
:104780000E94D52E60E082E090E00E94B72E60E0AB
:1047900083E090E00E94B72E109221021092220234
:1047A000109223021092240260E084E090E00E94C4
:1047B000B72E60E081E290E00E94B72E60E085E0D5
:1047C00090E00E94B72E60E086E090E00E94B72E55
:1047D0006FEF87E090E00E94B72E40E050E0BA0112
:1047E00088E090E00E94C92E60E08DE090E00E9499
:1047F000B72E40E050E0BA0188E190E00E94C92E57
:1048000060E087E190E00E94B72E40E050E0BA01FE
:104810008CE190E00E94C92E60E080E290E00E946E
:10482000B72E40E050E0BA0188E190E00E94C92E26
:104830000C94B5230C94BC23682F8EE090E00C946C
:10484000B72EFC01329680911B01882321F08091C4
:1048500090029EE187FF96E080E0915008F4089571
:1048600021912223D1F38F5FF8CF9C01662301F1C0
:1048700080911B018823F1F08091900287FF1AC07C
:10488000462F469546954695603F90F4677081E0C7
:1048900090E002C0880F991F6A95E2F7240F311D3E
:1048A000F901228130E02823392381E0232B71F4A0
:1048B00080E00895F9013296285F3F4F8191861775
:1048C00021F0E217F307D1F7F3CF81E008959C01BF
:1048D000FC0132968FEF90E04191461751F08F3FE7
:1048E00019F4411101C0892F9F5F9630A9F78F3FBE
:1048F00009F40895280F311D87FD3A95F901628367
:1049000008959C01FC013296285F3F4F81918613E8
:1049100003C0DF0111971C92E217F307B9F708955E
:10492000E62FE695E695E695603F68F4E80FF92FE7
:10493000F11D677021E030E001C0220F6A95EAF7AF
:104940008281822B82830895E62FE695E695E6958F
:10495000603F70F4E80FF92FF11D677081E090E07F
:1049600001C0880F6A95EAF7809592818923828336
:10497000089520911B01222329F02091900227FD08
:104980000C9490240C94672420911B01222329F07D
:104990002091900227FD0C94A4240C948124FC0106
:1049A000329680911B01882351F08091900287FFFD
:1049B00006C08EE1DF011D928A95E9F7089586E031
:1049C000F9CF089508950C94E224809196028430E2
:1049D00049F10E94E32480E00E944C0610924B02B1
:1049E00088E190E020E40FB6F894A89580936000E9
:1049F0000FBE2093600083B7817F846083BF83B73D
:104A0000816083BF7894889583B78E7F83BF0FB60C
:104A1000F894A8958091600088618093600010925E
:104A200060000FBE08950895CF930E94E1240E9474
:104A3000F5080E941325C0E08C2F0E9453088111B5
:104A400005C0CF5FC530C1F7CF91089581E0FCCF9D
:104A500008950C9428250E94791C0E949D170E949D
:104A60004C060C9429251F921FB61F9211248F9378
:104A70009F93AF93BF9380914B02811113C080919C
:104A80008C0290918D02A0918E02B0918F0241967E
:104A9000A11DB11D80938C0290938D02A0938E0274
:104AA000B0938F02BF91AF919F918F911F901FBEC6
:104AB0001F90189582E084BD93E095BD9AEF97BD55
:104AC00080936E0008952FB7F89480918C02909196
:104AD0008D02A0918E02B0918F022FBF0895CF93C7
:104AE000DF9300D000D0CDB7DEB78FB7F894209118
:104AF0008C0230918D0240918E0250918F02298359
:104B00003A834B835C838FBF69817A818B819C81DF
:104B10000F900F900F900F90DF91CF9108959C010F
:104B20004FB7F89480918C0290918D02A0918E02E3
:104B3000B0918F024FBF821B930B089578941F9200
:104B40001FB61F9211248F939F93AF93BF938091B1
:104B50008C0290918D02A0918E02B0918F020196ED
:104B6000A11DB11D80938C0290938D02A0938E02A3
:104B7000B0938F02BF91AF919F918F911F901FBEF5
:104B80001F90189587E797E7909301088093000896
:104B900088E19AE00FB6F894A895809360000FBE64
:104BA00090936000FFCF9093A5018093A401089596
:104BB0000C94F1100E94F5088FE39CE90197F1F73E
:104BC00000C000000E94F50880E00E94530880FFAA
:104BD00004C00E94D8250C94C2250895CF93DF937A
:104BE00000D000D0CDB7DEB70E947623811102C07D
:104BF0000E941A240E94812380934A020E948923E2
:104C000090939102809390020E948523282F30E098
:104C100050E040E0CA01B9010E94082080911D02C5
:104C200090911E02A0911F02B091200289839A8365
:104C3000AB83BC83BC01CD010F900F900F900F9000
:104C4000DF91CF910C94842080916F020895CF93CF
:104C5000DF9300D00F92CDB7DEB7909196029430DB
:104C600011F589836A837B839093E9008FEF90919C
:104C7000E800815095FD06C095ED9A95F1F700008A
:104C80008111F5CF8091E80085FF0DC050E040E034
:104C900063E070E0CE0101960E947C298091E800DB
:104CA0008E778093E8000F900F900F90DF91CF9157
:104CB0000895BC0184E00C942726BC0183E00C9489
:104CC000272624E02093E9002FEF3091E8002150BF
:104CD00035FD06C035ED3A95F1F700002111F5CF0D
:104CE0002091E80025FF0BC050E040E066E070E056
:104CF0000E947C298091E8008E778093E8000895D7
:104D0000CF93DF93D82FC92F80911B018823C1F146
:104D10008091900287FF34C060E284E08093E900D4
:104D20008FEF9091E800815095FD06C095ED9A9522
:104D3000F1F700008111F5CF8091E80085FF1DC0DB
:104D400080911B0170E050E040E0811104C050E010
:104D500040E068E070E08D2F9C2F0E947C298091BC
:104D6000E8008E778093E80080E2ED2FFC2FAFE41F
:104D7000B2E001900D928A95E1F7DF91CF9108950D
:104D800068E081E0CBCFCF93603219F52091960295
:104D90002430F9F4C091E900CF703091EC00232F5A
:104DA000217030FD20E8C22B22E02093E900209101
:104DB000E80020FF0BC050E040E060E270E00E949D
:104DC0007C298091E8008E778093E800CF70C093B3
:104DD000E900CF91089585E294E00E946C038091F0
:104DE0009502811109C00E94532B0E94B02B809123
:104DF000E20084608093E200089581E294E00E94E2
:104E00006C031092950208958DE194E00C946C036C
:104E100089E194E00C946C0385E194E00C946C03BC
:104E200020914D022F5F822F62E30E94522E992320
:104E300019F020934D02089510924D0280914E0278
:104E40008823F1F0809196028430C1F49091E900BA
:104E50009F702091EC00822F817020FD80E8892BCB
:104E600095E09093E9009091EB0090FF04C0909141
:104E7000EE0097FD08C08F708093E90010924E02FB
:104E800008951092F1009091E80095FDFACF90916D
:104E9000E80090FFF0CF9091E8009E779093E800B3
:104EA000EACF42E061EC81E00E94CF2A42E261EC6D
:104EB00084E00E94CF2A42E261EC82E00E94CF2A85
:104EC00042E260EC83E00E94CF2A42E261EC85E09E
:104ED0000C94CF2A80919802893089F148F482306D
:104EE00009F49EC0833009F459C0813041F008951F
:104EF0008A3009F485C08B3009F46BC00895809125
:104F00009702813A09F049C08091E800877F809339
:104F1000E80080919B0290919C02892B61F460E2F1
:104F20008FE492E070E00E941A2A8091E8008B776B
:104F30008093E800089560E090E080E0F3CF8091F6
:104F40009702813251F580919B0290919C028D7F56
:104F5000892B19F58091E800877F8093E800809184
:104F6000E80082FF16C09091F3008091F200029752
:104F700029F48091F1008B7F813021F48091F10040
:104F800080936F028091E8008B778093E8000C9407
:104F9000032B809196028111E2CF089580919702B0
:104FA000813AD9F780919B0290919C02892BA9F7B5
:104FB0008091E800877F8093E8008091E80080FF7F
:104FC000FCCF80911B018093F1008091E8008E77E7
:104FD000DCCF80919702813201F780919B02909102
:104FE0009C02892BD1F68091E800877F8093E800AE
:104FF0000E94032B8091990280931B010C94791CD1
:1050000080919702813249F68091E800877F8093F2
:10501000E8000E94032B80919A0280937002089509
:1050200080919702813A09F0B8CF8091E800877F9C
:105030008093E8008091E80080FFFCCF80917002AF
:10504000C2CF9FB7F89410924E029FBF90919602E4
:10505000943009F048C02091E9002F703091EC00A5
:10506000932F917030FD90E8922B25E02093E9007A
:105070002091EB0020FF34C02091EE0027FF30C0CC
:1050800020914C02222321F02091E80025FF28C026
:1050900010924C0226E03091E80035FF14C0809356
:1050A000F1008091E80085FD27C08091E80080FF35
:1050B000FCCF8091E8008E778093E8009F709093FA
:1050C000E90080E0089530919602343049F430913F
:1050D000EB0035FD05C0215041F481E080934C0286
:1050E0009F709093E9008FEF0895EFE9FFE031970B
:1050F000F1F700C00000CFCF8FB7F89421E02093E4
:105100004E028FBFDBCFCDB7DEB7A0970FB6F894B6
:10511000DEBF0FBECDBF84B7877F84BF0FB6F894C4
:10512000A895809160008861809360001092600073
:105130000FBE80E890E00FB6F894809361009093E2
:1051400061000FBE0E9420180E94532B0E94B02BBA
:105150008091E20084608093E20078940E94372E70
:105160000E94301881E191E00E94981784E094E059
:105170000E946C0313E080919602853051F480E028
:1051800094E00E946C0380919602853069F00E9441
:105190002B250E943C18809196028430A1F00E9439
:1051A0002E180E942F18E7CF0E94E52480919402C8
:1051B000882349F30E941425882329F30E94662935
:1051C0000E94791CE0CF1093E9008091E80082FFF3
:1051D000E6CF8091E80090E085FF09C050E040E014
:1051E00060E270E0CE0101960E94CB2991E08091AF
:1051F000E8008B778093E800992389F260E2CE0182
:1052000001960E94B611CBCF0C940629FC01CB016C
:10521000DA012F2F332723303105D1F070F42130FC
:10522000310509F44EC02230310569F48BE790E076
:1052300021E634E02D933C9308952132310521F18C
:105240002232310571F190E080E030E020E0F2CFD1
:10525000CF019927E230A9F08330910550F40097EF
:1052600069F0E1E5F4E0019771F7849190E09F0126
:10527000E1CFE9E2F4E00397C1F3E5CFEDE5F4E037
:10528000F4CFE7E4F4E0F1CF64307105E0F6880F85
:10529000991FFC01E456FE4F2081318189E090E0A6
:1052A000C9CF6430710578F6FB01EE0FFF1FEC5695
:1052B000FE4F2081318180579E4FFC01808190E01C
:1052C000B9CF82E190E02CED34E0B4CF80E189BD2C
:1052D00082E189BD09B400FEFDCF8091D8008F7DA9
:1052E0008093D8008091E00082608093E0008091FC
:1052F000E00081FDFCCF0895AF92BF92CF92DF9284
:10530000FF920F931F93CF93DF936C01EB018A0100
:105310000E94222BF82E811123C00115110539F0AE
:10532000F80180819181C81BD90BC80ED91EB12C00
:10533000A12C2097A9F08091E80085FD22C08091E2
:10534000E8008E778093E80001151105A1F0F801BF
:1053500080819181A80EB91EB182A08285E0F82ECD
:105360008F2DDF91CF911F910F91FF90DF90CF9004
:10537000BF90AF9008950E94222B8823D1F2F82E7F
:10538000EFCFF60181916F018093F1002197FFEF3C
:10539000AF1ABF0ACECFAF92BF92CF92DF92FF92E9
:1053A0000F931F93CF93DF936C01EB018A010E944F
:1053B000222BF82E811123C00115110539F0F801B7
:1053C00080819181C81BD90BC80ED91EB12CA12C8C
:1053D0002097A9F08091E80085FD22C08091E80027
:1053E0008B778093E80001151105A1F0F801808109
:1053F0009181A80EB91EB182A08285E0F82E8F2D72
:10540000DF91CF911F910F91FF90DF90CF90BF90D0
:10541000AF9008950E94222B8823D1F2F82EEFCF6F
:105420008091F100F60181936F012197FFEFAF1A90
:10543000BF0ACECFFC01CB0120919D0230919E028C
:105440002617370790F0009729F42091E8002E776F
:105450002093E80040E0009751F4411108C080918A
:10546000E80082FF31C080E00895C901F3CF2091A8
:1054700096022223A9F12530A9F12091E80023FD0D
:105480002DC02091E80022FDEACF2091E80020FF06
:10549000E2CF3091F3002091F200009719F028300C
:1054A000310558F041E02830310509F040E0209105
:1054B000E8002E772093E800CECF41914093F10091
:1054C00001972F5F3F4FE9CF80919602882341F0EB
:1054D000853041F08091E80083FFC1CF81E00895DD
:1054E00082E0089583E00895FC01CB0120919D02A4
:1054F00030919E022617370790F0009729F42091EB
:10550000E8002E772093E80040E0009751F4411125
:1055100008C08091E80082FF32C080E00895C90190
:10552000F3CF209196022223B1F12530B1F12091E1
:10553000E80023FD2EC02091E80022FDEACF209153
:10554000E80020FFE2CF3091F3002091F2000097B5
:1055500019F02830310558F041E02830310509F0C4
:1055600040E02091E8002E772093E800CECF4491D0
:105570004093F100319601972F5F3F4FE8CF809124
:105580009602882341F0853041F08091E80083FF46
:10559000C0CF81E0089582E0089583E00895982FB8
:1055A000973028F08F708093E90081E00895909300
:1055B000E900242F762F50E0981731F07091EC001D
:1055C0002091ED005091F00021FD02C09F5FE8CFD7
:1055D0003091EB003E7F3093EB003091ED003D7F4A
:1055E0003093ED003091EB0031603093EB0070931D
:1055F000EC002093ED005093F0002091EE0027FD89
:10560000E5CF80E008958091970287FF13C08091D5
:10561000E80082FF06C08091E8008B778093E80065
:1056200004C0809196028111F2CF08958091960274
:105630008823D9F38091E80080FFF8CF8091E800BB
:105640008E77ECCF2091E4003091E50095E6A9013A
:105650002091EC00822F817020FF06C08091E8002D
:1056600080FF06C080E008952091E80022FD1AC066
:1056700080919602882389F0853089F08091EB0033
:1056800085FD0FC02091E4003091E50042175307DB
:10569000F9F29150E1F684E0089582E0089583E004
:1056A000089581E008950E94C12B0E94C92BE0EE6D
:1056B000F0E0808181608083E8EDF0E080818F7789
:1056C000808319BCA7EDB0E08C918E7F8C93808194
:1056D0008F7E80831092950208950F931F93CF932E
:1056E000DF930E94C12B0E94C92BC8EDD0E08881B6
:1056F0008F77888388818068888388818F7D88837D
:1057000019BC10929602109292021092940210927A
:10571000930200EE10E0F80180818B7F8083888106
:105720008160888342E060E080E00E94CF2AE1EE61
:10573000F0E080818E7F8083E2EEF0E08081816006
:105740008083808188608083F80180818E7F808360
:10575000888180618883DF91CF911F910F91089597
:10576000E8EDF0E080818F7E8083E7EDF0E08081DE
:105770008160808384E082BF81E0809395020C94F5
:105780006D2BE8EDF0E080818E7F80831092E20047
:1057900008951092DA001092E10008951F920F927E
:1057A0000FB60F9211242F933F934F935F936F93F4
:1057B0007F938F939F93AF93BF93EF93FF938091CA
:1057C000E10082FF0BC08091E20082FF07C0809160
:1057D000E1008B7F8093E1000E9410278091DA0026
:1057E00080FF19C08091D80080FF15C08091DA0039
:1057F0008E7F8093DA008091D90080FF94C080E191
:1058000089BD82E189BD09B400FEFDCF81E08093AE
:1058100096020E94EB268091E10080FF19C08091E2
:10582000E20080FF15C08091E2008E7F8093E2004D
:105830008091E20080618093E2008091D8008062D4
:105840008093D80019BC85E0809396020E940827B7
:105850008091E10084FF29C08091E20084FF25C08F
:1058600080E189BD82E189BD09B400FEFDCF809150
:10587000D8008F7D8093D8008091E1008F7E809347
:10588000E1008091E2008F7E8093E2008091E2004F
:1058900081608093E20080919202882309F449C0DC
:1058A00084E0809396020E940C278091E10083FFA0
:1058B00029C08091E20083FF25C08091E100877FAD
:1058C0008093E10082E08093960210929202809190
:1058D000E1008E7F8093E1008091E2008E7F8093D3
:1058E000E2008091E20080618093E20042E060E0AB
:1058F00080E00E94CF2A8091F00088608093F000C1
:105900000E940427FF91EF91BF91AF919F918F91DA
:105910007F916F915F914F913F912F910F900FBEAB
:105920000F901F90189519BC109296020E94FD26A8
:1059300072CF8091E30087FD02C081E0B2CF83E0A7
:10594000B0CF1F920F920FB60F9211242F933F9357
:105950004F935F936F937F938F939F93AF93BF9377
:10596000CF93DF93EF93FF93D091E900DF708091A5
:10597000EC00C82FC17080FDC0E81092E900809152
:10598000F000877F8093F00078940E94E52C1092BD
:10599000E9008091F00088608093F000CD2BCF70FB
:1059A000C093E900FF91EF91DF91CF91BF91AF914B
:1059B0009F918F917F916F915F914F913F912F9127
:1059C0000F900FBE0F901F9018951F93CF93DF93EA
:1059D000CDB7DEB7AA970FB6F894DEBF0FBECDBF26
:1059E00087E992E0FC0101962091F100208322E0FA
:1059F0008F399207B9F70E946A278091E80083FFE8
:105A00001EC180919702909198029A3008F017C1B8
:105A1000E92FF0E0E05CF04D0C94862E803899F090
:105A2000823809F00CC180919B028F70873008F09A
:105A300006C18093E9008091EB0085FB882780F9FF
:105A40001092E90006C08091930290919402911106
:105A500082609091E800977F9093E8008093F10036
:105A60001092F1008091E8008E77E5C0882309F458
:105A7000D3C0823009F0E3C0809199028111D6C071
:105A800080919B028F702FEF280F263008F0D7C02F
:105A90008093E9002091EB0020FFC8C0933031F4DF
:105AA0008091EB0080628093EB00C0C09091EB008E
:105AB00090619093EB0021E030E001C0220F8A95C5
:105AC000EAF72093EA001092EA008091EB008860E8
:105AD000EACF8111B4C0109199021F778091E30041
