:100000000C9477040C94BE040C94BE040C94BE04AF
:100010000C94BE040C94BE040C94BE040C94BE0458
:100020000C94BE040C94BE040C949F2D0C94722E60
:100030000C940B270C94BE040C94BE040C94BE04C8
:100040000C94BE040C94BE040C94BE040C94BE0428
:100050000C94BE040C9476270C94BE040C94BE043D
:100060000C94BE040C94BE040C94BE040C94BE0408
:100070000C94BE040C94BE040C94BE040C94BE04F8
:100080000C94BE040C94BE040C94BE040C94BE04E8
:100090000C94BE040C94BE040C94BE040C94BE04D8
:1000A0000C94BE040C94BE040C94BE040153540082
:1000B00055005600240025002600000021002200E3
:1000C000230057001E001F00200000000000270032
:1000D0003700280001000100010001004A00520021
:1000E0004B000000500001004F0001004D00510086
:1000F0004E000000000049004C00010044454255FC
:10010000473A2064697361626C65642E0A00444555
:100110004255473A20656E61626C65642E0A0000A4
:10012000000000000000002A2B2800000000000052
:100130000000000000000000000029000000002C6A
:100140001E3420212224342627252E362D37382709
:100150001E1F202122232425263333362E37381F15
:100160000405060708090A0B0C0D0E0F10111213D7
:100170001415161718191A1B1C1D2F3130232D3575
:100180000405060708090A0B0C0D0E0F10111213B7
:100190001415161718191A1B1C1D2F3130354C0059
:1001A000000000000000000000000000000000004F
:1001B000000000000000000000000000000000003F
:1001C0000000007E0F00D4FFFFFFC7000000780A88
:1001D0000025303862003A200025303258000A727B
:1001E0002F632030313233343536370A00290A0084
:1001F0002575002F002575005D280025640020006E
:10020000256400200025640020002564007C002572
:10021000303258006D6F7573656B6579205B627461
:100220006E7C782079207620685D287265702F6159
:10023000636C293A205B007267626C69676874209E
:10024000736574207370656564205B4E4F4545503F
:10025000524F4D5D3A2025750A007267626C6967DE
:10026000687420736574207370656564205B454510
:1002700050524F4D5D3A2025750A007267626C69D5
:100280006768742073657420687376205B4E4F45F1
:100290004550524F4D5D3A2025752C25752C2575FE
:1002A0000A007267626C69676874207365742068FD
:1002B0007376205B454550524F4D5D3A2025752C95
:1002C00025752C25750A007267626C696768742051
:1002D00064697361626C65205B4E4F454550524FB7
:1002E0004D5D3A207267626C696768745F636F6E18
:1002F0006669672E656E61626C65203D2025750A12
:10030000007267626C696768742064697361626C0B
:1003100065205B454550524F4D5D3A207267626CD7
:10032000696768745F636F6E6669672E656E616288
:100330006C65203D2025750A007267626C696768EC
:100340007420656E61626C65205B4E4F454550526E
:100350004F4D5D3A207267626C696768745F636FC6
:100360006E6669672E656E61626C65203D2025753D
:100370000A007267626C6967687420656E61626CFE
:1003800065205B454550524F4D5D3A207267626C67
:10039000696768745F636F6E6669672E656E616218
:1003A0006C65203D2025750A007267626C6967687C
:1003B0007420746F67676C65205B454550524F4DE4
:1003C0005D3A207267626C696768745F636F6E661E
:1003D00069672E656E61626C65203D2025750A0097
:1003E0007267626C69676874206D6F6465205B4E2C
:1003F0004F454550524F4D5D3A2025750A007267B2
:10040000626C69676874206D6F6465205B45455058
:10041000524F4D5D3A2025750A007267626C69671C
:1004200068745F696E6974207267626C696768746A
:100430005F636F6E6669672E6D6F6465203D203067
:100440002E2057726974652064656661756C74202E
:1004500076616C75657320746F20454550524F4D21
:100460002E0A007267626C696768745F696E6974EE
:10047000206565636F6E666967206973206E6F74AF
:1004800020656E61626C65642E0A007267626C6939
:100490006768745F696E6974207374617274210A8D
:1004A000007267626C696768745F696E6974206363
:1004B000616C6C65642E0A007267626C69676874AF
:1004C0005F636F6E6669672E7370656564203D209B
:1004D00025640A007267626C696768745F636F6E97
:1004E0006669672E76616C203D2025640A0072677C
:1004F000626C696768745F636F6E6669672E7361AB
:1005000074203D2025640A007267626C6967687414
:100510005F636F6E6669672E687565203D20256490
:100520000A007267686C696768745F636F6E6669FA
:10053000672E6D6F6465203D2025640A0072676236
:100540006C696768745F636F6E6669672E656E615C
:10055000626C65203D2025640A007267626C6967E1
:1005600068745F636F6E66696720454550524F4DF2
:100570003A0A000001010101010101010102020228
:10058000020202020202030303030303030304043F
:100590000404040404050505050506060606060709
:1005A0000707070708080808090909090A0A0A0BC2
:1005B0000B0B0C0C0C0D0D0D0E0E0E0F0F0F101063
:1005C00011111112121313141415151616171718EA
:1005D0001819191A1A1B1B1C1D1D1E1E1F20202155
:1005E0002222232424252626272829292A2B2C2D9C
:1005F0002D2E2F30313232333435363738393A3BBD
:100600003C3D3E3F404142434445464748494A4CB1
:100610004D4E4F50515354555658595A5B5D5E5F7D
:10062000616264656668696B6C6D6F707273757713
:10063000787A7B7D7E8082838587888A8C8E8F9175
:10064000939596989A9C9EA0A2A3A5A7A9ABADAF9F
:10065000B1B3B5B7BABCBEC0C2C4C6C9CBCDCFD189
:10066000D4D6D8DBDDDFE2E4E7E9EBEEF0F3F5F832
:10067000FAFDFF0A002530325820006B6579626F61
:100680006172645F7265706F72743A20000A0025AF
:10069000303258006B6579626F6172645F736574A4
:1006A0005F6C65643A200064656C5F6B65795F62BE
:1006B00069743A2063616E27742064656C3A202562
:1006C0003032580A006164645F6B65795F626974F7
:1006D0003A2063616E2774206164643A20253032C9
:1006E000580A005B735D004B6579626F617264202C
:1006F00073746172742E0A005B575D005B535D007A
:100700005B525D005B445D005B435D0008036E006F
:1007100075006D0000000A0332004C0031005000EB
:1007200000000403090409027B00040100A0FA0987
:100730000400000103010100092111010001224010
:10074000000705810308000A0904010002030000F4
:100750000009211101000122220007058203200067
:100760000107050303200001090402000103000042
:100770000009211101000122B600070584032000B1
:100780000A0904030002030000000921110100010D
:10079000222200070585032000010705050320002C
:1007A000011201100100000008381323200100018C
:1007B0000200010631FF0974A1010975150026FF29
:1007C000009520750881020976150026FF00952006
:1007D00075089102C00660FF0961A1010962150058
:1007E00026FF009520750881020963150026FF0089
:1007F000952075089102C005010902A10185020931
:1008000001A10005091901290815002501950875A0
:100810000181020501093009311581257F95027595
:1008200008810609381581257F950175088106051F
:100830000C0A38021581257F950175088106C0C014
:1008400005010980A101850319012AB700150126B8
:10085000B700950175108100C0050C0901A1018543
:100860000419012AA002150126A002950175108124
:1008700000C005010906A1018505050719E029E762
:10088000150025019508750181020507190029EF5A
:100890001500250195F0750181020508190129054A
:1008A000950575019102950175039101C005010936
:1008B00006A101050719E029E7150025019508752E
:1008C0000181029501750881010507190029FF15AD
:1008D0000026FF0095067508810005081901290505
:1008E000950575019102950175039101C0001124D0
:1008F0001FBECFEFDAE0DEBFCDBF04B603FE27C0D8
:100900008091910290919202A0919302B0919402F1
:100910008730904BA740B04BD1F4109291021092C7
:100920009202109293021092940214BE84B7877FB1
:1009300084BF0FB6F894A895809160008861809379
:100940006000109260000FBEE0E0F8E3099511E04E
:10095000A0E0B1E0E6E1F2E602C005900D92AA390E
:10096000B107D9F722E0AAE9B1E001C01D92A1398F
:10097000B207E1F70E945B2A0C94AC300C940000A3
:10098000FF93EF93E0919A01F0919B01309709F06A
:100990000995EF91FF910895FC018591803011F048
:1009A000EFDFFBCF0895FF27E0E230E247FF0CC006
:1009B000419597FF09C0EDE26095709580959095FF
:1009C000611D711D811D911D27FF02C0219530E31E
:1009D00050E2AA27660F771F881F991FAA1FA41726
:1009E00010F0A41B63955A95A9F7AA3008F0A95FE7
:1009F000A05DAF93F395611571058105910541F7F0
:100A0000ED3211F4EF93F395F21718F43F93F39549
:100A1000FBCF8F91B5DFFA95E1F70895E991F99150
:100A20008591803021F0853219F0AADFF9CF089541
:100A300020E0E89455915532C1F3503311F4689495
:100A400055915A3348F4505390F3220F022E220F3F
:100A5000220F200D250FF4CF0EF421958991999145
:100A6000533619F3533729F1533559F1BC0188270F
:100A70009927E8945C3621F489919991689455916D
:100A8000543639F446EF7EF077FF0DC08FEF9FEFBD
:100A90000AC055374AE039F0583540E121F0523666
:100AA00042E009F00895FF93EF937DDFEF91FF910E
:100AB000B7CFFF93EF93FC0181918030B9F360DFF2
:100AC000FBCFFF93EF9368DFF1CFDF93CF93CDB7E9
:100AD000DEB72596A3DFCF91DF91089581E00895D9
:100AE00081E008950C94700508950C9474051F938B
:100AF000CF93DF9300D000D00F92CDB7DEB74983FC
:100B00005A836B833091C70189819A8131111DC04D
:100B10006623B9F02223A9F00E94D723182F682F4B
:100B200089819A810E94822369817A81812F0F9025
:100B30000F900F900F900F90DF91CF911F910C9419
:100B400056160E94AF23182FEFCF0E94D72369813A
:100B50007A81EDCFFC01262F408151816281738122
:100B600084810C947705CF93DF93D82FC92F60E051
:100B70000E94AA056D2F7C2FDF91CF910C947505F3
:100B80008F929F92AF92BF92CF92DF92EF92FF929D
:100B90000F931F93CF93DF9300D000D0CDB7DEB774
:100BA0006B017C0181E090E0A0E0B0E04C015D01D0
:100BB00004C0880C991CAA1CBB1C4A95D2F7B5012D
:100BC000A4014C015D0104C0880C991CAA1CBB1C2B
:100BD0002A95D2F7482959296A297B2904C0880F08
:100BE000991FAA1FBB1F0A95D2F78A019B010C21EE
:100BF0001D212E213F210417150726073707F9F479
:100C00009C01AD012C293D294E295F2929833A8376
:100C10004B835C8369817A818B819C810F900F90DB
:100C20000F900F90DF91CF911F910F91FF90EF9058
:100C3000DF90CF90BF90AF909F908F900895809558
:100C40009095A095B0954C015D018C209D20AE2023
:100C5000BF2089829A82AB82BC82DCCF0F93CF9374
:100C6000DF9300D000D0CDB7DEB7262F042F409100
:100C70000F0250911002609111027091120249838B
:100C80005A836B837C83482F69817A818B819C8115
:100C90000E94C0050F900F900F900F90DF91CF91A1
:100CA0000F910C943C220E94B2270E942C258111A6
:100CB00002C00E94D0250C94BB090C94BE09089573
:100CC0000E942F1E0E945F062FEF84E39CE02150BC
:100CD00080409040E1F700C000000C949A270F93E9
:100CE0001F93CF93DF93EC0161E00E94AA058C0172
:100CF000BE010E94E613882371F1BE01C8010E9463
:100D00007205882341F1BE01C8010E94961788230D
:100D100011F1BE01C8010E94EB178823E1F0BE016A
:100D2000C8010E94BE188823B1F0BE01C8010E940C
:100D3000FB12882381F08A81882341F101308CE500
:100D4000180779F00E3D8CE51807E9F001151C45F0
:100D5000E9F40E94600680E0DF91CF911F910F912E
:100D6000089590913C02892F8E7F90FF816080933F
:100D70003C0280FF05C08EE091E00E94CC04EBCFE6
:100D80008CEF90E0FACF0E94D025E5CFCE01DF9125
:100D9000CF911F910F910C946E05DF92EF92FF920D
:100DA0000F931F93CF93DF93E82FF0E0E15EFE4FA8
:100DB000D490282F26952695269530E0F901E15408
:100DC000FE4F0491877010E0082E02C0159507951C
:100DD0000A94E2F701701127F901E155FE4FE49002
:100DE000F12C082E02C0F594E7940A94E2F791E002
:100DF000E922FF24F901E156FE4FC491D0E002C080
:100E0000D595C7958A95E2F7C170DD2701151105C3
:100E100019F081EE0E94C51AE114F10419F086EE72
:100E20000E94C51A8D2D0E94581BEF2819F086EEDE
:100E30000E94121B012B19F081EE0E94121BCD2B78
:100E400051F08CE2DF91CF911F910F91FF90EF90C5
:100E5000DF900C94581BDF91CF911F910F91FF9061
:100E6000EF90DF900895EF92FF920F931F93CF932F
:100E7000DF93EC01162F0AE08881882309F454C01F
:100E8000813009F04EC08981813099F47E0122E0E1
:100E9000E20EF11C8A810E94581BE7012196812FE6
:100EA000815050F3EFE9FFE03197F1F700C0000007
:100EB000F7CF823041F47E0182E0E80EF11C8A8196
:100EC0000E94C51AEACF833041F47E01E2E0EE0EC3
:100ED000F11C8A810E94121BE0CF843011F0219610
:100EE000DDCF2A81229690E080E0AE014F5F5F4F18
:100EF0002053330B2A30310548F0019778F2EFE99F
:100F0000FFE03197F1F700C00000F7CF089FB00174
:100F1000099F700D1124C901860F971F2981EA01CD
:100F2000E4CF0E94CD06BACFDF91CF911F910F91F0
:100F3000FF90EF90089560E00C943307829594E061
:100F4000899F900111242C7C869586958373282B8C
:100F500030E0C901880F991F8A7A35952795257544
:100F6000822B089508950C94B20781E008950C94A3
:100F7000B507CF93C82F0E94B3078C2FCF910C9445
:100F8000B70790E080E008950895FC01EE0FFF1F81
:100F9000E153FE4F859194910895CF93DF930E9482
:100FA00056160E94DF08EC01811520E5920708F033
:100FB0004BC0811530E4930708F0B2C0803E910524
:100FC00018F5803C910508F09FC0883A910570F4AF
:100FD000853A910508F095C08130910529F1049773
:100FE000813A910508F1D0E0C0E01EC08F3B910529
:100FF000D1F3C85AD0E0CC0FDD1FC25EDE4F09909E
:10100000D881C02DD46410C0811540E2940780F4CB
:101010008F3F910509F040F4883E910528F0805FEC
:101020009109D0654097F8F6CE01DF91CF910895F0
:10103000C11580E3D80708F46DC0CE019927D3FD10
:101040006CC0EC01D06CF0CFC11595E5D90760F507
:10105000C11524E5D20708F094C0C11533E5D307C4
:1010600078F4C11542E5D40708F07AC0C11581E5CE
:10107000D80708F458C0DC2FCC27C16FD06AD4CF72
:10108000CE018370992721E030E002C0220F331F88
:101090008A95E2F7C695C69590E2C99FE0011124B2
:1010A000C22BD32BDA68C0CFC1152AE5D207B0F422
:1010B000C11539E5D30708F074C0C11546E5D4075A
:1010C00008F464C0CE0198558F3F910511F008F0E7
:1010D0008ACFDC2FCC27C06FD06AA6CFCE01905626
:1010E0008115904208F07FCF8D2F8F710E94770974
:1010F00090E0982F882788279F719C012C2BE9016D
:101100004EC0A497D06490CF805C91090E94C5071F
:10111000EC018ACFCE019F70F9CFEC01D86C84CF5F
:10112000DF70D06A81CFCE0174E0969587957A956D
:10113000E1F783702C2F26952695237040E2249F9B
:1011400090011124382B8C2F8370C1E0D0E002C0B5
:10115000CC0FDD1F8A95E2F7C22BD32BDC6864CF5E
:10116000CE018370992721E030E002C0220F331FA7
:101170008A95E2F7C695C69580E2C89FE0011124E2
:10118000EBCFDC2FCC27C46FD06A4ECF8C2F0E94C0
:101190007709C82FD0E0DC2FCC27CC27DF71D062B5
:1011A00043CF8C2F8F700E94770934E0D695C79576
:1011B0003A95E1F7CF70DC2FC82FD06935CF803E4C
:1011C000910599F1C8F48133910509F476C048F48A
:1011D0008932910509F46AC08A32910509F474C014
:1011E000089589339105D1F082389105B9F085339E
:1011F000910509F454C00895843E910599F138F49D
:10120000823E9105F9F0833E910509F10895863EED
:10121000910599F1873E9105B9F1089520918202D7
:101220002370A1F080EE90E008952091820220FDCD
:1012300052C03091830230FF09C024FF4FC090E0BC
:1012400080E004C02091820222FDF7CF0895209112
:10125000820222FD46C03091830230FDE3CF24FF9D
:10126000F5CFEDCF2091830221FFF0CF8091820254
:1012700084FDE5CF87EE90E008952091820223FF60
:10128000E5CF24FDDCCFF6CF2091820223FD2CC0D8
:101290003091830231FFE3CF84EE90E008952091F6
:1012A000820225FFD3CF89E290E008952091820247
:1012B00025FFCCCF85E390E008952091820226FFA0
:1012C000C5CF8AE290E008952091820226FFBECF2A
:1012D00081E390E0089589E390E0089583EE90E043
:1012E000089582EE90E0089586EE90E00895909142
:1012F000820292FF06C0282F28712830F9F4877FD8
:10130000846093FF06C0282F28712831F1F4877E6E
:1013100084612091830220FF06C0382F3871383055
:10132000D9F4877F816021FF06C0282F28712831DA
:10133000D1F4877E816194FD877E0895282F2471E2
:101340002430F9F68B7F8860DCCF282F247124317C
:1013500001F78B7E8861DDCF382F3171313019F77D
:101360008E7F8860E0CF282F2171213121F78E7E7A
:101370008861E1CF08950C94BA0908950C94BD09D1
:10138000E82FF0E0E859FD4F80810895CF92DF9279
:10139000EF92FF920F931F93CF93DF938EED91E027
:1013A0000E94CC0488E6E82E82E0F82ED0E0C0E06F
:1013B00099EDC92E91E0D92E01ED11E0DF93CF9385
:1013C000DF92CF920E94650586ED91E00E94CC04E9
:1013D000F70181917F010E949E071F928F931F93B7
:1013E0000F930E9465058FEC91E00E94CC0421963A
:1013F0008DB79EB708960FB6F8949EBF0FBE8DBFEF
:10140000C530D105D9F6DF91CF911F910F91FF9093
:10141000EF90DF90CF90089580EA8A95F1F70895D4
:1014200000C008950C940C0AF894E82FE295EF7030
:10143000F0E041A18F7021E030E0B90102C0660FF9
:10144000771F8A95E2F7CB01962F9095942391A36D
:1014500092A1892B82A37894089586EF0E94140AA2
:1014600087EF0E94140A81E30E94140A83E30E941A
:10147000140A82E30E94140A85E30E94140A84E39A
:101480000E94140A86EC0E94140A87E90E94140A3A
:10149000A3E6B2E01C92E8E6F2E0108211961C92FC
:1014A0001197118212961C921297128213961C9217
:1014B0001397138214961C92148285E00E94DD0A11
:1014C0000C945306BF92CF92DF92EF92FF920F934C
:1014D0001F93CF93DF9300E511E0C3E6D2E0C12C68
:1014E000D12CEE24E394F12CF80181918F01F89432
:1014F000E82FE295EF70F0E021A18F70A70102C004
:10150000440F551F8A95E2F7CA01922F982B91A399
:1015100092A18095892382A378940E94100AECE41A
:10152000F1E030E020E0B12C4191A42FA295AF7002
:10153000B0E090968C9190E04F7002C095958795A1
:101540004A95E2F780FD35C08E2D022E01C0880F2E
:101550000A94EAF7B82A2F5F3F4F2430310521F76C
:10156000F801319780810E94140A54E0C5120E944C
:10157000120A8881B816F9F0B88281E0D82AC3949B
:10158000219685E0C812B0CF2D2D45E068E672E0C7
:1015900083E692E00E94DE0A0E945D068D2DDF91B7
:1015A000CF911F910F91FF90EF90DF90CF90BF9060
:1015B000089580E0CFCF80E0E1CF0895FF920F93B0
:1015C0001F93CF93DF93F82E092F162FD72FC42FF9
:1015D000222349F081E080939E010E943B27909353
:1015E0009D0180939C0180919E018823A1F08091B0
:1015F0009C0190919D010E946727069760F0EF2D56
:10160000F02FA12FBD2FCE0FDF2FD11DEC17FD071F
:1016100041F410929E01DF91CF911F910F91FF90A5
:10162000089581918D93F2CF8091A50180FF12C022
:101630006091050185E0689FB0011124759567955B
:101640007595679560387105A8F561157105A1F16B
:10165000862F089581FF09C06091050185E0689F8C
:10166000B001112475956795EDCF6091050182FD5C
:101670000AC08091A4018823D1F090910401609167
:101680000501891728F085E0689FB0011124DACFA1
:10169000869FB001112485E0869F9001879F300DC1
:1016A0001124692F70E0C9010E944330CBCF65E05F
:1016B00070E0CECF8FE7089581E008958091A50175
:1016C00080FF0CC06091010170E07595679575957C
:1016D00067956115710549F1862F089581FF06C050
:1016E0006091010170E075956795F3CF60910101FC
:1016F00082FD0BC09091A3019923A1F0609100019C
:1017000080910101961738F0682F70E060387105FC
:1017100000F38FE70895899FC001112470E00E94B3
:101720004330F4CF61E070E0D7CF81E00895803F8F
:1017300031F40E94140B81958093A9010895813F93
:1017400019F40E94140BF8CF823F31F40E94140B5D
:1017500081958093A8010895833F19F40E94140B8A
:10176000F8CF893F29F40E945E0B8093AA01089567
:101770008A3F21F40E945E0B8195F7CF8B3F31F4B5
:101780000E945E0B81958093AB0108958C3F19F404
:101790000E945E0BF8CF9CE0980F953070F4845F48
:1017A000990B21E030E001C0220F8A95EAF7809181
:1017B000A701822B8093A70108958D3F31F480917A
:1017C000A50181608093A50108958E3F21F4809149
:1017D000A5018260F7CF8F3FB9F78091A5018460A2
:1017E000F1CF4091A801803F59F48091A90187FF72
:1017F0000DC01092A90141110BC01092A40108C0A4
:10180000813F81F48091A90118169CF3442381F053
:101810008091AA019091AB01892B09F05AC01092D6
:10182000A3010895823F49F447FFF0CF1092A80129
:101830008091A9018111ECCFE0CF833F19F41416F8
:10184000ACF3E4CF9091AA01893F29F41916F4F67C
:101850001092AA01DBCF8A3F19F497FFD7CFF8CFB8
:101860009091AB018B3F29F497FFD0CF1092AB0141
:10187000CDCF8C3F19F41916CCF3C8CF9CE0980F4C
:10188000953090F4845F990B21E030E0B90102C0FB
:10189000660F771F8A95E2F7CB0180959091A7019B
:1018A00089238093A701B2CF8D3F31F48091A501A8
:1018B0008E7F8093A501AACF8E3F21F48091A50150
:1018C0008D7FF7CF8F3F09F0A1CF8091A5018B7F4E
:1018D000F0CF089580913C0283FF7EC084E192E0C6
:1018E0000E94CC048091A7011F928F938FE092E019
:1018F0009F938F930E9465058DE092E00E94CC0437
:101900008091A801282F082E000C330B3F938F9352
:101910008AE092E09F938F930E94650588E092E0B1
:101920000E94CC048091A901282F082E000C330BB3
:101930003F938F9385E092E09F938F930E9465057C
:1019400083E092E00E94CC048091AA01282F082E07
:10195000000C330B3F938F9380E092E09F938F9323
:101960000E9465058EEF91E00E94CC048091AB014E
:10197000282F082E000C330B3F938F938BEF91E0B1
:101980009F938F930E94650588EF91E00E94CC049D
:101990008091A4011F928F9385EF91E09F938F9385
:1019A0000E94650583EF91E00E94CC048091A5011F
:1019B0001F928F9380EF91E09F938F930E94650514
:1019C0008DEE91E00E94CC048DB79EB74C960FB679
:1019D000F8949EBF0FBE8DBF0E943B272091A801A7
:1019E0003091A901232B21F08093A1019093A201B2
:1019F0002091AA013091AB01232B21F080939F010C
:101A00009093A00186EA91E00C945419EF92FF9212
:101A10000F931F93CF93DF9300D000D000D0CDB7AA
:101A2000DEB786E0E6EAF1E0DE01119601900D9264
:101A30008A95E1F7E090A801F090A9010091AA0130
:101A40001091AB011092A8011092A9011092AA0165
:101A50001092AB018F2D8E2991F08091A101909170
:101A6000A2010E9467279C018091A401882309F4A8
:101A700043C0909106019217130608F44BC0802FC3
:101A8000812B91F080919F019091A0010E94672786
:101A90009C018091A301882309F47BC090910201ED
:101AA0009217130608F483C08091A8019091A901B0
:101AB000892B9091AA01892B9091AB01892B11F070
:101AC0000E946A0CEB82FC820D831E8386E0FE017D
:101AD0003196A6EAB1E001900D928A95E1F726963B
:101AE0000FB6F894DEBF0FBECDBFDF91CF911F912F
:101AF0000F91FF90EF900895409107019AE0499F60
:101B0000A00111244217530708F0B9CF8F5F8093CB
:101B1000A40102C08F3FD1F7EE2059F00E94140BB0
:101B20009FEF1E140CF491E0899F802D1124809367
:101B3000A801FF2059F00E94140B9FEF1F140CF412
:101B400091E0899F802D11248093A9013091A801F3
:101B5000332309F494CF2091A901222309F48FCFD4
:101B600045EB3403C0011124992359F09093A80147
:101B700045EB240390011124332339F03093A9015C
:101B80007ECF81E08093A801F3CF81E08093A9010B
:101B900076CF409103019AE0499FA001112442179A
:101BA000530708F081CF8F5F8093A30102C08F3F5E
:101BB000D1F7002359F00E945E0B9FEF10160CF432
:101BC00091E0899F802D11248093AA01112359F05F
:101BD0000E945E0B9FEF11160CF491E0899F802DFF
:101BE00011248093AB013091AA01332309F45CCF17
:101BF0002091AB01222309F457CF45EB3403C001F8
:101C00001124992359F09093AA0145EB24039001E4
:101C10001124332339F03093AB0146CF81E0809318
:101C2000AA01F3CF81E08093AB013ECF86E0E6EAE4
:101C3000F1E0DF011D928A95E9F71092A40110925C
:101C4000A3011092A5010895CF92DF92EF92FF9227
:101C50000F931F93CF93DF93D62FC72F982F711118
:101C600013C0442329F0E82FF0E0ED58FA4F949187
:101C7000692F792F892FDF91CF911F910F91FF90BD
:101C8000EF90DF90CF900895272F30E0E82FF0E01D
:101C9000442321F0ED58FA4FE491F0E086E0D89F1C
:101CA000700111240FEF10E0C701B8010E942F301E
:101CB0008D2F90E0880F991FA5E5A69FA001A79FF3
:101CC000500D1124841B950BD82EDD0CD80EC801A5
:101CD000821B930B8E9FA0018F9F500D9E9F500DD6
:101CE0001124952FDC9EE0011124CD2FDD27D80192
:101CF000AC1BBD0BED01CE9FD001CF9FB00DDE9F81
:101D0000B00D11248B2FE801CD19D1096E01C29EAF
:101D1000E001C39ED00DD29ED00D1124CD2FDD2722
:101D20000C1B1D0B0E9FE0010F9FD00D1E9FD00DB1
:101D300011242E2F63307105D9F03CEFE31633E008
:101D4000F30668F461307105B9F062307105C1F0D5
:101D5000AFEFEA16F10448F4852F9D2F06C06430DA
:101D6000710589F066307105B9F3692F722F83CF41
:101D70009B2F8E2F252FF9CF9E2F2B2F852FF5CF21
:101D80008D2F9E2FF7CF8E2F2D2FEFCF41E00C946C
:101D9000240E0C94C60ECF93DF93982F762F842FAA
:101DA000E901692F0E94C90E798368838A83DF91D4
:101DB000CF91089580916D02982F9E7F39F4809184
:101DC0006D028170826080936D0208958430B8F74F
:101DD000089588E090E00C946C300F931F93CF939C
:101DE000DF938B01D82FC92F0E94DA0EA8016D2F27
:101DF0007C2F88E090E0DF91CF911F910F910C94A0
:101E00008A30CF93DF9300D000D0CDB7DEB780917A
:101E10006D0290916E02A0916F02B0917002898361
:101E20009A83AB83BC83BC01CD010F900F900F90C0
:101E30000F90DF91CF910C94ED0ECF93DF9300D0F4
:101E400000D0CDB7DEB7EDE6F2E083E0808311820B
:101E50008FEF82838383148280819181A281B381F9
:101E600089839A83AB83BC83BC01CD010F900F9013
:101E70000F900F90DF91CF910C94ED0E80913C026A
:101E800080FF76C08AE595E09F938F930E94650559
:101E900080913C020F900F9080FF6AC080916D028C
:101EA00081701F928F938DE395E09F938F930E9493
:101EB000650580913C020F900F900F900F9080FF6E
:101EC00057C080916D0286951F928F9382E295E0B4
:101ED0009F938F930E94650580913C020F900F9015
:101EE0000F900F9080FF44C080916E021F928F93DD
:101EF00088E095E09F938F930E94650580913C0256
:101F00000F900F900F900F9080FF32C080916F0262
:101F10001F928F938EEE94E09F938F930E9465059E
:101F200080913C020F900F900F900F9080FF20C087
:101F3000809170021F928F9384ED94E09F938F9312
:101F40000E94650580913C020F900F900F900F90BA
:101F500080FF0EC0809171021F928F9388EB94E0F6
:101F60009F938F930E9465050F900F900F900F9095
:101F7000089580916D0280FF02C08695089580E0EB
:101F80000895CF93DF9300D000D0CDB7DEB7909106
:101F90007102933018F49F5F909371028823B1F01F
:101FA00080916D0290916E02A0916F02B0917002CB
:101FB00089839A83AB83BC83BC01CD010F900F90C2
:101FC0000F900F90DF91CF910C94ED0E0F900F902A
:101FD0000F900F90DF91CF91089581E00C94C10F85
:101FE000CF93DF9300D000D0CDB7DEB790917102D0
:101FF000992319F09150909371028823B1F0809148
:102000006D0290916E02A0916F02B091700289836F
:102010009A83AB83BC83BC01CD010F900F900F90CE
:102020000F90DF91CF910C94ED0E0F900F900F90C9
:102030000F90DF91CF91089581E00C94F00F809183
:1020400071020895CF93DF9300D000D0CDB7DEB7F3
:1020500080937102662349F180916D0290916E0226
:10206000A0916F02B091700289839A83AB83BC8385
:10207000BC01CD010E94ED0E80913C0280FF0EC09C
:10208000809171021F928F938AE592E09F938F93C4
:102090000E9465050F900F900F900F900F900F907A
:1020A0000F900F90DF91CF91089590913C0290FF97
:1020B000F5CF1F928F9387E392E0E8CF60E00C9416
:1020C000221080916E02089580916F020895809190
:1020D0007002089570E00C9453136091090180918F
:1020E0006D0280FF0AC08091080123E0829FC00139
:1020F00011248E589D4F0C946A1080910A01909182
:102100000B0123E0829FF0011124EE58FD4F891747
:1021100050F71182108212828F5F3396F8CFCF93DF
:10212000DF9300D000D0CDB7DEB780916D028E7FF7
:1021300080936D0280916D0290916E02A0916F026A
:10214000B091700289839A83AB83BC83BC01CD01BB
:102150000E94ED0E80913C0280FF0FC080916D02C5
:1021600081701F928F9381E093E09F938F930E94E1
:1021700065050F900F900F900F909FEFA0E7B2E0D2
:102180009150A040B040E1F700C000000F900F90C8
:102190000F900F90DF91CF910C946D1080916D0294
:1021A0008E7F80936D0280913C0280FF0CC01F9255
:1021B0001F9287EC92E09F938F930E9465050F908A
:1021C0000F900F900F902FEF80E792E0215080400A
:1021D0009040E1F700C000000C946D1090916D02EA
:1021E00090FF14C090910A0120910B0133E0939F5E
:1021F000F0011124EE58FD4F921710F00C946D1061
:102200008183608342839F5F3396F6CF0895EF9278
:10221000FF920F931F93CF93DF9300D000D000D095
:102220000F92CDB7DEB7182F062FF42EE22E809135
:102230006D0280FF49C0E82FE695F0E0EB5AFE4FB3
:1022400090819093AD018E7F823059F49E012F5F73
:102250003F4F812F0E94CB0E4B8169818A810E9462
:10226000EE1010936E0200936F02F0927002EE2057
:10227000C1F180916D0290916E02A0916F02B091B8
:1022800070028C839D83AE83BF83BC01CD010E940D
:10229000ED0E80913C0280FF17C0809170021F926A
:1022A0008F9380916F021F928F9380916E021F9285
:1022B0008F9382EA92E09F938F930E9465050FB6F9
:1022C000F894DEBF0FBECDBF27960FB6F894DEBFE1
:1022D0000FBECDBFDF91CF911F910F91FF90EF9077
:1022E000089580913C0280FFEFCF1F92FF921F92D2
:1022F0000F931F921F938BE792E0DDCF282FEDE61F
:10230000F2E0818143816281885F0C94071181E052
:102310000C947E11282FEDE6F2E0818143816281E9
:1023200088500C94071181E00C948A11282FEDE657
:10233000F2E0628131E1630F08F46FEF4381818144
:102340000C94071181E00C949611282FEDE6F2E031
:10235000628131E1631B08F460E0438181810C9468
:10236000071181E00C94A511282FEDE6F2E04381DE
:1023700031E1430F08F44FEF628181810C94071122
:1023800081E00C94B411282FEDE6F2E0438131E1B5
:10239000431B08F440E0628181810C94071181E0C5
:1023A0000C94C31120E00C940711CF93DF9300D05D
:1023B00000D0CDB7DEB780916D0280FF41C0817043
:1023C000826080936D02662389F180916D02909105
:1023D0006E02A0916F02B091700289839A83AB83E1
:1023E000BC83BC01CD010E94ED0E80913C0280FFB8
:1023F0000FC080916D0286951F928F938EEF93E0B0
:102400009F938F930E9465050F900F900F900F90F0
:102410004091700260916F0280916E020F900F9058
:102420000F900F90DF91CF910C94D21180913C02CC
:1024300080FFEECF1F9281E08F9380EE93E0E0CF9C
:102440000F900F900F900F90DF91CF910895682F0C
:1024500081E00C94D51181E00C942712682F9091A3
:102460006D0296958FEF890F913009F481E00C94FD
:10247000D51181E00C942E1261E00C94D51180915D
:102480006D02816080936D0280913C0280FF0DC0DF
:102490001F9281E08F9382E793E09F938F930E9436
:1024A00065050F900F900F900F9080916D028695AB
:1024B0000C943C1280913C0280FF10C080916D0210
:1024C000809581701F928F9389EA93E09F938F93F9
:1024D0000E9465050F900F900F900F9080916D02F4
:1024E00080FD0C948F100C943F1260E00C94D51179
:1024F0008091AC0181115EC080913C0280FF14C0CC
:1025000081EA94E09F938F930E94650580913C023D
:102510000F900F9080FF08C08BE894E09F938F93FB
:102520000E9465050F900F900E942C25811110C00C
:1025300080913C0280FF08C083E694E09F938F93D4
:102540000E9465050F900F900E94D0250E941D0FDC
:102550000E94E90E60936D0270936E0280936F0289
:10256000909370026E7FC1F480913C0280FF08C09E
:102570008AE194E09F938F930E9465050F900F90DE
:102580000E941D0F0E94E90E60936D0270936E020F
:1025900080936F02909370020E94DA0E0E943E0FA9
:1025A00080916D0280FF03C086950E94751281E0C4
:1025B0008093AC01089580916D02816080936D02DB
:1025C00080913C0280FF0DC01F9281E08F9389E3D0
:1025D00093E09F938F930E9465050F900F900F904B
:1025E0000F9080916D0286950C947512FA018111FD
:1025F0000994FB01FDCF0F931F93CF938C01FB0137
:10260000C281CC2309F44DC00E9474248272F80167
:10261000E25CFC45E431F10538F4E255FF4C0C94E2
:1026200057300E945A12C0E08C2FCF911F910F910A
:10263000089549E352E16BE272E10E94F612F3CF92
:102640004BE252E169E372E1F8CF43E951E167E817
:1026500071E1F3CF47E851E163E971E1EECF41EB7E
:1026600051E162EA71E1E9CF42EA51E161EB71E1E6
:10267000E4CF4FEC51E160EC71E1DFCF40EC51E190
:102680006FEC71E1DACF4CE150E16DEE7FE0D5CF38
:102690004DEE5FE06CE170E1D0CF81E00E943C1232
:1026A000C2CFC1E0C1CF9C01AB01269A65B16F7B5F
:1026B00075B17064EFB7F894CA01880F991F840F41
:1026C000951F820F931F8217930741F4EFBF8FE589
:1026D00094E00197F1F700C000000895D9014D91F1
:1026E0009D0158E075B9000000C047FF65B9440F6F
:1026F000000000C000C000C065B900C05A9591F745
:10270000E2CF82E290E00E946430813289F483E279
:1027100090E00E946430853059F484E290E00E9499
:10272000643091E0823209F090E0892F8170089541
:1027300080E0FCCFCF93C82F6FEF811161E282E27E
:1027400090E00E9478306FEFC11165E083E290E085
:102750000E9478306FEFC11162E284E290E0CF9185
:102760000C94783080E00E949A130C9426250895EA
:10277000CF93DF9300D000D0CDB7DEB785E290E0F5
:102780000E946430282F30E050E040E0CA01B901D7
:102790000F900F900F900F90DF91CF91089585E2E9
:1027A00090E00C9478300E94B7130E94811381113D
:1027B0000CC060E070E0CB010E94CF130E94CF15E7
:1027C0000E94BA1681E00C949A130895CF939C014D
:1027D000FB01C281CC2301F182519F45409720F536
:1027E0008EEE820F0E94CA16C0E08C2FCF91089502
:1027F00081E00E94722243E062E081E00E942E06A6
:10280000F3CF81E00E94A32243E062E081E00E94D6
:102810002E06EBCF82E0F6CF80319F4591F3213138
:102820003F45C1F3C1E0E1CF2031EFE53E0701F3C1
:1028300082E021313F45E9F2D8CF2FEFFC01208320
:102840000895CF93DF93EC0188818238C1F038F48A
:10285000803871F0813881F0DF91CF91089583380D
:10286000D9F70E94611089830E9464108A83F4CF93
:102870000E9467108983F0CF0E94B90FFBCF0E949E
:102880001F10F8CFCF93DF93EC018881823851F18C
:1028900038F4803869F08138B9F0DF91CF9108952C
:1028A0008338D9F70E946710482F6A81898108C050
:1028B000D9810E946410C82F0E9461104D2F6C2F87
:1028C000DF91CF910C94D21189810E947512898178
:1028D000811104C0DF91CF910C94CE10DF91CF9184
:1028E0000C94DB128981DF91CF910C945E10EF92F2
:1028F000FF920F931F93CF93DF93CDB7DEB72E9741
:102900000FB6F894DEBF0FBECDBF8D839E83162F0A
:102910008D819E81DC01ED91CD01E150E33108F024
:10292000F8C0F0E0EE53FF4C0C945730ED81FE817F
:10293000118289E08283612F8D819E812E960FB650
:10294000F894DEBF0FBECDBFDF91CF911F910F91E5
:10295000FF90EF900C949B28AD81BE8111968C91D5
:10296000823099F0833011F1813081F50E94472740
:102970000E945D306F83788789879A87ED81FE8119
:102980006283738384839583D6CF0E94B8130E9499
:102990005D306B877C878D879E87AD81BE81129667
:1029A0006D937D938D939C931597C5CFED80FE809D
:1029B000B2E0EB0EF11C00E0802F0E94C009F7018D
:1029C00081937F010F5F0530B9F7B5CF612F8D81FE
:1029D0009E810E941D14AFCFAD81BE8111968C9156
:1029E0001197823099F712968D919D910D90BC911F
:1029F000A02D89839A83AB83BC83BC01CD010E9447
:102A00005D300E94CF1397CFED81FE8143816281BB
:102A100081810E94A115982789279827AD81BE81C1
:102A200015969C938E93149786CFED81FE81248119
:102A300035813227232732274381628181810E9499
:102A4000BA1579CF0E94CF1576CF0E94421473CF6A
:102A50000E94211470CF0E94010F6DCF0E94631657
:102A6000AD81BE8111968C9366CF0E946516982722
:102A700089279827ED81FE81928381835CCFAD8188
:102A8000BE8113966C91139770E011968D919C9175
:102A90001297AD014C5F5F4F9827892798270E94B6
:102AA000681649CFED81FE81638170E0818192815A
:102AB000AF014C5F5F4F9827892798270E948F1698
:102AC0003ACF0E94BA1637CF0E948E15C9CFED813A
:102AD000FE81638170E081819281AF014C5F5F4F25
:102AE0009827892798270E94081625CFAD81BE8197
:102AF00013966C91139770E011968D919C9112979B
:102B0000AD014C5F5F4F9827892798270E942D16AB
:102B100012CF8FEFED81FE8180830DCF84E0089589
:102B200098E0699FB001112450E0440F551F640FD5
:102B3000751F98E2899F600D711D1124CB01869647
:102B400008950F931F93CF93DF930E9490158C01EC
:102B50000E946430C82FD0E0DC2FCC27C80101963A
:102B60000E9464309E01282BC901DF91CF911F91F3
:102B70000F9108950F931F93CF93DF93122F032F7D
:102B80000E949015EC01602F0E947830612FCE01D9
:102B90000196DF91CF911F910F910C947830AF92F5
:102BA000BF92CF92DF92FF920F931F93CF93DF9349
:102BB000B12CA12C00E0650110E013C0FE012591AD
:102BC00034914F2D612F802F0E94BA152296F394D5
:102BD00084E0F812F3CF84E0C80ED11C1F5F1530DB
:102BE00039F0E601CC0FDD1FC455DF4FF12CE6CFE5
:102BF0000F5F84E1A80EB11C0430E9F6DF91CF919C
:102C00001F910F91FF90DF90CF90BF90AF900895EC
:102C1000EF92FF920F931F93CF93DF93EC018A0102
:102C20007C01E60EF71ECE018696CE15DF0539F43F
:102C3000DF91CF911F910F91FF90EF900895C03ACF
:102C4000D10540F40E946430F80180830F5F1F4F6C
:102C50002196E9CFF8011082F9CFCF92DF92EF925F
:102C6000FF920F931F93CF93DF938C016A017C0136
:102C7000E60EF71EEC01CE018696CE15DF0549F46F
:102C8000DF91CF911F910F91FF90EF90DF90CF9048
:102C90000895C03AD10540F4FE01E01BF10BEC0DA4
:102CA000FD1D60810E9478302196E5CF462F672F69
:102CB000843030F4753020F4443010F40C94A115B5
:102CC00090E080E0089580E108958AE393E008951C
:102CD000EF92FF920F931F93CF93DF93EC018A0142
:102CE0007C01E60EF71ECE018A539F4FCE15DF05FD
:102CF00039F4DF91CF911F910F91FF90EF900895DC
:102D0000CA3323E0D20740F40E946430F801808384
:102D10000F5F1F4F2196E7CFF8011082F9CFCF92B6
:102D2000DF92EF92FF920F931F93CF93DF938C016B
:102D30006A017C01E60EF71EEC01CE018A539F4F1B
:102D4000CE15DF0549F4DF91CF911F910F91FF90D0
:102D5000EF90DF90CF900895CA3323E0D20740F47C
:102D6000FE01E01BF10BEC0DFD1D60810E9478302F
:102D70002196E3CFCF93DF93C6ECD0E060E0CE01A5
:102D80000E9478302196C11584E0D807B9F7DF9109
:102D9000CF910895DF92EF92FF920F931F93CF93FD
:102DA000DF9300D000D0CDB7DEB7F82E8FE08F15BF
:102DB00040F08FEF93E00E94643006EC10E088232F
:102DC000C1F00F900F900F900F90DF91CF911F9156
:102DD0000F91FF90EF90DF900895011584E01807A0
:102DE00081F3C8010E946430811101C0FA940F5F21
:102DF0001F4FF110F2CF80911A0190911B01A09109
:102E00001C01B0911D0189839A83AB83BC83DD24AF
:102E1000D39478018FEFE81AF80AC8010E94643051
:102E200089831A82882369F29FEF980F933080F488
:102E30008A83D9820E5F1F4FC7010E9464308B8343
:102E4000882309F4BECFCE0101960E949B07E1CFF3
:102E50008701F9CF0F931F93CF93DF93C42FD22F06
:102E6000FC0182818823C9F04093B1010E943B2775
:102E70009093B0018093AF0180E28C0F883008F00E
:102E800050C0C77081E001C0880FCA95EAF7DF9192
:102E9000CF911F910F910C94601B1091B1011413ED
:102EA00035C08091AF019091B0010E946727883CA6
:102EB000910560F5C0E2CD0F1D17B9F080E2810FDA
:102EC000883040F4177081E001C0880F1A95EAF746
:102ED0000E94671BC83048F481E09D2F977001C0A5
:102EE000880F9A95EAF70E94601B802F0E94581B5A
:102EF000C830B8F4D77081E001C0880FDA95EAF7DE
:102F0000DF91CF911F910F910C94671B80E28C0F82
:102F1000883038F4C77081E001C0880FCA95EAF79D
:102F2000EFCFDF91CF911F910F9108950F939C01E7
:102F3000CB01233F4CE53407A1F190F4283DFCE59B
:102F40003F0749F1293D4CE53407E9F1273D3C4570
:102F5000C1F0FC0182818823E1F11092B10119C016
:102F6000253FFCE53F0719F1263F4CE5340729F1E1
:102F7000243F3C4571F707E225EE44EE64EF7CE523
:102F800005C006E221EE41EE67ED7CE50E942A17BE
:102F900080E00F91089507E225EE45EE68ED7CE5AF
:102FA000F5CF06E221EE40EE63EF7CE5EFCF06E2DF
:102FB00021EE42EE65EF7CE5E9CF07E225EE46EE35
:102FC00066EF7CE5E3CF08E221E045EE69ED7CE5C4
:102FD000DDCF81E0DECFCF93DF93EC01FB01828177
:102FE000882309F4C9C0C631FCE5DF07E0F4C2302C
:102FF0009CE5D907F0F00E943F25909383028093CF
:103000008202C631ECE5DE0720F5C230FCE5DF07C1
:1030100098F480918202909183020E944D250E9433
:103020002F1E80E006C09E012A5F3C4529303105F5
:1030300010F3DF91CF910895FE01E350FC4580919C
:1030400082028160E331F10588F4EB52FF4C0C946D
:103050005730CA5FDC45C930D105D8F6C851DF4CBE
:10306000FE010C945730809182028260809382022C
:10307000D0CF809182028460F9CF809182028860F3
:10308000F5CF80918302816080938302C2CF8091CB
:1030900083028260F9CF809182028061E7CF8091C4
:1030A00082028062E3CF809182028064DFCF0E943F
:1030B0002F1E809182028068D9CF809182028C601D
:1030C000D5CF809183028360DFCF809182028E7F93
:1030D000CDCF809182028D7FC9CF809182028B7F7C
:1030E000C5CF80918202877FC1CF809183028E7F7E
:1030F000CBCF809183028D7FC7CF809182028F7E5C
:10310000B5CF809182028F7DB1CF809182028F7B7B
:10311000ADCF0E942F1E809182028F77A7CF809122
:103120008202837FA3CF809183028C7FADCF809179
:10313000820282FB992790F921E0922790FB82F985
:1031400090FB83F993CF80918302982F9095917093
:103150008E7F892B90FB81F997CF0E942F1E909133
:103160008202892F97FB87F9805880CF81E00E94E7
:10317000D2254FCF80E0FBCF81E05BCFCF93DF93B1
:10318000EB0186319C4511F50E9474249A819923A4
:1031900099F08A7A91E009F490E09093B20181115C
:1031A00009C089E20E944F240E94C32480E0DF917D
:1031B000CF91089585E3F6CF8091B201811104C0CB
:1031C00089E20E945624F0CF85E3FBCF81E0EFCF68
:1031D0009093B8018093B7010895E091B701F09101
:1031E000B801309721F00190F081E02D099480E042
:1031F0000895EF92FF920F931F93CF93DF93EC010B
:10320000E091B701F091B801309709F446C0809180
:103210001901882341F08091820287FF04C08881D0
:10322000898385E088830280F381E02DCE010995B2
:1032300080913C0282FF31C080FF04C08BE796E0A2
:103240000E94CC0410E000E085E7E82E86E0F82E2E
:1032500080913C0280FF0EC0FE01E00FF11F8081D3
:103260001F928F93FF92EF920E9465050F900F902F
:103270000F900F900F5F1F4F0830110549F7809195
:103280003C0280FF0AC083E796E0DF91CF911F9157
:103290000F91FF90EF900C94CC04DF91CF911F9190
:1032A0000F91FF90EF900895DC01E091B701F0914C
:1032B000B801309739F082E08C930480F581E02DDD
:1032C000CD01099408952091B5013091B6012817D8
:1032D000390771F09093B6018093B501E091B70181
:1032E000F091B801309721F00680F781E02D099424
:1032F00008952091B3013091B4012817390771F076
:103300009093B4018093B301E091B701F091B801BB
:10331000309721F00084F185E02D099408950E94F2
:1033200047276093C3017093C4018093C5019093B4
:10333000C6016093BF017093C0018093C101909357
:10334000C201089585B7806885BF85B7806885BF4D
:103350000895089508950C94A91908950C94AD1931
:103360000E94A21989EF99E20E94AB270E94AA1934
:103370000C94AB1981E008950C94BA19089508953E
:103380000E9432270E942D0A0E94D3130E94C62752
:103390000E9478120C94AE19CF93C82F80913C02F2
:1033A00082FF1EC080FF1CC084E996E00E94CC040E
:1033B00080913C0280FF14C01F92CF938FE896E06B
:1033C0009F938F930E94650580913C020F900F9010
:1033D0000F900F9080FF04C08DE896E00E94CC040F
:1033E0008C2FCF910C94B907AF92BF92CF92DF92FE
:1033F000EF92FF920F931F93CF93DF9300D000D0F3
:103400000F92CDB7DEB70E94BE190E94BF190E946D
:10341000620A81110E948F198AEBA82E81E0B82ED2
:1034200010E000E0C02E802F0E94C009F82EF501A8
:10343000E1905F01E81609F44CC080913C0281FDE7
:103440000E94C6098E2D8F25D12CEE24E394982F4F
:103450009E21D1F10E94BC19882399F0D982CA8299
:10346000FE2081E009F480E08B830E943B2781608D
:10347000782F9D838C8349815A816B818D810E9435
:10348000901AF801E654FE4F8081E826E0820E94FF
:10349000060D0E94ED189091B901891789F10E94DB
:1034A000ED188093B9010F900F900F900F900F902F
:1034B000DF91CF911F910F91FF90EF90DF90CF9010
:1034C000BF90AF900C94CC19D394EE0CF4E0DF12C3
:1034D000BECF0F5F1F4F0530110509F0A3CF8FEF4F
:1034E00089838A831B820E943B278160782F9D837A
:1034F0008C8349815A816B818D810E94901AC7CF3C
:103500000F900F900F900F900F90DF91CF911F9120
:103510000F91FF90EF90DF90CF90BF90AF90089504
:10352000DF92EF92FF920F931F93CF93DF93CDB76C
:10353000DEB72B970FB6F894DEBF0FBECDBF7A87EC
:103540008B87F42E052F162FE72ED82E61110E949F
:1035500096247E2DEC82DD824F2D502F612F8D2DF4
:1035600090E02B960FB6F894DEBF0FBECDBFDF9173
:10357000CF911F910F91FF90EF90DF900C949220CC
:10358000FC01808191810C941924CF93C82F88234A
:1035900009F446C08CEF8C0F813AA0F46C2F809117
:1035A0000D0190910E010E94EB25882329F08C2FAC
:1035B0000E9456240E94C3248C2F0E944F24CF9136
:1035C0000C94C32480E28C0F883048F4C77081E0EB
:1035D00001C0880FCA95EAF70E947724F0CF8BE5E7
:1035E0008C0F833038F42C2F2452330BC901CF9128
:1035F0000C946319E8E5EC0FE73150F4F0E0EE0FBE
:10360000FF1FE95AFE4F80819181CF910C94791967
:10361000C03F30F08C2F0E94970BCF910C946A0C16
:10362000CF910895882361F19CEF980F913A20F48F
:103630000E9456240C94C32490E2980F983050F4C2
:10364000877091E001C0990F8A95EAF7892F0E944F
:103650007D24F0CF9BE5980F933020F490E080E03C
:103660000C94631998E5980F973120F490E080E06E
:103670000C947919803F20F00E94F10B0C946A0C95
:1036800008951F93CF93DF93182FEB010E94C51A63
:10369000209731F4812FDF91CF911F910C94121B51
:1036A0008FE99FE00197F1F700C000002197F0CF6C
:1036B00064E170E0893311F460E570E00C94411B23
:1036C000882321F00E9477240C94C3240895882332
:1036D00021F00E947D240C94C3240895AF92BF92E0
:1036E000CF92DF92EF92FF920F931F93CF93DF93CE
:1036F00000D000D00F92CDB7DEB76C016D83798317
:10370000FC011281058102950F700E946D24E82E44
:103710008823A1F0E12E112389F08981807F8034F4
:1037200029F08D81805EE12C883040F082E00E949B
:103730000E250E946D2491E0E82EE926A980A2942E
:103740009FE0A922B12CF501EF50FF4C0C945730AB
:1037500009810F70F981F07F11F00295007F11232C
:10376000B1F0002361F08D81805E883018F02D81EA
:10377000211109C0802F0E9477240E94C3248D81CB
:103780000E94C51A15C0802F0E948824F6CF8D8113
:103790000E94121B002361F08D81805E883018F03A
:1037A0004D81411133C0802F0E947D240E94C3248B
:1037B00088E0A81AB10894E0A916B10420F40E9488
:1037C000ED180E94B907EE2009F4E4C10E946924B3
:1037D00080FDE0C1F60112820E9463240E947222E1
:1037E000C6010E94F11D0E9463240F900F900F905C
:1037F0000F900F90DF91CF911F910F91FF90EF905D
:10380000DF90CF90BF90AF900C94A322802F0E94A6
:103810008E24CCCF59815F70F52E6981607F603234
:1038200019F0F29480EFF8227D81772369F07130EE
:1038300049F1112391F1002351F1F601858180FFB7
:103840009ECF8F70858323C0112381F0011106C0A4
:103850000E94AA248F290E94601BAACF0130C1F7C1
:103860000E94AA248F290E94B024A2CF011106C071
:103870000E94B9248F2D0E94671B9ACF013009F452
:1038800097CFF6CF112329F0063008F091CF8F2D76
:10389000E2CF053008F08CCFEDCF002359F3FD8146
:1038A000F93369F42FEF47EE53E021504040504088
:1038B000E1F700C000008D810E94121B79CF6FEFED
:1038C00079EF80E0615070408040E1F7F2CF89816C
:1038D00086958695837069F0813009F069CF8D8176
:1038E00099819370111102C090E080E00E947919D3
:1038F0005FCF8D8199819370111102C090E080E0BB
:103900000E94631955CF8D81112329F00E94970BD6
:103910000E946A0C4DCF0E94F10BFACF898183700F
:1039200009F059C0111144CF4D8142954695477019
:10393000440F440F8D818F7090E0B0E0A0E0042E22
:1039400004C0880F991FAA1FBB1F0A94D2F7ED81EC
:1039500000E010E09801E4FF0FC00FE010E020E06D
:1039600030E004C0000F111F221F331F4A95D2F709
:103970000095109520953095F981F695F695F370A0
:10398000FD83B901A801482B592B6A2B7B2B498356
:103990005A836B837C83F23081F0F330A9F0F130ED
:1039A00029F0CB01BA010E94E82102CF69817A8116
:1039B0008B819C810E94C021FBCE69817A818B81A1
:1039C0009C810E941022F4CE69817A818B819C8136
:1039D0000E94BE21EDCE8695112311F08981817060
:1039E000882309F4E5CE4D81429546954770440FF2
:1039F000440F8D818F7090E0B0E0A0E0042E04C0F1
:103A0000880F991FAA1FBB1F0A94D2F75D8100E09F
:103A100010E0980154FF0FC00FE010E020E030E00C
:103A200004C0000F111F221F331F4A95D2F70095C3
:103A300010952095309569816695669563706D83C4
:103A4000B901A801482B592B6A2B7B2B49835A8338
:103A50006B837C835D8169817A818B819C8152300B
:103A600051F0533059F0513019F00E943123A0CE5B
:103A70000E9409239DCE0E9459239ACE0E943C2287
:103A800097CE69816F706983112329F0862F0E9478
:103A900072228D81E0CE8D810E94671B89810E94F8
:103AA000A32286CE7D81723FA1F160F4703FE1F0E8
:103AB000713F41F1112309F445C0011160CE8981A4
:103AC0008F7124C08D81833F49F1843F99F7112381
:103AD00079F199819F719983892F0E94722263E005
:103AE00089810E94F92464CE112341F0053008F049
:103AF0005FCE89818F710E94D8225ACE063008F09D
:103B000057CEF7CF89818F71112349F20E9472221B
:103B10004FCE89818F711123C9F3C1CF112329F0B1
:103B200089818F710E944D2243CE0E94482240CE4F
:103B300081E00E940E25023008F43ACE82E00E9415
:103B40000E2536CE002399F0ED81E93341F4FFEFE5
:103B500027EE43E0F15020404040E1F7AACE5FEF6E
:103B600069EF70E0515060407040E1F7A2CE89816A
:103B70008F7195CF49814F706D81C6010E94C10739
:103B80000E94322115CE49814F706D81C6010E947D
:103B9000C4070ECE0F900F900F900F900F90DF91F3
:103BA000CF911F910F91FF90EF90DF90CF90BF903A
:103BB000AF9008950F931F93CF93DF93EC0168812B
:103BC00079818A810E9425248C010E9481230E9490
:103BD000BD21B801CE01DF91CF911F910F910C94BF
:103BE0006E1BCF93DF93EC018B819C81892B29F095
:103BF0008881998189238F3F59F4DF91CF9108956E
:103C0000CE010E94DA1DCE01DF91CF910C94B30555
:103C1000CE010E946F068111F3CF0E946D2488238C
:103C200061F38A81882349F382E0DF91CF910C947C
:103C30000E2590E080E00E94631990E080E00E94F1
:103C400079190E9496240E94A7240E94C3240E94EE
:103C5000160E0C946A0C0E945D240C94191E0E948E
:103C600085240C942B1E282F892F82958F70903CD1
:103C700080F48A30B0F4843020F4823090F480E014
:103C800008958630E1F781E0283E88F0213FB9F7BA
:103C90000EC08C3011F08F3091F793FB882780F99C
:103CA000089581E0203F39F018F4283E40F7089548
:103CB000243F29F7FCCF08950E9419240C94331E49
:103CC000CF93DF9300D000D00F92CDB7DEB70F9027
:103CD0000F900F900F900F90DF91CF910895CF9399
:103CE000DF9300D000D000D0CDB7DEB726960FB658
:103CF000F894DEBF0FBECDBFDF91CF9108951F9323
:103D0000CF93DF93E091C80116E08091C9018E1333
:103D100004C0DF91CF911F910895CE2FD0E01E9F58
:103D2000F0011124E653FE4F40815181628173817D
:103D3000848195810E946F1EFE013196E770E5CF68
:103D40004091FA015091FB016091FC017091FD01DD
:103D50008091FE019091FF010C946F1E1F93CF93F1
:103D6000DF938091FF01807FA9F48091FC0188237B
:103D700089F08091C801C091C9016091FA017091E8
:103D8000FB01A091FD01B091FE01D62FD72316E0D3
:103D9000C81304C0DF91CF911F91089590E0109750
:103DA00011F0DF3F19F401968770F2CF189F900150
:103DB000199F300D1124F901E653FE4F418147133D
:103DC000F2CF40814613EFCF42814111ECCF4381C6
:103DD00054814A1B5B0B483C510528F78091FF0139
:103DE0008F7080618093FF01F901E153FE4F808164
:103DF0008F70806180838AEF91E00E94F11DDF91D6
:103E0000CF911F910C947F1EAF92BF92CF92DF9201
:103E1000EF92FF920F931F93CF93DF93CDB7DEB74F
:103E20002B970FB6F894DEBF0FBECDBF8C0185E097
:103E3000F801DE01179601900D928A95E1F7F801DD
:103E400040815181E2808AEFC82E81E0D82E6091B6
:103E5000FD017091FE016115710509F444C1909155
:103E6000FA012091FB01822F89238F3F09F43BC186
:103E7000A380B480F090FC01F501E61BF70BFF2056
:103E800009F4E0C08091FF01382F307FE83CF10554
:103E900008F0B2C0311179C0FE2C251323C0941351
:103EA00021C0E1101FC08F7080618093FF010E94CC
:103EB000A01EC6010E94F11D8091FF01F8018583BB
:103EC0008F2D2B960FB6F894DEBF0FBECDBFDF91BE
:103ED000CF911F910F91FF90EF90DF90CF90BF9007
:103EE000AF900895AB2829F0842F85238F3F09F0E8
:103EF00016C180E0F82FF170DF2EE091C80120910B
:103F0000C90136E080FD1CC0EE20D1F28091FF0196
:103F100081608093FF01F12CD3CF8E2F90E03E9FE4
:103F2000F0011124E653FE4F6181651306C06081E4
:103F3000641303C06281E612E7CFFC013196E7709B
:103F4000E213EBCF4F8358878F8198850E94192405
:103F5000292F22952F70903260F0225F2F7022302F
:103F600078F49F7051F0F8019581907F31F4D12C55
:103F70000AC09F7011F08823D1F3805E8830B8F3B7
:103F8000C8010E94F11DFD2C9BCF251306C0941380
:103F900004C0F801EE2009F470C04F8358878F8168
:103FA00098850E945C1E882319F1EE2009F180910A
:103FB000FF01803270F02091FA013091FB013A83C9
:103FC00029831B82BD82AC828E83CE0101960E9422
:103FD000F11D86E0F801AAEFB1E001900D928A95FB
:103FE000E1F70E94AE1E0E94A01EFF24F39468CF4A
:103FF000C8010E94F11DF9CF311113C07A2DBB8683
:10400000AA866E2D8B850E94601E8AEF91E00E9429
:10401000F11D86E0F60111928A95E9F70E94A01E33
:104020007ACF2513BACF9413B8CFE110B6CFF801E9
:104030008583C8010E94F11D86E0F60111928A95E0
:10404000E9F73ECFE83CF10508F040C0FE2CEE2039
:1040500079F225132AC0941328C08091FF0180FDB6
:104060001BC0982F907FC1F0F8018583903F31F0FD
:10407000982F907F905F8F70892B8583C8010E9455
:10408000F11D86E0F801AAEFB1E001900D928A954A
:10409000E1F70E94A01E14CF86E0F801AAEFB1E07C
:1040A00001900D928A95E1F70BCF4F8358878F814E
:1040B00098850E945C1E81118CCF8091FF018160E8
:1040C0008093FF01C8010E94F11DFACE7A2DBB86B4
:1040D000AA866E2D8B850E94601E86E0F6011192E5
:1040E0008A95E9F7D6CFEE2009F482CF4F8358871F
:1040F0008F8198850E945C1EF82E882309F478CF62
:1041000086E0F801AAEFB1E001900D928A95E1F7FF
:104110008AEF91E00E94C01A0E94AE1EBACF81E0E1
:104120008E25E8CE1F93CF93DF93CDB7DEB72C97C4
:104130000FB6F894DEBF0FBECDBF4F835887698797
:104140007A878B879C87CE0107960E94041F88235D
:1041500069F08A859B85892B39F04F815885842F9A
:1041600085238F3F09F077C016E065C086E0FE0129
:104170003796DE01119601900D928A95E1F76A85D6
:104180007B856115710581F35F814885842F8523C7
:104190008F3F51F32091C90130E0C901019687702A
:1041A0009927E091C801E817190671F40E942F1EA3
:1041B0001092C9011092C80186E0EAEFF1E0DF0138
:1041C0001D928A95E9F7D0CF59834A837D836C830A
:1041D00096E0929FD001939FB00D1124A653BE4F3D
:1041E000FE01319601900D929A95E1F78093C901F5
:1041F0000E947F1EB9CF819FC001112486539E4F1C
:104200000E94041F8823E9F0E091C8011E9FF0017D
:104210001124E653FE4F4081518162817381848174
:1042200095810E946F1E8091C80190E00196877071
:1042300099278093C8018091C8019091C901891381
:10424000DACF2C960FB6F894DEBF0FBECDBFDF914C
:10425000CF911F91089569857A858B859C850E94F1
:104260006F1E82CFEF92FF920F931F93CF93DF9336
:104270008C01892B89F0F12CEE24E394E80121963E
:10428000F8018491843709F457C0A0F4823009F40E
:104290003EC048F48130D1F0DF91CF911F910F9152
:1042A000FF90EF9008959CEF980F9037A8F70E9429
:1042B000C51A0AC0853709F44CC09CE7980F90379F
:1042C00058F78F770E94121B8E0116C00E5F1F4F8A
:1042D000FE01849190E2980F983060F48770FE2D73
:1042E00001C0FF0F8A95EAF78F2F0E9499240E9440
:1042F000C32402C00E94C51A8F2D815008F4BECF7E
:10430000EFE9FFE03197F1F700C00000F6CF0E5F54
:104310001F4FFE01849190E2980F983050F48770FF
:10432000FE2D01C0FF0F8A95EAF78F2F0E949F2470
:10433000DECF0E94121BE0CF0E5F1F4FFE01C49123
:10434000C150D0F28FE99FE00197F1F700C0000063
:10435000F7CF0E5F1F4FFE01F490CECF08950C945F
:10436000AE210E94AF2160931302709314028093D8
:104370001502909316020C94191E08950C94B12105
:10438000CF93DF9300D000D0CDB7DEB769837A83B7
:104390008B839C838091130290911402A09115024B
:1043A000B091160229813A814B815C81282B392BEF
:1043B0004A2B5B2B29833A834B835C83CA01B90167
:1043C0000F900F900F900F90DF91CF910C94B1212F
:1043D000CF93DF9300D000D0CDB7DEB769837A8367
:1043E0008B839C838091130290911402A0911502FB
:1043F000B091160229813A814B815C8128233923AF
:104400004A235B2329833A834B835C83CA01B90126
:104410000F900F900F900F90DF91CF910C94B121DE
:10442000CF93DF9300D000D0CDB7DEB769837A8316
:104430008B839C838091130290911402A0911502AA
:10444000B091160229813A814B815C812827392756
:104450004A275B2729833A834B835C83CA01B901CE
:104460000F900F900F900F90DF91CF910C94B1218E
:104470000C94AE210C9438220E943A2260930F02D1
:104480007093100280931102909312020C94191EE3
:1044900060E070E0CB010C943C220F931F93CF930C
:1044A000DF9300D000D0CDB7DEB741E050E060E050
:1044B00070E08A019B0104C0000F111F221F331FEF
:1044C0008A95D2F709831A832B833C83C901B801EB
:1044D0000F900F900F900F90DF91CF911F910F9140
:1044E0000C943C220F931F93CF93DF9300D000D006
:1044F000CDB7DEB741E050E060E070E004C0440FAB
:10450000551F661F771F8A95D2F780910F029091F1
:104510001002A0911102B09112028A019B01082B96
:10452000192B2A2B3B2B09831A832B833C83C9012C
:10453000B8010F900F900F900F90DF91CF911F91C6
:104540000F910C943C220F931F93CF93DF9300D0D5
:1045500000D0CDB7DEB741E050E060E070E004C0CD
:10456000440F551F661F771F8A95D2F740955095C7
:104570006095709580910F0290911002A0911102A8
:10458000B09112028A019B01082319232A233B239D
:1045900009831A832B833C83C901B8010F900F90C4
:1045A0000F900F90DF91CF911F910F910C943C22AF
:1045B0000F931F93CF93DF9300D000D0CDB7DEB71A
:1045C00041E050E060E070E004C0440F551F661FFA
:1045D000771F8A95D2F780910F0290911002A091D7
:1045E0001102B09112028A019B01082719272A277C
:1045F0003B2709831A832B833C83C901B8010F90A1
:104600000F900F900F90DF91CF911F910F910C940D
:104610003C22CF93DF9300D000D0CDB7DEB76983C3
:104620007A838B839C8380910F0290911002A091DA
:104630001102B091120229813A814B815C81282BB1
:10464000392B4A2B5B2B29833A834B835C83CA012A
:10465000B9010F900F900F900F90DF91CF910C94B4
:104660003C22CF93DF9300D000D0CDB7DEB7698373
:104670007A838B839C8380910F0290911002A0918A
:104680001102B091120229813A814B815C81282369
:1046900039234A235B2329833A834B835C83CA01F2
:1046A000B9010F900F900F900F90DF91CF910C9464
:1046B0003C22CF93DF9300D000D0CDB7DEB7698323
:1046C0007A838B839C8380910F0290911002A0913A
:1046D0001102B091120229813A814B815C81282715
:1046E00039274A275B2729833A834B835C83CA0196
:1046F000B9010F900F900F900F90DF91CF910C9414
:104700003C220895E92FEE0FEE0FE80F8E2F8770F1
:1047100041E001C0440F8A95EAF7E695E695E695F3
:1047200085E0E89FF0011124E050FE4F30E020E0EA
:1047300070E05191DF011197CB01022E02C09695D6
:1047400087950A94E2F781708195852784238527D0
:104750008C932F5F3F4F2530310559F70895E92F8E
:10476000EE0FEE0FE80F9E2F9770E695E695E69513
:1047700085E0E89FF0011124E050FE4F50E040E05A
:1047800080E0219130E0092E02C0369527950A94E9
:10479000E2F721703327042E01C0220F0A94EAF7B2
:1047A000822B4F5F5F4F4530510559F70895BF92F7
:1047B000CF92DF92EF92FF920F931F93CF93DF93ED
:1047C0008C01C0900F02D0901002E0901102F09086
:1047D00012028091130290911402A0911502B091DF
:1047E0001602C82AD92AEA2AFB2ACFE1D0E0BC2E39
:1047F000D701C6010C2E04C0B695A795979587954D
:104800000A94D2F780FD0EC0219788F7B12C8B2D2A
:10481000DF91CF911F910F91FF90EF90DF90CF909C
:10482000BF900895B8018C2F0E94CD07019761F3C6
:10483000EECFCF93DF93D82FC92F0E94D7236D2FB0
:104840007C2FDF91CF910C94CD071F93CF93DF93F3
:10485000162FD72F9091C701992339F0862F972FC4
:10486000DF91CF911F910C941924882391F0862F0A
:10487000972F0E94D723C82F682F812F9D2F0E942A
:104880008223612F7D2F8C2FDF91CF911F910C946C
:10489000CD07862F972F0E94AF23C82FF2CF682F06
:1048A00080910D0190910E010C949126682F8091BA
:1048B0000D0190910E010C949C2680910D01909118
:1048C0000E010C94A72680911702859585958595F4
:1048D000089580911702877008959091170297703C
:1048E00081E009F480E0089580913B020895909161
:1048F0003B02982B90933B020895982F90958091BE
:104900003B02892380933B02089510923B02089555
:1049100090913A02982B90933A020895982F90958F
:1049200080913A02892380933A02089510923A02C4
:10493000089590913902982B909339020895982FF9
:1049400090958091390289238093390208951092BD
:104950003902089580911802089508950C94AD24A9
:1049600090911802981721F0809318020C94AE24AD
:10497000089580911802882329F01092180280E08F
:104980000C94AE240895E0910D01F0910E018091F8
:104990003B028083E0910D01F0910E0180819091A6
:1049A0003A02892B8083E0910D01F0910E01808104
:1049B00090913902892B808390911802992381F07C
:1049C000E0910D01F0910E018081892B808380910F
:1049D0000D0190910E010E94D72581110E94B924EA
:1049E00080910D0190910E010C94F91808950C948A
:1049F000F62498E0899F90011124622B609317029E
:104A00000E947222809117028595859585950C9458
:104A1000F7241092170280E00C94F724909117026B
:104A20008095892380931702282F277071F4282FEF
:104A3000082E000C330B9217130639F085958595D7
:104A400085950E94A3220C94092508956FEF7FEFAE
:104A500090E080E00C94963090E080E00E9472300C
:104A60009C0181E02B3E3E4F09F080E0089582E0FA
:104A700090E00C94643083E090E00C946430CF9329
:104A800084E090E00E946430C82F81E290E00E94B0
:104A90006430982F8C2FCF910895CF93682FC92F12
:104AA00084E090E00E9478306C2F81E290E0CF911A
:104AB0000C947830AB01BC018FE090E00C948A300C
:104AC000AB01BC0183E190E00C948A3060E070E0BF
:104AD000CB010C94602560E070E0CB010E945A2568
:104AE0000C9466256BEE7EEF90E080E00E9496309D
:104AF00060E082E090E00E94783060E083E090E047
:104B00000E94783010921302109214021092150233
:104B10001092160260E084E090E00E94783060E03D
:104B200081E290E00E94783060E085E090E00E94B1
:104B3000783060E086E090E00E9478306FEF87E0A8
:104B400090E00E94783040E050E0BA0188E090E0C8
:104B50000E948A3060E08DE090E00E94783040E072
:104B600050E0BA0188E190E00E948A3060E087E17D
:104B700090E00E94783040E050E0BA018CE190E093
:104B80000E948A3060E080E290E00E94783040E04D
:104B900050E0BA0188E190E00E948A300C946B25C5
:104BA0000C947225682F8EE090E00C947830FC0114
:104BB000329680911901882321F0809182029EE132
:104BC00087FF96E080E0915008F408952191222318
:104BD000D1F38F5FF8CF9C01662301F18091190119
:104BE0008823F1F08091820287FF1AC0462F4695F4
:104BF00046954695603F90F4677081E090E002C072
:104C0000880F991F6A95E2F7240F311DF90122815F
:104C100030E02823392381E0232B71F480E00895CC
:104C2000F9013296285F3F4F8191861721F0E217F4
:104C3000F307D1F7F3CF81E008959C01FC01329690
:104C40008FEF90E04191461751F08F3F19F44111D9
:104C500001C0892F9F5F9630A9F78F3F09F408950F
:104C6000280F311D87FD3A95F901628308959C0153
:104C7000FC013296285F3F4F8191861303C0DF010C
:104C800011971C92E217F307B9F70895E62FE695FE
:104C9000E695E695603F70F4E80FF92FF11D677017
:104CA00021E030E001C0220F6A95EAF78281822B71
:104CB0008283089580913C0280FF0CC01F926F9305
:104CC00085EC96E09F938F930E9465050F900F905F
:104CD0000F900F900895E62FE695E695E695603FD4
:104CE00078F4E80FF92FF11D677081E090E001C0C2
:104CF000880F6A95EAF780959281892382830895C7
:104D000080913C0280FF0CC01F926F9387EA96E06F
:104D10009F938F930E9465050F900F900F900F90B7
:104D2000089520911901222329F02091820227FD64
:104D30000C9446260C941D2620911901222329F05B
:104D40002091820227FD0C946B260C943726FC01DF
:104D5000329680911901882351F08091820287FF59
:104D600006C08EE1DF011D928A95E9F7089586E07D
:104D7000F9CF089508950C94BA2680918802843062
:104D800049F10E94BB2680E00E94B90710923D02C3
:104D900088E190E020E40FB6F894A8958093600035
:104DA0000FBE2093600083B7817F846083BF83B789
:104DB000816083BF7894889583B78E7F83BF0FB659
:104DC000F894A895809160008861809360001092AB
:104DD00060000FBE08950895CF930E94B9260E94E7
:104DE000620A0E94EB26C0E08C2F0E94C00981114C
:104DF00005C0CF5FC530C1F7CF91089581E0FCCFEA
:104E000008950C9400270E942F1E0E94ED180E9406
:104E1000B9070C9401271F921FB61F9211248F937C
:104E20009F93AF93BF9380913D02811113C08091F6
:104E30007E0290917F02A0918002B0918102419602
:104E4000A11DB11D80937E0290937F02A0938002EA
:104E5000B0938102BF91AF919F918F911F901FBE20
:104E60001F90189582E084BD93E095BD9AEF97BDA1
:104E700080936E0008952FB7F89480917E029091F0
:104E80007F02A0918002B09181022FBF0895CF933D
:104E9000DF9300D000D0CDB7DEB78FB7F894209164
:104EA0007E0230917F0240918002509181022983DD
:104EB0003A834B835C838FBF69817A818B819C812C
:104EC0000F900F900F900F90DF91CF9108959C015C
:104ED0004FB7F89480917E0290917F02A09180025A
:104EE000B09181024FBF821B930B089578941F925B
:104EF0001FB61F9211248F939F93AF93BF938091FE
:104F00007E0290917F02A0918002B0918102019671
:104F1000A11DB11D80937E0290937F02A093800219
:104F2000B0938102BF91AF919F918F911F901FBE4F
:104F30001F90189587E797E79093010880930008E2
:104F400088E19AE00FB6F894A895809360000FBEB0
:104F500090936000FFCF90939B0180939A010895F6
:104F60000C94B2130E94620A8FE39CE90197F1F757
:104F700000C000000E94620A80E00E94C00980FF19
:104F800004C00E94B0270C949A270895CF93DF9312
:104F900000D000D0CDB7DEB70E942C25811102C011
:104FA0000E94D0250E94372580933C020E943F2515
:104FB00090938302809382020E943B25282F30E049
:104FC00050E040E0CA01B9010E94BE2180910F0269
:104FD00090911002A0911102B091120289839A83DC
:104FE000AB83BC83BC01CD010F900F900F900F904D
:104FF000DF91CF910C943A22809161020895CF9372
:10500000DF9300D00F92CDB7DEB790918802943035
:1050100011F589836A837B839093E9008FEF9091E8
:10502000E800815095FD06C095ED9A95F1F70000D6
:105030008111F5CF8091E80085FF0DC050E040E080
:1050400063E070E0CE0101960E944D2B8091E80054
:105050008E778093E8000F900F900F90DF91CF91A3
:105060000895BC0184E00C94FF27BC0183E00C94FC
:10507000FF2724E02093E9002FEF3091E800215032
:1050800035FD06C035ED3A95F1F700002111F5CF59
:105090002091E80025FF0BC050E040E066E070E0A2
:1050A0000E944D2B8091E8008E778093E800089550
:1050B000CF93DF93D82FC92F809119018823C1F195
:1050C0008091820287FF34C060E284E08093E9002F
:1050D0008FEF9091E800815095FD06C095ED9A956F
:1050E000F1F700008111F5CF8091E80085FF1DC028
:1050F0008091190170E050E040E0811104C050E05F
:1051000040E068E070E08D2F9C2F0E944D2B809135
:10511000E8008E778093E80080E2ED2FFC2FA1E479
:10512000B2E001900D928A95E1F7DF91CF91089559
:1051300068E081E0CBCFCF93603219F520918802EF
:105140002430F9F4C091E900CF703091EC00232FA6
:10515000217030FD20E8C22B22E02093E90020914D
:10516000E80020FF0BC050E040E060E270E00E94E9
:105170004D2B8091E8008E778093E800CF70C0932C
:10518000E900CF91089588E097E00E94CC048091D7
:105190008702811109C00E94242D0E94812D8091D7
:1051A000E20084608093E200089584E097E00E942A
:1051B000CC0410928702089580E097E00C94CC0410
:1051C0008CEF96E00C94CC0488EF96E00C94CC0421
:1051D00020913F022F5F822F62E30E9423309923A8
:1051E00019F020933F02089510923F0280914002EF
:1051F0008823F1F0809188028430C1F49091E90015
:105200009F702091EC00822F817020FD80E8892B17
:1052100095E09093E9009091EB0090FF04C090918D
:10522000EE0097FD08C08F708093E9001092400255
:1052300008951092F1009091E80095FDFACF9091B9
:10524000E80090FFF0CF9091E8009E779093E800FF
:10525000EACF42E061EC81E00E94A02C42E261ECE6
:1052600084E00E94A02C42E261EC82E00E94A02C2B
:1052700042E260EC83E00E94A02C42E261EC85E017
:105280000C94A02C80918A02893089F148F48230F4
:1052900009F49EC0833009F459C0813041F008956B
:1052A0008A3009F485C08B3009F46BC00895809171
:1052B0008902813A09F049C08091E800877F809394
:1052C000E80080918D0290918E02892B61F460E25A
:1052D00081E492E070E00E94EB2B8091E8008B77F4
:1052E0008093E800089560E090E080E0F3CF809143
:1052F0008902813251F580918D0290918E028D7FCD
:10530000892B19F58091E800877F8093E8008091D0
:10531000E80082FF16C09091F3008091F20002979E
:1053200029F48091F1008B7F813021F48091F1008C
:10533000809361028091E8008B778093E8000C9461
:10534000D42C809188028111E2CF08958091890246
:10535000813AD9F780918D0290918E02892BA9F71D
:105360008091E800877F8093E8008091E80080FFCB
:10537000FCCF809119018093F1008091E8008E7735
:10538000DCCF80918902813201F780918D0290916A
:105390008E02892BD1F68091E800877F8093E80008
:1053A0000E94D42C80918B02809319010C942F1EA3
:1053B00080918902813249F68091E800877F80934D
:1053C000E8000E94D42C80918C02809362020895A0
:1053D00080918902813A09F0B8CF8091E800877FF7
:1053E0008093E8008091E80080FFFCCF809162020A
:1053F000C2CF9FB7F894109240029FBF909188024D
:10540000943009F048C02091E9002F703091EC00F1
:10541000932F917030FD90E8922B25E02093E900C6
:105420002091EB0020FF34C02091EE0027FF30C018
:1054300020913E02222321F02091E80025FF28C080
:1054400010923E0226E03091E80035FF14C08093B0
:10545000F1008091E80085FD27C08091E80080FF81
:10546000FCCF8091E8008E778093E8009F70909346
:10547000E90080E0089530918802343049F4309199
:10548000EB0035FD05C0215041F481E080933E02E0
:105490009F709093E9008FEF0895EFE9FFE0319757
:1054A000F1F700C00000CFCF8FB7F89421E0209330
:1054B00040028FBFDBCFCDB7DEB7A0970FB6F89411
:1054C000DEBF0FBECDBF84B7877F84BF0FB6F89411
:1054D000A8958091600088618093600010926000C0
:1054E0000FBE80E890E00FB6F8948093610090932F
:1054F00061000FBE0E94B0190E94242D0E94812DD0
:105500008091E20084608093E20078940E940830E9
:105510000E94C0198FE091E00E94E81887EE96E0A3
:105520000E94CC0413E080918802853051F483EE10
:1055300096E00E94CC0480918802853069F00E9438
:1055400003270E94F419809188028430A1F00E9400
:10555000BE190E94BF19E7CF0E94BD268091860226
:10556000882349F30E94EC26882329F30E94372BD5
:105570000E942F1EE0CF1093E9008091E80082FF87
:10558000E6CF8091E80090E085FF09C050E040E060
:1055900060E270E0CE0101960E949C2B91E0809128
:1055A000E8008B778093E800992389F260E2CE01CE
:1055B00001960E947714CBCF0C94DE2AFC01CB011C
:1055C000DA012F2F332723303105D1F070F4213049
:1055D000310509F447C02230310569F48BE790E0CA
:1055E00026E237E02D933C93089521323105E9F00E
:1055F0002232310539F190E080E030E020E0F2CF56
:10560000CF019927E13059F08230910559F0E2E25B
:10561000F7E0892B81F7849190E09F01E3CFE6E1E9
:10562000F7E0F9CFECE0F7E0F6CF6430710518F75A
:10563000880F991FFC01EF56FE4F2081318189E0D0
:1056400090E0D0CF64307105B0F6FB01EE0FFF1F84
:10565000E757FE4F208131818B579E4FFC0180819F
:1056600090E0C0CF82E190E021EA37E0BBCF80E15B
:1056700089BD82E189BD09B400FEFDCF8091D800CB
:105680008F7D8093D8008091E00082608093E0005D
:105690008091E00081FDFCCF0895AF92BF92CF9240
:1056A000DF92FF920F931F93CF93DF936C01EB0177
:1056B0008A010E94F32CF82E811123C001151105D7
:1056C00039F0F80180819181C81BD90BC80ED91E11
:1056D000B12CA12C2097A9F08091E80085FD22C073
:1056E0008091E8008E778093E80001151105A1F004
:1056F000F80180819181A80EB91EB182A08285E057
:10570000F82E8F2DDF91CF911F910F91FF90DF9099
:10571000CF90BF90AF9008950E94F32C8823D1F2D0
:10572000F82EEFCFF60181916F018093F100219760
:10573000FFEFAF1ABF0ACECFAF92BF92CF92DF92E8
:10574000FF920F931F93CF93DF936C01EB018A01BC
:105750000E94F32CF82E811123C00115110539F098
:10576000F80180819181C81BD90BC80ED91EB12CBC
:10577000A12C2097A9F08091E80085FD22C080919E
:10578000E8008B778093E80001151105A1F0F8017E
:1057900080819181A80EB91EB182A08285E0F82E89
:1057A0008F2DDF91CF911F910F91FF90DF90CF90C0
:1057B000BF90AF9008950E94F32C8823D1F2F82E69
:1057C000EFCF8091F100F60181936F012197FFEFF8
:1057D000AF1ABF0ACECFFC01CB0120918F023091CE
:1057E00090022617370790F0009729F42091E800DF
:1057F0002E772093E80040E0009751F4411108C053
:105800008091E80082FF31C080E00895C901F3CFA4
:10581000209188022223A9F12530A9F12091E800E6
:1058200023FD2DC02091E80022FDEACF2091E80061
:1058300020FFE2CF3091F3002091F200009719F0A1
:105840002830310558F041E02830310509F040E0BA
:105850002091E8002E772093E800CECF419140932D
:10586000F10001972F5F3F4FE9CF80918802882395
:1058700041F0853041F08091E80083FFC1CF81E0A5
:10588000089582E0089583E00895FC01CB01209102
:105890008F02309190022617370790F0009729F475
:1058A0002091E8002E772093E80040E0009751F423
:1058B000411108C08091E80082FF32C080E0089565
:1058C000C901F3CF209188022223B1F12530B1F133
:1058D0002091E80023FD2EC02091E80022FDEACFB0
:1058E0002091E80020FFE2CF3091F3002091F200F8
:1058F000009719F02830310558F041E02830310583
:1059000009F040E02091E8002E772093E800CECF08
:1059100044914093F100319601972F5F3F4FE8CFBC
:1059200080918802882341F0853041F08091E80021
:1059300083FFC0CF81E0089582E0089583E0089559
:10594000982F973028F08F708093E90081E00895B8
:105950009093E900242F762F50E0981731F0709142
:10596000EC002091ED005091F00021FD02C09F5FFE
:10597000E8CF3091EB003E7F3093EB003091ED00AB
:105980003D7F3093ED003091EB0031603093EB00C0
:105990007093EC002093ED005093F0002091EE0006
:1059A00027FDE5CF80E008958091890287FF13C02D
:1059B0008091E80082FF06C08091E8008B77809399
:1059C000E80004C0809188028111F2CF089580918F
:1059D00088028823D9F38091E80080FFF8CF809176
:1059E000E8008E77ECCF2091E4003091E50095E659
:1059F000A9012091EC00822F817020FF06C08091C8
:105A0000E80080FF06C080E008952091E80022FDB4
:105A10001AC080918802882389F0853089F08091AE
:105A2000EB0085FD0FC02091E4003091E5004217A6
:105A30005307F9F29150E1F684E0089582E0089569
:105A400083E0089581E008950E94922D0E949A2D8E
:105A5000E0EEF0E0808181608083E8EDF0E080811D
:105A60008F77808319BCA7EDB0E08C918E7F8C93EB
:105A700080818F7E80831092870208950F931F93F9
:105A8000CF93DF930E94922D0E949A2DC8EDD0E013
:105A900088818F77888388818068888388818F7DDB
:105AA000888319BC10928802109284021092860298
:105AB0001092850200EE10E0F80180818B7F8083D8
:105AC00088818160888342E060E080E00E94A02CB1
:105AD000E1EEF0E080818E7F8083E2EEF0E0808175
